:020000040800F2
:1000000000280020F517000801170008091700084C
:100010001117000819170008211700080000000038
:100020000000000000000000000000002917000888
:100030003517000800000000411700084D170008A0
:100040003D1800083D1800083D1800083D1800083C
:100050003D1800083D1800083D1800085917000811
:100060003D1800083D1800083D1800083D1800081C
:100070003D1800083D1800083D1800083D1800080C
:100080003D1800083D1800083D1800083D180008FC
:100090003D1800083D1800083D1800083D180008EC
:1000A0003D1800083D1800083D1800083D180008DC
:1000B0003D1800083D180008000000003D18000829
:1000C0003D18000800000000000000003D18000876
:1000D00000000000691700083D180008000000003B
:1000E0003D1800083D1800083D18000800000000F9
:1000F0000000000000000000000000000000000000
:0C01000000000000000000005FF808F1A3
:10010C0010B5054C237833B9044B13B10448AFF345
:10011C0000800123237010BD5C0000200000000053
:10012C004855000808B5034B1BB103490348AFF30E
:10013C00008008BD00000000600000204855000849
:10014C00034613F8012B002AFBD1181A013870470B
:10015C0080F0004002E000BF81F0004142001FBF70
:10016C005FEA410392EA030F7FEA226C7FEA236C79
:10017C006AD04FEA1262D2EB1363C1BFD21841406E
:10018C0048404140B8BF5B42192B88BF704710F004
:10019C00004F40F4000020F07F4018BF404211F0A7
:1001AC00004F41F4000121F07F4118BF494292EA0F
:1001BC00030F3FD0A2F1010241FA03FC10EB0C003B
:1001CC00C3F1200301FA03F100F0004302D54942C8
:1001DC0060EB4000B0F5000F13D3B0F1807F06D375
:1001EC0040084FEA310102F10102FE2A51D2B1F16D
:1001FC00004F40EBC25008BF20F0010040EA030062
:10020C007047490040EB0000013A28BFB0F5000FE1
:10021C00EDD2B0FA80FCACF1080CB2EB0C0200FA97
:10022C000CF0AABF00EBC25052421843BCBFD040E6
:10023C001843704792F0000F81F4000106BF80F460
:10024C0000000132013BB5E74FEA41037FEA226C23
:10025C0018BF7FEA236C21D092EA030F04D092F0EE
:10026C00000F08BF0846704790EA010F1CBF002022
:10027C00704712F07F4F04D1400028BF40F000407F
:10028C00704712F100723CBF00F50000704700F09F
:10029C00004343F0FE4040F4000070477FEA2262C6
:1002AC0016BF08467FEA23630146420206BF5FEA97
:1002BC00412390EA010F40F4800070474FF0000397
:1002CC0004E000BF10F0004348BF40425FEA000C5E
:1002DC0008BF704743F0964301464FF000001CE006
:1002EC0050EA010208BF70474FF000030AE000BF5C
:1002FC0050EA010208BF704711F0004302D540429A
:10030C0061EB41015FEA010C02BF8446014600200B
:10031C0043F0B64308BFA3F18053A3F50003BCFA26
:10032C008CF2083AA3EBC25310DB01FA02FC6344D3
:10033C0000FA02FCC2F12002BCF1004F20FA02F2DA
:10034C0043EB020008BF20F00100704702F12002CD
:10035C0001FA02FCC2F1200250EA4C0021FA02F22E
:10036C0043EB020008BF20EADC7070474FF0FF0C33
:10037C001CEAD0521EBF1CEAD15392EA0C0F93EA2E
:10038C000C0F6FD01A4480EA010C400218BF5FEAD0
:10039C0041211ED04FF0006343EA501043EA511143
:1003AC00A0FB01310CF00040B1F5000F3EBF49003D
:1003BC0041EAD3715B0040EA010062F17F02FD2A41
:1003CC001DD8B3F1004F40EBC25008BF20F0010024
:1003DC00704790F0000F0CF0004C08BF49024CEA3B
:1003EC00502040EA51207F3AC2BFD2F1FF0340EACD
:1003FC00C250704740F400004FF00003013A5DDC3E
:10040C0012F1190FDCBF00F000407047C2F100027E
:10041C00410021FA02F1C2F1200200FA02FC5FEA6B
:10042C00310040F1000053EA4C0308BF20EADC70B5
:10043C00704792F0000F00F0004C02BF400010F427
:10044C00000F013AF9D040EA0C0093F0000F01F0D4
:10045C00004C02BF490011F4000F013BF9D041EAF6
:10046C000C018FE70CEAD15392EA0C0F18BF93EAF8
:10047C000C0F0AD030F0004C18BF31F0004CD8D122
:10048C0080EA010000F00040704790F0000F17BFA9
:10049C0090F0004F084691F0000F91F0004F14D0EF
:1004AC0092EA0C0F01D142020FD193EA0C0F03D147
:1004BC004B0218BF084608D180EA010000F000404A
:1004CC0040F0FE4040F40000704740F0FE4040F425
:1004DC00400070474FF0FF0C1CEAD0521EBF1CEAC4
:1004EC00D15392EA0C0F93EA0C0F69D0A2EB0302E2
:1004FC0080EA010C49024FEA402037D04FF080537C
:10050C0043EA111143EA10130CF000408B4238BF40
:10051C005B0042F17D024FF4000C8B4224BF5B1A4E
:10052C0040EA0C00B3EB510F24BFA3EB510340EA9C
:10053C005C00B3EB910F24BFA3EB910340EA9C004A
:10054C00B3EBD10F24BFA3EBD10340EADC001B01BA
:10055C0018BF5FEA1C1CE0D1FD2A3FF650AF8B425E
:10056C0040EBC25008BF20F0010070470CF0004C6B
:10057C004CEA50207F32C2BFD2F1FF0340EAC25096
:10058C00704740F400004FF00003013A37E792F057
:10059C00000F00F0004C02BF400010F4000F013AB5
:1005AC00F9D040EA0C0093F0000F01F0004C02BFB0
:1005BC00490011F4000F013BF9D041EA0C0195E719
:1005CC000CEAD15392EA0C0F08D142027FF47DAFB2
:1005DC0093EA0C0F7FF470AF084676E793EA0C0FA2
:1005EC0004D14B023FF44CAF08466EE730F0004CA0
:1005FC0018BF31F0004CCAD130F000427FF45CAF30
:10060C0031F000437FF43CAF5FE700BF4FF0FF3C9D
:10061C0006E000BF4FF0010C02E000BF4FF0010CF0
:10062C004DF804CD4FEA40024FEA41037FEA226CB9
:10063C0018BF7FEA236C11D001B052EA530C18BFDB
:10064C0090EA010F58BFB2EB030088BFC81738BF40
:10065C006FEAE17018BF40F0010070477FEA226C2E
:10066C0002D15FEA402C05D17FEA236CE4D15FEA2A
:10067C00412CE1D05DF8040B704700BF844608465E
:10068C006146FFE70FB5FFF7C9FF002848BF10F11F
:10069C00000F0FBD4DF808EDFFF7F4FF0CBF012064
:1006AC0000205DF808FB00BF4DF808EDFFF7EAFFEE
:1006BC0034BF012000205DF808FB00BF4DF808EDA9
:1006CC00FFF7E0FF94BF012000205DF808FB00BF9E
:1006DC004DF808EDFFF7D2FF94BF012000205DF824
:1006EC0008FB00BF4DF808EDFFF7C8FF34BF012031
:1006FC0000205DF808FB00BF42000ED2B2F1FE4FA5
:10070C000BD34FF09E03B3EB126209D44FEA0023D4
:10071C0043F0004323FA02F070474FF0000070479B
:10072C0012F1610F01D1420202D14FF0FF3070473C
:10073C004FF00000704700BF90B589B000AFF86073
:10074C00B9607A603B607968B868FFF705FD0346CD
:10075C007B6101F0C7F80346444A1360FB68DC6810
:10076C00FB689B6879691846FFF700FE03463968F9
:10077C001846FFF7FBFD034619462046FFF7EEFC33
:10078C0003461A46FB68DA60FB68DA68FB689B690B
:10079C0019461046FFF7A6FF0346002B03D0FB6853
:1007AC009A69FB68DA60FB68DA68FB685B69194672
:1007BC001046FFF779FF0346002B03D0FB685A69FC
:1007CC00FB68DA604FF00003FB614FF00001386802
:1007DC00FFF788FF0346002B13D0FB681C68FB68EF
:1007EC001B6919467869FFF7B7FC03461946204682
:1007FC00FFF7BCFD034639681846FFF76BFE03464E
:10080C00FB61FB685B6879691846FFF7AFFD03462F
:10081C001A46FB68DB6819461046FFF79FFC034637
:10082C001946F869FFF79AFC0346BB61FB687A69C5
:10083C001A61FB689B691946B869FFF753FF0346B9
:10084C00002B02D0FB689B69BB61FB685B69194696
:10085C00B869FFF729FF0346002B02D0FB685B69E0
:10086C00BB61BB6918462437BD4690BDA40100206E
:10087C00B0B5AEB002AFB44B4FF0FF325A61B24BD1
:10088C004FF0FF32DA61B04B4FF0FF329A6100F05B
:10089C00D1FF00F043FBAC4BDB69AB4A43F00203E6
:1008AC00D361A94B9B69A84A43F48043936100F040
:1008BC00B7FC00F019FC00F079FC00F07FFB00F0B5
:1008CC00BBFB00220121A14801F07EFF0022022186
:1008DC009E4801F079FF01229D499E4803F041FB9F
:1008EC0008219D4802F06CFD0346002B01D000F05E
:1008FC00AFFD994B1B684FF6FF72DA633C219748AA
:10090C0002F09CFE00F0EEFF0346954A1360954BF7
:10091C00C7F88430944BC7F888304FF07E53C7F833
:10092C0080304FF00003C7F88C304FF00003C7F84D
:10093C0090308E4BC7F898304FF00003C7F89430C6
:10094C008B4801F0B1F80A21894801F05BF90346A4
:10095C00002B05D1864801F05BFA0346854A1360EB
:10096C00844B1B681846FFF7A9FC034682491846BE
:10097C00FFF7FCFC034681491846FFF7ABFD034625
:10098C001A467F4B1A607E4B1B687E4A11461846EE
:10099C00FFF7A8FE0346002B2FD07B4B1B78002BB8
:1009AC002BD1794B01221A7000220121674801F0EA
:1009BC000BFF00220221654801F006FF664B1B6805
:1009CC004FF6FF72DA63714B07F164041D460FCDCD
:1009DC000FC495E8070003C422800234130C237063
:1009EC0007F164031846FFF7ABFB03469AB207F115
:1009FC0064016423574803F029FA00F073FF0246A0
:100A0C00574B1B68D31A632B57D900F06BFF034667
:100A1C00534A1360514B1B685B6A1AB25C4B1A80C9
:100A2C005B4BB3F900309AB25A4BB3F900309BB21E
:100A3C00D31A9BB2A7F8A630554BB3F90020554BEF
:100A4C001A80B7F9A6304FF4167202FB03F3524A20
:100A5C0082FB03121211DB17D31A1AB24F4B1A80F6
:100A6C004F4B93F90030002B27D04E4B1B78002BAB
:100A7C0023D1454B1B78002B1FD1484BB3F90030C9
:100A8C00002BB8BF5B429BB21846FFF71BFC03461A
:100A9C00C7F8A030444B196807F18000434BD7F8D6
:100AAC00A020FFF749FEC7F89C002B4B1C68D7F819
:100ABC009C00FFF721FE0346E3633D4B1B78012BA3
:100ACC007FF43EAF3A4B00221A70052239493A485E
:100ADC0004F094F80346002B1FD1324B00221A70FD
:100AEC00294B00221A704FF00003C7F88C303B469C
:100AFC00324A1C4615460FCD0FC495E8070003C4B7
:100B0C0022803B461846FFF71BFB03469AB2394638
:100B1C006423104803F09AF9F3E1224B1B78012B64
:100B2C0050D13B46264A1C4613460FCB84E80F0097
:100B3C003B461846FFF704FB03469AB2394664233A
:100B4C00044803F083F9DCE100100240000C014082
:100B5C008A01002038010020A8000020F0000020AD
:100B6C00A0010020000020420000204100FF7F4730
:100B7C0078000020900100200000A04000F07F458C
:100B8C00940100200000604098010020A456000849
:100B9C009A0100209C010020ABAAAA2A9E010020E9
:100BAC00AC0100208D010020A8010020CDCCCC3D53
:100BBC008C01002080010020605500086855000859
:100BCC0084550008B54B1B78002B19D03B46B44A12
:100BDC001C4615460FCD0FC495E803002060043465
:100BEC00218002340B0C23703B461846FFF7A8FA01
:100BFC0003469AB239466423AA4803F027F980E1E8
:100C0C000422A949A94803F0F9FF0346002B2DD172
:100C1C00A74B00221A70A74B4FF000021A604FF03E
:100C2C000003C7F88C3000220121A34801F0CCFD51
:100C3C0000220221A04801F0C7FDA04B1B684FF613
:100C4C00FF72DA639E4BB3F9003038469D4A64213B
:100C5C0003F096FF3B461846FFF772FA03469AB22A
:100C6C00394664238F4803F0F1F84AE18F4B1B7827
:100C7C00462B40F087808D4B5B78392B70D88B4B93
:100C8C005B782F2B6CD9904803F0F2FEC7F8AC00C0
:100C9C00D7F8AC30B3F57A7F03DB40F2E733C7F813
:100CAC00AC30D7F8AC30002B2BD1814B00221A7012
:100CBC00804B4FF000021A604FF00003C7F88C30E5
:100CCC00002201217C4801F07FFD002202217A489C
:100CDC0001F07AFD794B1B684FF6FF72DA633B46E5
:100CEC007A4A6421184603F04BFF3B461846FFF73F
:100CFC0027FA03469AB2394664236A4803F0A6F8E9
:100D0C00FFE0D7F8AC00FFF7DDFA0346694A136041
:100D1C00674B01221A704FF00003C7F88C30012288
:100D2C000121654801F050FD00220221624801F0CA
:100D3C004BFD634BB3F9003038460093D7F8AC3019
:100D4C00634A642103F01CFF3B461846FFF7F8F991
:100D5C0003469AB239466423524803F077F8D0E040
:100D6C003B465C4A6421184603F00AFF3B46184692
:100D7C00FFF7E6F903469AB239466423494803F073
:100D8C0065F8BEE0494B1B78522B40F0A980474BCD
:100D9C005B78392B70D8454B5B782F2B6CD94A4834
:100DAC0003F066FEC7F8A800D7F8A830B3F57A7F31
:100DBC0003DB40F2E733C7F8A830D7F8A830002B94
:100DCC002BD13B4B00221A703A4B4FF000021A60A9
:100DDC004FF00003C7F88C3000220121364801F097
:100DEC00F3FC00220221344801F0EEFC334B1B686B
:100DFC004FF6FF72DA633B46374A6421184603F01C
:100E0C00BFFE3B461846FFF79BF903469AB239469C
:100E1C006423244803F01AF873E0D7F8A800FFF70E
:100E2C0051FA0346234A1360214BFF221A704FF0EC
:100E3C000003C7F88C30002201211F4801F0C4FCCC
:100E4C00012202211C4801F0BFFC1D4BB3F90030FC
:100E5C0038460093D7F8A830204A642103F090FE5E
:100E6C003B461846FFF76CF903469AB239466423A1
:100E7C000C4802F0EBFF44E03B46164A642118464E
:100E8C0003F07EFE3B461846FFF75AF903469AB22A
:100E9C0039466423034802F0D9FF32E09801002060
:100EAC009455000838010020AC5500088001002042
:100EBC00AC010020A8010020000C0140A80000207B
:100ECC009E010020B455000881010020F055000857
:100EDC000856000840560008545600086C56000886
:100EEC003B460B4A6421184603F04AFE3B46184623
:100EFC00FFF726F903469AB239466423054802F0F7
:100F0C00A5FF0A220021044803F070FE18E500BF7B
:100F1C0040560008380100208001002080B594B0B4
:100F2C0000AF07F1280328220021184603F05EFECB
:100F3C0007F1140300221A605A609A60DA601A6191
:100F4C003B1D00221A605A609A60DA600223BB6271
:100F5C000123BB631023FB6300237B6407F128038D
:100F6C00184601F061FC0346002B01D000F070FA2A
:100F7C000F237B610023BB610023FB6100233B62D9
:100F8C0000237B6207F114030021184601F0CEFE0A
:100F9C000346002B01D000F05BFA02237B60002398
:100FAC00FB603B1D184602F04FF80346002B01D0A6
:100FBC0000F04EFA00BF5037BD4680BD80B584B0FE
:100FCC0000AF3B1D00221A605A609A60184B194AF8
:100FDC001A60174B00229A60154B01221A73144B9E
:100FEC0000221A75124B4FF46022DA61104B00226A
:100FFC005A600F4B01221A610D4800F07DFC03462C
:10100C00002B01D000F024FA00237B600123BB608D
:10101C000023FB603B1D1946054800F005FF034605
:10102C00002B01D000F014FA00BF1037BD4680BD74
:10103C00780000200024014080B58AB000AF07F191
:10104C00200300221A605A603B1D00221A605A606D
:10105C009A60DA601A615A619A61224B4FF08042B1
:10106C001A60204B00225A601E4B00229A601D4BC6
:10107C004FF6FF72DA601B4B00221A61194B0022EB
:10108C009A61184802F04CF90346002B01D000F08D
:10109C00DFF900233B6200237B6207F12003194632
:1010AC00104802F02BFE0346002B01D000F0D0F9C3
:1010BC0060237B600023BB600023FB6000237B610B
:1010CC003B1D08221946074802F046FB0346002B3D
:1010DC0001D000F0BDF9034800F088FA00BF2837B2
:1010EC00BD4680BDA800002080B58CB000AF2C4B55
:1010FC00DB692B4A43F00203D361294BDB6903F014
:10110C0002033B603B6807F10C03242200211846C4
:10111C0003F06CFD3B1D00221A605A60214B224AE1
:10112C001A60204B07225A601E4B00229A601D4BFE
:10113C004FF6FF72DA601B4B00221A61194B00222A
:10114C009A610323FB6000233B6101237B61002335
:10115C00BB610023FB6100233B6201237B62002304
:10116C00BB620023FB6207F10C0319460D4802F029
:10117C00C3F90346002B01D000F06AF900237B6011
:10118C000023BB603B1D1946064802F0B7FD034621
:10119C00002B01D000F05CF900BF3037BD4680BD9C
:1011AC0000100240F00000200004004080B582B026
:1011BC0000AF184B9B69174A43F480439361154B5E
:1011CC009B6903F480437B607B68134B134A1A6062
:1011DC00114B4FF4E1325A600F4B00229A600E4BC8
:1011EC000022DA600C4B00221A610B4B0C225A6164
:1011FC00094B00229A61084B0022DA61064802F082
:10120C00D5FD0346002B01D000F022F900BF0837B2
:10121C00BD4680BD0010024038010020003801405E
:10122C0080B586B000AF07F1080300221A605A603F
:10123C009A60DA60214B9B69204A43F00403936166
:10124C001E4B9B6903F004037B607B681B4B9B6903
:10125C001A4A43F008039361184B9B6903F0080387
:10126C003B603B6800220321154801F0ADFA0223D4
:10127C00BB60144BFB6001233B6107F1080319466B
:10128C00114801F025F90323BB600123FB60002307
:10129C003B6102237B6107F108031946084801F002
:1012AC0017F900220621072001F029F8072001F088
:1012BC0042F800BF1837BD4680BD00BF0010024089
:1012CC00000C01400000211000080140B0B58AB0AC
:1012DC0000AF0346FB80FB88022B2BD1002201219F
:1012EC00164801F071FA00220221144801F06CFA40
:1012FC00134B1B684FF6FF72DA63124B01221A7004
:10130C00114B07F10C041D460FCD0FC495E80700D7
:10131C0003C422800234130C237007F10C0318460B
:10132C00FEF70EFF03469AB207F10C01642307483F
:10133C0002F08CFD00BF2837BD46B0BD000C01404B
:10134C00A80000208D010020C056000838010020A4
:10135C0080B582B000AF78607B681B68194A9342F5
:10136C002BD1194B1B780A2B03D0174B1B780D2B49
:10137C000CD1164B1B781A46154B00219954154B62
:10138C0001221A70114B00221A7011E00F4B1B78BE
:10139C005A1CD1B20D4A11701A460B4B19780C4BD2
:1013AC0099540A4B1B78092B02D9084B00221A704E
:1013BC0001220549084802F0D4FD00BF0837BD469C
:1013CC0080BD00BF003801408A0100208B01002045
:1013DC00800100208C0100203801002080B586B0EF
:1013EC0000AF78607B681B68164A934225D10023B6
:1013FC007B617B681B681B687B617B681B685B6817
:10140C007B617B6900233B617B681B681B683B61CC
:10141C007B681B685B683B613B690023FB607B68F6
:10142C001B681B68FB607B681B685B68FB60FB6868
:10143C0001220549054802F094FD00BF1837BD464E
:10144C0080BD00BF003801408A0100203801002017
:10145C0080B400AF72B600BF00BFFDE780B485B0AA
:10146C0000AF154B9B69144A43F001039361124B77
:10147C009B6903F00103BB60BB680F4BDB690E4A31
:10148C0043F08053D3610C4BDB6903F080537B60DA
:10149C007B680A4B5B68FB60FB6823F0E063FB60D6
:1014AC00FB6843F00073FB60044AFB68536000BFA9
:1014BC001437BD4680BC704700100240000001404C
:1014CC0080B588B000AF786007F1100300221A6075
:1014DC005A609A60DA607B681B68144A934221D187
:1014EC00134B9B69124A43F400739361104B9B6935
:1014FC0003F40073FB60FB680D4B9B690C4A43F0D3
:10150C00040393610A4B9B6903F00403BB60BB6843
:10151C0001233B6103237B6107F110031946054846
:10152C0000F0D6FF00BF2037BD4680BD002401402F
:10153C00001002400008014080B485B000AF786014
:10154C007B681B68B3F1804F0BD1084BDB69074AF2
:10155C0043F00103D361054BDB6903F00103FB602E
:10156C00FB6800BF1437BD4680BC704700100240BA
:10157C0080B588B000AF786007F1100300221A60C4
:10158C005A609A60DA607B681B68154A934223D1D3
:10159C00144BDB69134A43F00203D361114BDB6933
:1015AC0003F00203FB60FB680E4B9B690D4A43F092
:1015BC00040393610B4B9B6903F00403BB60BB6892
:1015CC00C0233B6100237B610023BB6107F1100347
:1015DC001946054800F07CFF00BF2037BD4680BD92
:1015EC0000040040001002400008014080B588B0A3
:1015FC0000AF786007F1100300221A605A609A60FD
:10160C00DA607B681B68B3F1804F17D10D4B9B6977
:10161C000C4A43F0040393610A4B9B6903F00403E7
:10162C00FB60FB6804233B6102237B610223FB61AB
:10163C0007F110031946044800F04AFF00BF203799
:10164C00BD4680BD001002400008014080B588B046
:10165C0000AF786007F1100300221A605A609A609C
:10166C00DA607B681B68204A934239D11F4B9B6917
:10167C001E4A43F4804393611C4B9B6903F48043E3
:10168C00FB60FB68194B9B69184A43F00403936198
:10169C00164B9B6903F00403BB60BB684FF40073EB
:1016AC003B6102237B610323FB6107F110031946A5
:1016BC000F4800F00DFF4FF480633B6100237B610A
:1016CC000023BB6107F110031946094800F000FF25
:1016DC0000220621252000F012FE252000F02BFE12
:1016EC0000BF2037BD4680BD0038014000100240CD
:1016FC000008014080B400AF00BFFDE780B400AF2C
:10170C0000BFFDE780B400AF00BFFDE780B400AFC1
:10171C0000BFFDE780B400AF00BFFDE780B400AFB1
:10172C0000BFBD4680BC704780B400AF00BFBD4653
:10173C0080BC704780B400AF00BFBD4680BC704712
:10174C0080B500AF00F0BCF800BF80BD80B500AF25
:10175C00022001F051F800BF80BD000080B500AF41
:10176C00024802F023FC00BF80BD00BF38010020FE
:10177C0080B586B000AF7860144A154BD31A7B61E4
:10178C007B693B61134B1B68002B02D1114B124A36
:10179C001A60104B1A687B6813443A699A4207D254
:1017AC0003F03EFA03460C221A604FF0FF3309E0B7
:1017BC00084B1B68FB60074B1A687B681344054A8F
:1017CC001360FB6818461837BD4680BD0028002002
:1017DC0000040000B00100200003002080B400AF22
:1017EC0000BFBD4680BC7047FFF7F8FF0B480C49A3
:1017FC000C4A002302E0D458C4500433C4188C4261
:10180C00F9D3094A094C002301E013600432A242C7
:10181C00FBD303F00BFAFFF72BF870470000002006
:10182C005C000020605800085C00002000030020D1
:10183C00FEE7000080B500AF084B1B68074A43F079
:10184C0010031360032000F04FFD0F2000F008F888
:10185C00FFF704FE0023184680BD00BF00200240A5
:10186C0080B582B000AF7860124B1A68124B1B78AF
:10187C0019464FF47A73B3FBF1F3B2FBF3F318464A
:10188C0000F067FD0346002B01D001230EE07B68BE
:10189C000F2B0AD8002279684FF0FF3000F02FFD93
:1018AC00064A7B681360002300E0012318460837C2
:1018BC00BD4680BD00000020080000200400002070
:1018CC0080B400AF054B1B781A46054B1B681344BC
:1018DC00034A136000BFBD4680BC7047080000205F
:1018EC00B401002080B400AF024B1B681846BD4603
:1018FC0080BC7047B401002080B586B000AF786022
:10190C000023FB7500233B610023BB600023FB60BD
:10191C007B68002B01D10123BEE07B689B68002B08
:10192C007B689B6A002B09D17B680022DA627B689A
:10193C00002283F824207868FFF7C2FD786800F055
:10194C00C5FB0346FB757B689B6A03F01003002BF9
:10195C0040F09980FB7D002B40F095807B689B6A62
:10196C0023F4885323F0020343F002027B689A624B
:10197C007B685A687B68DB691A437B681B7B5B005E
:10198C001343BA681343BB607B689B68B3F5807FD5
:10199C0003D07B689B68012B02D14FF4807300E06D
:1019AC0000233A6913433B617B681B7D012B19D1E2
:1019BC007B681B7B002B09D17B689B69013B5A031D
:1019CC003B69134343F400633B610BE07B689B6A08
:1019DC0043F020027B689A627B68DB6A43F0010269
:1019EC007B68DA627B681B685B6823F469417B68FF
:1019FC001B683A690A435A607B681B689A68284BD3
:101A0C0013407A681268B9680B4393607B689B68D3
:101A1C00B3F5807F03D07B689B68012B04D17B6876
:101A2C001B69013B1B05FB607B681B68DB6A23F4AD
:101A3C0070017B681B68FA680A43DA627B681B6872
:101A4C009A68184B1340BA689A420BD17B680022F3
:101A5C00DA627B689B6A23F0030343F001027B6824
:101A6C009A6218E07B689B6A23F0120343F0100221
:101A7C007B689A627B68DB6A43F001027B68DA62FE
:101A8C000123FB7507E07B689B6A43F010027B68BF
:101A9C009A620123FB75FB7D18461837BD4680BD45
:101AAC00FDF7E1FFFE0E1FFF80B584B000AF78603C
:101ABC000023FB737B6893F82430012B01D10223A4
:101ACC0098E07B68012283F82420786800F0A4FA5F
:101ADC000346FB73FB7B002B40F087807B689B6A83
:101AEC0023F4407323F0010343F480727B689A6201
:101AFC007B681B68414A934205D1414B5B6803F4F8
:101B0C007023002B15D17B689B6A23F480127B68B1
:101B1C009A627B681B685B6803F48063002B26D099
:101B2C007B689B6A23F4405343F480527B689A622F
:101B3C001DE07B689B6A43F480127B689A627B6829
:101B4C001B682F4A934204D07B681B682B4A934234
:101B5C000DD12B4B5B6803F48063002B07D07B68A3
:101B6C009B6A23F4405343F480527B689A627B68EF
:101B7C009B6A03F48053002B06D07B68DB6A23F04E
:101B8C0006027B68DA6202E07B680022DA627B681C
:101B9C00002283F824207B681B686FF002021A6015
:101BAC007B681B689B6803F46023B3F5602F13D12B
:101BBC007B681B68114A934205D1114B5B6803F497
:101BCC007023002B08D17B681B689A687B681B68A4
:101BDC0042F4A0029A600CE07B681B689A687B68F0
:101BEC001B6842F480129A6003E07B68002283F841
:101BFC002420FB7B18461037BD4680BD00280140D1
:101C0C000024014090B587B000AF786039600023A4
:101C1C007B610023FB6000233B61FFF763FE78616F
:101C2C007B681B689B6803F48073002B0BD07B686C
:101C3C009B6A43F020027B689A627B68002283F8DF
:101C4C0024200123D3E07B681B685B6803F480735A
:101C5C00002B31D17B681B68DB6A03F47003002B0B
:101C6C002AD121E03B68B3F1FF3F1DD03B68002B2C
:101C7C0007D0FFF737FE02467B69D31A3A689A42BF
:101C8C0012D27B681B681B6803F00203002B0BD17C
:101C9C007B689B6A43F004027B689A627B68002233
:101CAC0083F824200323A2E07B681B681B6803F0E5
:101CBC000203002BD6D070E04F4B1C68022001F0C1
:101CCC0079FA0346B4FBF3F27B681B6819694B4B3A
:101CDC000B40002B18D17B681B68D968484B0B4014
:101CEC00002B11D17B681B681969464B0B40002BEC
:101CFC0008D17B681B68D968434B0B40002B01D182
:101D0C00142320E029231EE07B681B6819693D4BD6
:101D1C000B40002B06D17B681B68D9683A4B0B40F3
:101D2C00002B0DD07B681B681969384B0B40002BBE
:101D3C0008D17B681B68D968344B0B40002B01D150
:101D4C00542300E0FC2302FB03F33B6121E03B68DE
:101D5C00B3F1FF3F1AD03B68002B07D0FFF7C2FD51
:101D6C0002467B69D31A3A689A420FD2FB683A69E9
:101D7C009A420BD97B689B6A43F004027B689A6297
:101D8C007B68002283F82420032330E0FB680133B6
:101D9C00FB60FB683A699A42D9D87B681B686FF084
:101DAC0012021A607B689B6A43F400727B689A6229
:101DBC007B681B689B6803F46023B3F5602F15D117
:101DCC007B681B7B002B11D17B689B6A23F4807290
:101DDC007B689A627B689B6A03F48053002B05D165
:101DEC007B689B6A43F001027B689A620023184669
:101DFC001C37BD4690BD00BF000000202449922432
:101E0C0024499200922449129224490049922400B8
:101E1C0080B483B000AF78607B681B68DB6C1846BD
:101E2C000C37BD4680BC704780B485B000AF78607D
:101E3C0039600023FB730023BB607B6893F824306C
:101E4C00012B01D10223DCE07B68012283F82420E2
:101E5C003B685B68062B1CD87B681B68596B3B681E
:101E6C005A6813469B001344053B1F2202FA03F3E6
:101E7C00DB4319403B6818683B685A6813469B0063
:101E8C001344053B00FA03F27B681B680A435A6350
:101E9C003CE03B685B680C2B1CD87B681B68196B9F
:101EAC003B685A6813469B001344233B1F2202FADB
:101EBC0003F3DB4319403B6818683B685A681346C8
:101ECC009B001344233B00FA03F27B681B680A4314
:101EDC001A631BE07B681B68D96A3B685A68134617
:101EEC009B001344413B1F2202FA03F3DB431940CE
:101EFC003B6818683B685A6813469B001344413B87
:101F0C0000FA03F27B681B680A43DA623B681B68C1
:101F1C00092B1CD97B681B68D9683B681A68134667
:101F2C005B0013441E3B072202FA03F3DB43194008
:101F3C003B6898683B681A6813465B0013441E3B69
:101F4C0000FA03F27B681B680A43DA6019E07B68CD
:101F5C001B6819693B681A6813465B001344072217
:101F6C0002FA03F3DB4319403B6898683B681A6834
:101F7C0013465B00134400FA03F27B681B680A43A8
:101F8C001A613B681B68102B03D03B681B68112B34
:101F9C0032D17B681B681D4A934225D17B681B6834
:101FAC009B6803F40003002B26D17B681B689A689E
:101FBC007B681B6842F400029A603B681B68102B1C
:101FCC001AD1134B1B68134AA2FB03239A0C13461A
:101FDC009B0013445B00BB6002E0BB68013BBB6031
:101FEC00BB68002BF9D107E07B689B6A43F02002A9
:101FFC007B689A620123FB737B68002283F82420A0
:10200C00FB7B18461437BD4680BC7047002401404A
:10201C000000002083DE1B4380B584B000AF7860E5
:10202C000023FB600023BB607B681B689B6803F08C
:10203C000103012B40D07B681B689A687B681B6886
:10204C0042F001029A601F4B1B681F4AA2FB03233C
:10205C009B0CBB6002E0BB68013BBB60BB68002B08
:10206C00F9D1FFF73FFCF8601FE0FFF73BFC02469D
:10207C00FB68D31A022B18D97B681B689B6803F08A
:10208C000103012B11D07B689B6A43F010027B6823
:10209C009A627B68DB6A43F001027B68DA627B68D8
:1020AC00002283F82420012307E07B681B689B68CF
:1020BC0003F00103012BD8D1002318461037BD467D
:1020CC0080BD00BF0000002083DE1B4380B584B0C0
:1020DC0000AF78600023FB607B681B689B6803F093
:1020EC000103012B2ED17B681B689A687B681B68E7
:1020FC0022F001029A60FFF7F5FBF8601BE0FFF796
:10210C00F1FB0246FB68D31A022B14D97B681B68BF
:10211C009B6803F00103012B0DD17B689B6A43F094
:10212C0010027B689A627B68DB6A43F001027B6871
:10213C00DA62012307E07B681B689B6803F00103EC
:10214C00012BDCD0002318461037BD4680BD0000A3
:10215C0080B485B000AF78607B6803F00703FB6048
:10216C000C4BDB68BB60BA684FF6FF031340BB60D7
:10217C00FB681A02BB68134343F0BF6343F400339C
:10218C00BB60044ABB68D36000BF1437BD4680BC3B
:10219C00704700BF00ED00E080B400AF044BDB687B
:1021AC001B0A03F007031846BD4680BC704700BFEE
:1021BC0000ED00E080B483B000AF0346FB7197F9EB
:1021CC000730002B0BDBFB7903F01F02064997F954
:1021DC0007305B09012000FA02F241F8232000BF0E
:1021EC000C37BD4680BC704700E100E080B483B082
:1021FC0000AF03463960FB7197F90730002B0ADBFF
:10220C003B68DAB20C4997F907301201D2B20B4491
:10221C0083F800230AE03B68DAB20849FB7903F043
:10222C000F03043B1201D2B20B441A7600BF0C37D9
:10223C00BD4680BC704700BF00E100E000ED00E04F
:10224C0080B489B000AFF860B9607A60FB6803F0C5
:10225C000703FB61FB69C3F10703042B28BF0423AD
:10226C00BB61FB690433062B02D9FB69033B00E01D
:10227C0000237B614FF0FF32BB6902FA03F3DA43B0
:10228C00BB681A407B699A404FF0FF317B6901FAB9
:10229C0003F3D9437B680B40134318462437BD46E0
:1022AC0080BC704780B582B000AF78607B68013B22
:1022BC00B3F1807F01D301230FE00A4A7B68013B15
:1022CC0053600F214FF0FF30FFF790FF054B0022BA
:1022DC009A60044B07221A60002318460837BD4643
:1022EC0080BD00BF10E000E080B582B000AF786028
:1022FC007868FFF72DFF00BF0837BD4680BD80B55D
:10230C0086B000AF0346B9607A60FB7300237B6133
:10231C00FFF742FF78617A68B9687869FFF790FF38
:10232C00024697F90F3011461846FFF75FFF00BFC2
:10233C001837BD4680BD80B582B000AF0346FB7137
:10234C0097F907301846FFF735FF00BF0837BD4631
:10235C0080BD80B582B000AF78607868FFF7A2FFCF
:10236C00034618460837BD4680BD80B485B000AF23
:10237C0078600023FB737B6893F82130DBB2022B6F
:10238C0008D07B6804229A637B68002283F82020A3
:10239C00012320E07B681B681A687B681B6822F0AD
:1023AC000E021A607B681B681A687B681B6822F037
:1023BC0001021A607B681A6C7B68DB6B012101FAE5
:1023CC0002F25A607B68012283F821207B6800228C
:1023DC0083F82020FB7B18461437BD4680BC704721
:1023EC0080B584B000AF78600023FB737B6893F8F2
:1023FC002130DBB2022B05D07B6804229A630123C7
:10240C00FB7351E07B681B681A687B681B6822F0C1
:10241C000E021A607B681B681A687B681B6822F0C6
:10242C0001021A607B681B68224A934229D07B68A0
:10243C001B68214A934222D07B681B681F4A934237
:10244C001AD07B681B681E4A934212D07B681B68AB
:10245C001C4A93420AD07B681B681B4A934202D1E8
:10246C004FF480130EE04FF080730BE04FF4803389
:10247C0008E04FF4805305E04FF4807302E0102322
:10248C0000E00123114A53607B68012283F821206C
:10249C007B68002283F820207B685B6B002B03D0C9
:1024AC007B685B6B78689847FB7B18461037BD469A
:1024BC0080BD00BF080002401C00024030000240FA
:1024CC0044000240580002406C00024000000240F0
:1024DC0080B48BB000AF7860396000237B6200233E
:1024EC003B6261E101227B6A02FA03F3FB613B6808
:1024FC001B68FA691340BB61BA69FB699A4240F0E8
:10250C0050813B685B68974A93425ED0954A9342F0
:10251C0075D8954A934258D0934A93426FD8934AB0
:10252C00934252D0914A934269D8914A93424CD0EB
:10253C008F4A934263D88F4A934246D08D4A934236
:10254C005DD8122B2AD8122B59D801A252F823F09D
:10255C00D7250008B1250008C3250008052600086A
:10256C000B2600080B2600080B2600080B2600087B
:10257C000B2600080B2600080B2600080B2600086B
:10258C000B2600080B2600080B2600080B2600085B
:10259C000B260008B9250008CD250008764A934281
:1025AC0013D02CE03B68DB683B6229E03B68DB68BE
:1025BC0004333B6224E03B68DB6808333B621FE07A
:1025CC003B68DB680C333B621AE03B689B68002B72
:1025DC0002D104233B6213E03B689B68012B05D1BD
:1025EC0008233B627B68FA691A6109E008233B62A5
:1025FC007B68FA695A6103E000233B6200E000BF8C
:10260C00BB69FF2B01D87B6801E07B6804337B61DD
:10261C00BB69FF2B02D87B6A9B0002E07B6A083BFC
:10262C009B003B617B691A680F213B6901FA03F33C
:10263C00DB431A40396A3B6901FA03F31A437B699D
:10264C001A603B685B6803F08053002B00F0A98094
:10265C004A4B9B69494A43F001039361474B9B6981
:10266C0003F00103BB60BB68454A7B6A9B080233DD
:10267C0052F82330FB607B6A03F003039B000F22AC
:10268C0002FA03F3DB43FA681340FB607B683D4AB4
:10269C0093420DD07B683C4A934207D07B683B4AFF
:1026AC00934201D1022304E0032302E0012300E062
:1026BC0000237A6A02F0030292009340FA681343F3
:1026CC00FB602F497B6A9B080233FA6841F8232090
:1026DC003B685B6803F48013002B06D02C4B9A6884
:1026EC002B49BB6913438B6006E0294B9A68BB6985
:1026FC00DB43274913408B603B685B6803F4001392
:10270C00002B06D0224BDA682149BB691343CB60FE
:10271C0006E01F4BDA68BB69DB431D491340CB60F5
:10272C003B685B6803F40033002B06D0184B5A68E7
:10273C001749BB6913434B6006E0154B5A68BB69DC
:10274C00DB43134913404B603B685B6803F48033F5
:10275C00002B1FD00E4B1A680D49BB6913430B603D
:10276C001FE000BF000032100000311000002210EA
:10277C000000211000001210000011100010024087
:10278C000000014000080140000C01400010014015
:10279C00000401400B4B1A68BB69DB430949134029
:1027AC000B607B6A01337B623B681A687B6A22FA96
:1027BC0003F3002B7FF496AE00BF00BF2C37BD4651
:1027CC0080BC70470004014080B483B000AF7860D7
:1027DC000B467B8013467B707B78002B03D07A886A
:1027EC007B681A6103E07B881A047B681A6100BF5E
:1027FC000C37BD4680BC704780B582B000AF034635
:10280C00FB80084B5A69FB881340002B06D0054A05
:10281C00FB885361FB881846FEF758FD00BF08374C
:10282C00BD4680BD0004014080B586B000AF786025
:10283C007B68002B01D1012372E27B681B6803F0DB
:10284C000103002B00F08780924B5B6803F00C03B4
:10285C00042B0CD08F4B5B6803F00C03082B12D1AC
:10286C008C4B5B6803F48033B3F5803F0BD1894B01
:10287C001B6803F40033002B6CD07B685B68002B67
:10288C0068D101234CE27B685B68B3F5803F06D1CD
:10289C00804B1B687F4A43F4803313602EE07B68C7
:1028AC005B68002B0CD17B4B1B687A4A23F480337A
:1028BC001360784B1B68774A23F4802313601DE068
:1028CC007B685B68B3F5A02F0CD1724B1B68714A07
:1028DC0043F4802313606F4B1B686E4A43F48033C0
:1028EC0013600BE06B4B1B686A4A23F48033136054
:1028FC00684B1B68674A23F4802313607B685B6812
:10290C00002B13D0FEF7EEFF386108E0FEF7EAFF6C
:10291C0002463B69D31A642B01D9032300E25D4BB9
:10292C001B6803F40033002BF0D014E0FEF7DAFF41
:10293C00386108E0FEF7D6FF02463B69D31A642BD8
:10294C0001D90323ECE1534B1B6803F40033002B38
:10295C00F0D100E000BF7B681B6803F00203002B82
:10296C0063D04C4B5B6803F00C03002B0BD0494B32
:10297C005B6803F00C03082B1CD1464B5B6803F41B
:10298C008033002B16D1434B1B6803F00203002B42
:10299C0005D07B681B69012B01D00123C0E13D4BA5
:1029AC001B6823F0F8027B685B69DB003949134331
:1029BC000B603AE07B681B69002B20D0364B012260
:1029CC001A60FEF78FFF386108E0FEF78BFF0246B6
:1029DC003B69D31A022B01D90323A1E12D4B1B68B0
:1029EC0003F00203002BF0D02A4B1B6823F0F802F3
:1029FC007B685B69DB00274913430B6015E0264BB2
:102A0C0000221A60FEF76EFF386108E0FEF76AFFDD
:102A1C0002463B69D31A022B01D9032380E11D4BDB
:102A2C001B6803F00203002BF0D17B681B6803F0DA
:102A3C000803002B3AD07B689B69002B19D0174BED
:102A4C0001221A60FEF74EFF386108E0FEF74AFFDC
:102A5C0002463B69D31A022B01D9032360E10D4BCB
:102A6C005B6A03F00203002BF0D0012000F0CEFAD9
:102A7C001CE00A4B00221A60FEF734FF38610FE0AD
:102A8C00FEF730FF02463B69D31A022B08D9032309
:102A9C0046E100BF00100240000042428004424266
:102AAC00924B5B6A03F00203002BE9D17B681B6835
:102ABC0003F00403002B00F0A6800023FB758B4B66
:102ACC00DB6903F08053002B0DD1884BDB69874AFF
:102ADC0043F08053D361854BDB6903F08053BB60BB
:102AEC00BB680123FB75824B1B6803F48073002BBE
:102AFC0018D17F4B1B687E4A43F480731360FEF73A
:102B0C00F1FE386108E0FEF7EDFE02463B69D31A90
:102B1C00642B01D9032303E1754B1B6803F4807309
:102B2C00002BF0D07B68DB68012B06D16F4B1B6A46
:102B3C006E4A43F0010313622DE07B68DB68002BC7
:102B4C000CD16A4B1B6A694A23F001031362674B71
:102B5C001B6A664A23F0040313621CE07B68DB6883
:102B6C00052B0CD1614B1B6A604A43F004031362C2
:102B7C005E4B1B6A5D4A43F0010313620BE05B4B37
:102B8C001B6A5A4A23F001031362584B1B6A574ABB
:102B9C0023F0040313627B68DB68002B15D0FEF76F
:102BAC00A1FE38610AE0FEF79DFE02463B69D31A8E
:102BBC0041F28832934201D90323B1E04B4B1B6A9B
:102BCC0003F00203002BEED014E0FEF78BFE38610D
:102BDC000AE0FEF787FE02463B69D31A41F28832BF
:102BEC00934201D903239BE0404B1B6A03F0020381
:102BFC00002BEED1FB7D012B05D13C4BDB693B4A15
:102C0C0023F08053D3617B68DB69002B00F0878055
:102C1C00364B5B6803F00C03082B61D07B68DB69D7
:102C2C00022B46D1334B00221A60FEF75BFE386153
:102C3C0008E0FEF757FE02463B69D31A022B01D976
:102C4C0003236DE0294B1B6803F00073002BF0D1BC
:102C5C007B681B6AB3F5803F08D1244B5B6823F477
:102C6C0000327B689B68214913434B601F4B5B68A8
:102C7C0023F474127B68196A7B685B6A0B431B49EB
:102C8C0013434B601B4B01221A60FEF72BFE38617D
:102C9C0008E0FEF727FE02463B69D31A022B01D946
:102CAC0003233DE0114B1B6803F00073002BF0D0A5
:102CBC0035E0104B00221A60FEF714FE386108E074
:102CCC00FEF710FE02463B69D31A022B01D90323EF
:102CDC0026E0064B1B6803F00073002BF0D11EE0BE
:102CEC007B68DB69012B07D1012319E0001002403E
:102CFC0000700040600042420B4B5B68FB60FB685D
:102D0C0003F480327B681B6A9A4206D1FB6803F499
:102D1C0070127B685B6A9A4201D0012300E00023A9
:102D2C0018461837BD4680BD0010024080B584B0EF
:102D3C0000AF786039607B68002B01D10123D0E0B3
:102D4C006A4B1B6803F007033A689A4210D9674B29
:102D5C001B6823F0070265493B6813430B60634B08
:102D6C001B6803F007033A689A4201D00123B8E0CC
:102D7C007B681B6803F00203002B20D07B681B6868
:102D8C0003F00403002B05D0594B5B68584A43F4FD
:102D9C00E06353607B681B6803F00803002B05D0CD
:102DAC00534B5B68524A43F460535360504B5B681F
:102DBC0023F0F0027B689B684D4913434B607B68A2
:102DCC001B6803F00103002B40D07B685B68012B70
:102DDC0007D1474B1B6803F40033002B15D101239B
:102DEC007FE07B685B68022B07D1414B1B6803F0CB
:102DFC000073002B09D1012373E03D4B1B6803F0DA
:102E0C000203002B01D101236BE0394B5B6823F0EB
:102E1C0003027B685B68364913434B60FEF762FD27
:102E2C00F8600AE0FEF75EFD0246FB68D31A41F239
:102E3C008832934201D9032353E02D4B5B6803F096
:102E4C000C027B685B689B009A42EBD1274B1B689A
:102E5C0003F007033A689A4210D2244B1B6823F004
:102E6C00070222493B6813430B60204B1B6803F09D
:102E7C0007033A689A4201D0012332E07B681B6851
:102E8C0003F00403002B08D0194B5B6823F4E062B9
:102E9C007B68DB68164913434B607B681B6803F047
:102EAC000803002B09D0124B5B6823F460527B683B
:102EBC001B69DB000E4913434B6000F021F80246FE
:102ECC000B4B5B681B0903F00F030A49CB5C22FA1E
:102EDC0003F3094A1360094B1B681846FEF7C0FC44
:102EEC00002318461037BD4680BD00BF00200240AD
:102EFC0000100240DC5600080000002004000020F6
:102F0C0080B487B000AF0023FB600023BB600023BC
:102F1C007B6100237B6000233B611E4B5B68FB6085
:102F2C00FB6803F00C03042B02D0082B03D027E022
:102F3C00194B3B6127E0FB689B0C03F00F03174A0E
:102F4C00D35C7B60FB6803F48033002B10D0114BF7
:102F5C005B685B0C03F00103114AD35CBB607B68BC
:102F6C000D4A03FB02F2BB68B2FBF3F37B6104E096
:102F7C007B680C4A02FB03F37B617B693B6102E0DB
:102F8C00054B3B6100BF3B6918461C37BD4680BCF6
:102F9C00704700BF0010024000127A00F45600087F
:102FAC000457000800093D0080B400AF024B1B68B9
:102FBC001846BD4680BC70470000002080B500AFAD
:102FCC00FFF7F2FF0246054B5B681B0A03F0070391
:102FDC000349CB5C22FA03F3184680BD0010024073
:102FEC00EC56000880B500AFFFF7DEFF0246054B3C
:102FFC005B68DB0A03F007030349CB5C22FA03F39B
:10300C00184680BD00100240EC56000880B485B014
:10301C0000AF78600A4B1B680A4AA2FB03235B0AC9
:10302C007A6802FB03F3FB6000BFFB685A1EFA6070
:10303C00002BF9D100BF00BF1437BD4680BC7047D0
:10304C0000000020D34D621080B586B000AF7860D0
:10305C0000233B610023FB607B681B6803F00103CA
:10306C00002B7DD00023FB754F4BDB6903F08053A5
:10307C00002B0DD14C4BDB694B4A43F08053D36191
:10308C00494BDB6903F08053BB60BB680123FB75C4
:10309C00464B1B6803F48073002B18D1434B1B6801
:1030AC00424A43F480731360FEF71CFC386108E05D
:1030BC00FEF718FC02463B69D31A642B01D9032393
:1030CC006DE03A4B1B6803F48073002BF0D0364B49
:1030DC001B6A03F44073FB60FB68002B2ED07B68EB
:1030EC005B6803F44073FA689A4227D02E4B1B6A34
:1030FC0023F44073FB602E4B01221A602C4B0022F0
:10310C001A60294AFB681362FB6803F00103002B69
:10311C0014D0FEF7E7FB38610AE0FEF7E3FB02464A
:10312C003B69D31A41F28832934201D9032336E02A
:10313C001D4B1B6A03F00203002BEED01A4B1B6ACB
:10314C0023F440727B685B68174913430B62FB7D69
:10315C00012B05D1144BDB69134A23F08053D36147
:10316C007B681B6803F00203002B08D00E4B5B68D6
:10317C0023F440427B689B680B4913434B607B688C
:10318C001B6803F01003002B08D0074B5B6823F47B
:10319C0080027B68DB68044913434B6000231846AC
:1031AC001837BD4680BD00BF0010024000700040C3
:1031BC004004424280B588B000AF786000237B6148
:1031CC000023FB6100233B610023FB600023BB61F8
:1031DC007B68102B0AD07B68102B00F28A807B68EE
:1031EC00012B45D07B68022B75D082E0464B5B6887
:1031FC00FB60454B1B6803F08073002B7BD0FB6896
:10320C009B0C03F00F03414AD35C3B61FB6803F456
:10321C008033002B15D03C4B5B685B0C03F0010337
:10322C003B4AD35C7B61FB6803F48033002B0DD0ED
:10323C00384A7B69B2FBF3F23B6902FB03F3FB6197
:10324C0004E03B69344A02FB03F3FB612E4B5B68E1
:10325C0003F48003B3F5800F02D1FB69BB614AE034
:10326C00FB695B002D4AA2FB03235B08BB6142E0B8
:10327C00254B1B6AFB60FB6803F44073B3F5807F3E
:10328C0008D1FB6803F00203002B03D04FF400437A
:10329C00BB611FE0FB6803F44073B3F5007F09D1F9
:1032AC00194B5B6A03F00203002B03D049F6404331
:1032BC00BB610FE0FB6803F44073B3F5407F1CD196
:1032CC00114B1B6803F40033002B16D04FF2244330
:1032DC00BB6112E011E0FFF785FE02460A4B5B680A
:1032EC009B0B03F0030301335B00B2FBF3F3BB61F5
:1032FC0004E000BF02E000BF00E000BFBB6918465D
:10330C002037BD4680BD00BF0010024008570008A2
:10331C001857000800127A0000093D00ABAAAAAAAF
:10332C0080B582B000AF78607B68002B01D101239F
:10333C0041E07B6893F83D30DBB2002B06D17B6813
:10334C00002283F83C207868FEF7F6F87B680222AE
:10335C0083F83D207B681A687B6804331946104655
:10336C0000F0BCFA7B68012283F846207B680122BE
:10337C0083F83E207B68012283F83F207B68012282
:10338C0083F840207B68012283F841207B6801226E
:10339C0083F842207B68012283F843207B6801225A
:1033AC0083F844207B68012283F845207B68012246
:1033BC0083F83D20002318460837BD4680BD000029
:1033CC0080B584B000AF786039603B68002B09D1C0
:1033DC007B6893F83E30DBB2012B14BF0123002332
:1033EC00DBB222E03B68042B09D17B6893F83F30B9
:1033FC00DBB2012B14BF01230023DBB215E03B68C9
:10340C00082B09D17B6893F84030DBB2012B14BF39
:10341C0001230023DBB208E07B6893F84130DBB278
:10342C00012B14BF01230023DBB2002B01D001239D
:10343C0059E03B68002B04D17B68022283F83E20C4
:10344C0013E03B68042B04D17B68022283F83F20F5
:10345C000BE03B68082B04D17B68022283F84020E8
:10346C0003E07B68022283F841207B681B68012201
:10347C003968184600F01EFC7B681B681C4A934296
:10348C0007D17B681B685A6C7B681B6842F400424E
:10349C005A647B681B68164A934209D07B681B6888
:1034AC00B3F1804F04D07B681B68124A934211D150
:1034BC007B681B689B6803F00703FB60FB68062BAB
:1034CC0010D07B681B681A687B681B6842F001028D
:1034DC001A6007E07B681B681A687B681B6842F0FF
:1034EC0001021A60002318461037BD4680BD00BF8C
:1034FC00002C01400004004080B586B000AF78601D
:10350C0039607B68002B01D1012393E07B6893F831
:10351C003D30DBB2002B06D17B68002283F83C20C7
:10352C007868FEF725F87B68022283F83D207B68DB
:10353C001B689B687A68126823F4804323F00703A6
:10354C0093607B681A687B6804331946104600F058
:10355C00C5F97B681B689B687B617B681B689B69F2
:10356C003B617B681B681B6AFB603B681B687A6964
:10357C0013437B613B6923F4407323F003033B61EA
:10358C003B689A683B689B691B0213433A69134377
:10359C003B613B6923F4406323F00C033B613B69C3
:1035AC0023F4704323F0F0033B613B68DA683B681B
:1035BC00DB691B0213433A6913433B613B681B698C
:1035CC001A013B681B6A1B0313433A6913433B61A3
:1035DC00FB6823F02203FB603B685A683B685B691D
:1035EC001B011343FA681343FB607B681B687A6901
:1035FC009A607B681B683A699A617B681B68FA68F9
:10360C001A627B68012283F846207B68012283F8CA
:10361C003E207B68012283F83F207B68012283F8DF
:10362C0042207B68012283F843207B68012283F8C7
:10363C003D20002318461837BD4680BD80B584B0A8
:10364C0000AF786039607B6893F83E30FB737B6821
:10365C0093F83F30BB737B6893F842307B737B6885
:10366C0093F843303B733B68002B10D1FB7B012B51
:10367C0002D17B7B012B01D0012369E07B68022204
:10368C0083F83E207B68022283F8422031E03B68BD
:10369C00042B10D1BB7B012B02D13B7B012B01D026
:1036AC00012355E07B68022283F83F207B680222CD
:1036BC0083F843201DE0FB7B012B08D1BB7B012B46
:1036CC0005D17B7B012B02D13B7B012B01D001234C
:1036DC003EE07B68022283F83E207B68022283F85E
:1036EC003F207B68022283F842207B68022283F809
:1036FC0043203B68002B03D03B68042B08D00FE021
:10370C007B681B6801220021184600F0D3FA16E0F2
:10371C007B681B6801220421184600F0CBFA0EE0EE
:10372C007B681B6801220021184600F0C3FA7B68F5
:10373C001B6801220421184600F0BCFA00BF7B680C
:10374C001B681A687B681B6842F001021A60002330
:10375C0018461037BD4680BD80B586B000AFF86006
:10376C00B9607A600023FB75FB6893F83C30012B41
:10377C0001D10223AEE0FB68012283F83C207B6878
:10378C000C2B00F29F8001A252F823F0CD370008D9
:10379C00D1380008D1380008D13800080D3800089D
:1037AC00D1380008D1380008D13800084F3800084B
:1037BC00D1380008D1380008D13800088F380008FB
:1037CC00FB681B68B968184600F0ECF8FB681B68CE
:1037DC009A69FB681B6842F008029A61FB681B68D7
:1037EC009A69FB681B6822F004029A61FB681B68EB
:1037FC009969BB681A69FB681B680A439A6164E0A3
:10380C00FB681B68B968184600F032F9FB681B6846
:10381C009A69FB681B6842F400629A61FB681B683A
:10382C009A69FB681B6822F480629A61FB681B68CA
:10383C009969BB681B691A02FB681B680A439A6189
:10384C0043E0FB681B68B968184600F07BF9FB681D
:10385C001B68DA69FB681B6842F00802DA61FB68D6
:10386C001B68DA69FB681B6822F00402DA61FB68EA
:10387C001B68D969BB681A69FB681B680A43DA6163
:10388C0023E0FB681B68B968184600F0C5F9FB68B3
:10389C001B68DA69FB681B6842F40062DA61FB683A
:1038AC001B68DA69FB681B6822F48062DA61FB68CA
:1038BC001B68D969BB681B691A02FB681B680A4341
:1038CC00DA6102E00123FB7500BFFB68002283F87C
:1038DC003C20FB7D18461837BD4680BD80B485B0B2
:1038EC0000AF786039607B681B68FB607B682B4A93
:1038FC00934207D07B68B3F1804F03D07B68284A92
:10390C00934208D1FB6823F07003FB603B685B6853
:10391C00FA681343FB607B68204A934207D07B68AC
:10392C00B3F1804F03D07B681D4A934208D1FB68EA
:10393C0023F44073FB603B68DB68FA681343FB605D
:10394C00FB6823F080023B685B691343FB607B6878
:10395C00FA681A603B689A687B68DA623B681A6896
:10396C007B689A627B680D4A934203D13B681A6963
:10397C007B681A637B6801225A617B681B6903F0C0
:10398C000103002B05D07B681B6923F001027B68C7
:10399C001A6100BF1437BD4680BC7047002C014033
:1039AC000004004080B487B000AF786039607B6859
:1039BC001B6A7B617B681B6A23F001027B681A62BD
:1039CC007B685B683B617B689B69FB60FB6823F0F1
:1039DC007003FB60FB6823F00303FB603B681B6810
:1039EC00FA681343FB607B6923F002037B613B683D
:1039FC009B687A6913437B617B681C4A93420CD1A8
:103A0C007B6923F008037B613B68DB687A691343AD
:103A1C007B617B6923F004037B617B68134A9342CF
:103A2C0011D13B6923F480733B613B6923F4007330
:103A3C003B613B685B693A6913433B613B689B693B
:103A4C003A6913433B617B683A695A607B68FA6850
:103A5C009A613B685A687B685A637B687A691A6218
:103A6C0000BF1C37BD4680BC704700BF002C014016
:103A7C0080B487B000AF786039607B681B6A7B616B
:103A8C007B681B6A23F010027B681A627B685B6898
:103A9C003B617B689B69FB60FB6823F4E043FB6044
:103AAC00FB6823F44073FB603B681B681B02FA68DD
:103ABC001343FB607B6923F020037B613B689B68AD
:103ACC001B017A6913437B617B681D4A93420DD1BC
:103ADC007B6923F080037B613B68DB681B017A699F
:103AEC0013437B617B6923F040037B617B68144A41
:103AFC00934213D13B6923F480633B613B6923F40C
:103B0C0000633B613B685B699B003A6913433B6113
:103B1C003B689B699B003A6913433B617B683A693C
:103B2C005A607B68FA689A613B685A687B689A634A
:103B3C007B687A691A6200BF1C37BD4680BC70472F
:103B4C00002C014080B487B000AF786039607B688E
:103B5C001B6A7B617B681B6A23F480727B681A6228
:103B6C007B685B683B617B68DB69FB60FB6823F00F
:103B7C007003FB60FB6823F00303FB603B681B686E
:103B8C00FA681343FB607B6923F400737B613B6829
:103B9C009B681B027A6913437B617B681D4A9342C5
:103BAC000DD17B6923F400637B613B68DB681B02EE
:103BBC007A6913437B617B6923F480637B617B6847
:103BCC00144A934213D13B6923F480533B613B6904
:103BDC0023F400533B613B685B691B013A69134357
:103BEC003B613B689B691B013A6913433B617B68F2
:103BFC003A695A607B68FA68DA613B685A687B6894
:103C0C00DA637B687A691A6200BF1C37BD4680BCD8
:103C1C00704700BF002C014080B487B000AF7860C3
:103C2C0039607B681B6A3B617B681B6A23F480529A
:103C3C007B681A627B685B687B617B68DB69FB6015
:103C4C00FB6823F4E043FB60FB6823F44073FB60E8
:103C5C003B681B681B02FA681343FB603B6923F447
:103C6C0000533B613B689B681B033A6913433B6100
:103C7C007B680F4A934209D17B6923F480437B61B3
:103C8C003B685B699B017A6913437B617B687A694A
:103C9C005A607B68FA68DA613B685A687B681A6418
:103CAC007B683A691A6200BF1C37BD4680BC7047FE
:103CBC00002C014080B487B000AFF860B9607A6026
:103CCC00BB6803F01F03012202FA03F37B61FB685C
:103CDC001A6A7B69DB431A40FB681A62FB681A6A32
:103CEC00BB6803F01F03796801FA03F31A43FB68FE
:103CFC001A6200BF1C37BD4680BC704780B485B0CB
:103D0C0000AF786039607B6893F83C30012B01D1AF
:103D1C00022341E07B68012283F83C207B6802226D
:103D2C0083F83D207B681B685B68FB607B681B68C5
:103D3C009B68BB60FB6823F07003FB603B681B68EF
:103D4C00FA681343FB607B681B68FA685A607B68EF
:103D5C001B68144A934209D07B681B68B3F1804FEF
:103D6C0004D07B681B68104A93420CD1BB6823F0CB
:103D7C008003BB603B685B68BA681343BB607B68BD
:103D8C001B68BA689A607B68012283F83D207B68C7
:103D9C00002283F83C20002318461437BD4680BC13
:103DAC00704700BF002C01400004004080B582B079
:103DBC0000AF78607B68002B01D1012342E07B6867
:103DCC0093F84130DBB2002B06D17B68002283F8DC
:103DDC0040207868FDF73AFC7B68242283F8412068
:103DEC007B681B68DA687B681B6822F40052DA6017
:103DFC00786800F0AFFD7B681B681A697B681B68EC
:103E0C0022F490421A617B681B685A697B681B68B4
:103E1C0022F02A025A617B681B68DA687B681B688F
:103E2C0042F40052DA607B6800225A647B682022DC
:103E3C0083F841207B68202283F842207B68002293
:103E4C005A63002318460837BD4680BD80B58AB03A
:103E5C0002AFF860B9603B601346FB8000237B61C6
:103E6C00FB6893F84130DBB2202B75D1BB68002B7B
:103E7C0002D0FB88002B01D101236EE0FB680022ED
:103E8C005A64FB68212283F84120FDF72BFD7861F1
:103E9C00FB68FA889A84FB68FA88DA84FB689B686A
:103EAC00B3F5805F08D1FB681B69002B04D100239C
:103EBC00FB61BB68BB6103E0BB68FB610023BB61BA
:103ECC002EE03B6800937B6900228021F86800F0AB
:103EDC0013FB0346002B05D0FB68202283F84120FE
:103EEC0003233AE0FB69002B0BD1BB691B881A46F4
:103EFC00FB681B68C2F308025A60BB690233BB61E2
:103F0C0007E0FB691A78FB681B685A60FB69013390
:103F1C00FB61FB68DB8C9BB2013B9AB2FB68DA84D9
:103F2C00FB68DB8C9BB2002BCBD13B6800937B698D
:103F3C0000224021F86800F0DFFA0346002B05D080
:103F4C00FB68202283F84120032306E0FB68202233
:103F5C0083F84120002300E0022318462037BD4699
:103F6C0080BD80B584B000AFF860B9601346FB80AB
:103F7C00FB6893F84230DBB2202B12D1BB68002BCC
:103F8C0002D0FB88002B01D101230BE0FB6800223F
:103F9C001A63FB881A46B968F86800F006FB0346FA
:103FAC0000E0022318461037BD4680BD80B5BAB07C
:103FBC0000AF78607B681B681B68C7F8E4307B68CF
:103FCC001B68DB68C7F8E0307B681B685B69C7F867
:103FDC00DC300023C7F8D8300023C7F8D430D7F82A
:103FEC00E43003F00F03C7F8D830D7F8D830002BE3
:103FFC000FD1D7F8E43003F02003002B09D0D7F809
:10400C00E03003F02003002B03D0786800F0E3FBD2
:10401C005BE2D7F8D830002B00F0DE80D7F8DC302C
:10402C0003F00103002B06D1D7F8E03003F49073B2
:10403C00002B00F0D180D7F8E43003F00103002B03
:10404C000BD0D7F8E03003F48073002B05D07B68DD
:10405C005B6C43F001027B685A64D7F8E43003F0E0
:10406C000403002B0BD0D7F8DC3003F00103002B3A
:10407C0005D07B685B6C43F002027B685A64D7F80E
:10408C00E43003F00203002B0BD0D7F8DC3003F044
:10409C000103002B05D07B685B6C43F004027B684A
:1040AC005A64D7F8E43003F00803002B11D0D7F88A
:1040BC00E03003F02003002B05D1D7F8DC3003F0FF
:1040CC000103002B05D07B685B6C43F008027B6816
:1040DC005A647B685B6C002B00F0F281D7F8E430FB
:1040EC0003F02003002B08D0D7F8E03003F02003B6
:1040FC00002B02D0786800F06EFB7B681B685B6954
:10410C0003F04003002B14BF01230023DBB2C7F8DC
:10411C00D4307B685B6C03F00803002B03D1D7F819
:10412C00D430002B4FD0786800F078FA7B681B688D
:10413C005B6903F04003002B41D07B681B68143390
:10414C00C7F89C30D7F89C3053E8003FC7F898303C
:10415C00D7F8983023F04003C7F8D0307B681B6841
:10416C001433D7F8D020C7F8A820C7F8A430D7F854
:10417C00A410D7F8A82041E80023C7F8A030D7F83E
:10418C00A030002BD9D17B68DB6B002B13D07B6864
:10419C00DB6B7E4A5A637B68DB6B1846FEF720F9B3
:1041AC000346002B16D07B68DB6B5B6B7A68D26B9B
:1041BC00104698470EE07868FDF710F90AE0786829
:1041CC00FDF70CF906E07868FDF708F97B6800222A
:1041DC005A6475E100BF73E17B681B6B012B40F0E7
:1041EC004F81D7F8E43003F01003002B00F0488126
:1041FC00D7F8E03003F01003002B00F041810023CE
:10420C00BB607B681B681B68BB607B681B685B685A
:10421C00BB60BB687B681B685B6903F04003002BC9
:10422C0000F0B6807B68DB6B1B685B68A7F8BE3060
:10423C00B7F8BE30002B00F045817B689B8DB7F83A
:10424C00BE209A4280F03E817B68B7F8BE20DA85AA
:10425C007B68DB6B9B69202B00F088807B681B687C
:10426C000C33C7F88830D7F8883053E8003FC7F8CC
:10427C008430D7F8843023F48073C7F8B8307B6867
:10428C001B680C33D7F8B820C7F89420C7F89030C7
:10429C00D7F89010D7F8942041E80023C7F88C3059
:1042AC00D7F88C30002BD9D17B681B6814337B6713
:1042BC007B6F53E8003F3B673B6F23F00103C7F86C
:1042CC00B4307B681B681433D7F8B420C7F880204F
:1042DC00FB67F96FD7F8802041E80023BB67BB6F01
:1042EC00002BE1D17B681B6814333B663B6E53E8B3
:1042FC00003FFB65FB6D23F04003C7F8B0307B68D3
:10430C001B681433D7F8B020FA66BB66B96EFA6E28
:10431C0041E800237B667B6E002BE3D17B68202277
:10432C0083F842207B6800221A637B681B680C337D
:10433C00FB64FB6C53E8003FBB64BB6C23F01003C5
:10434C00C7F8AC307B681B680C33D7F8AC20BA6567
:10435C007B65796DBA6D41E800233B653B6D002BA5
:10436C00E3D17B68DB6B1846FDF7FFFF7B6802220D
:10437C005A637B689A8D7B68DB8D9BB2D31A9BB298
:10438C001946786800F0ADF89CE000BFED460008D7
:10439C007B689A8D7B68DB8D9BB2D31AA7F8CE30E5
:1043AC007B68DB8D9BB2002B00F08E80B7F8CE3093
:1043BC00002B00F089807B681B680C33BB63BB6BE4
:1043CC0053E8003F7B637B6B23F49073C7F8C830D2
:1043DC007B681B680C33D7F8C8207A643B64396C53
:1043EC007A6C41E80023FB63FB6B002BE3D17B6809
:1043FC001B6814337B627B6A53E8003F3B623B6A69
:10440C0023F00103C7F8C4307B681B681433D7F85A
:10441C00C4203A63FB62F96A3A6B41E80023BB6241
:10442C00BB6A002BE3D17B68202283F842207B6897
:10443C0000221A637B681B680C333B613B6953E8B1
:10444C00003FFB60FB6823F01003C7F8C0307B68AB
:10445C001B680C33D7F8C020FA61BB61B969FA69E3
:10446C0041E800237B617B69002BE3D17B6802224E
:10447C005A63B7F8CE301946786800F032F823E06A
:10448C00D7F8E43003F08003002B09D0D7F8E030E4
:10449C0003F08003002B03D0786800F035F914E0AA
:1044AC00D7F8E43003F04003002B0ED0D7F8E030FF
:1044BC0003F04003002B08D0786800F074F904E096
:1044CC0000BF02E000BF00E000BFE837BD4680BD82
:1044DC0080B483B000AF786000BF0C37BD4680BCA1
:1044EC00704780B483B000AF78600B467B8000BF10
:1044FC000C37BD4680BC704780B586B000AFF86005
:10450C00B9603B601346FB713BE03B6AB3F1FF3F84
:10451C0037D0FDF7E7F902463B68D31A3A6A9A425C
:10452C0002D33B6A002B01D103233AE0FB681B68E2
:10453C00DB6803F00403002B23D0BB68802B20D056
:10454C00BB68402B1DD0FB681B681B6803F008037D
:10455C00082B16D100237B61FB681B681B687B61F1
:10456C00FB681B685B687B617B69F86800F056F838
:10457C00FB6808225A64FB68002283F84020012360
:10458C000FE0FB681B681A68BB681340BA689A4254
:10459C000CBF01230023DBB21A46FB799A42B4D03C
:1045AC00002318461837BD4680BD80B485B000AFD7
:1045BC00F860B9601346FB80FB68BA689A62FB68C6
:1045CC00FA889A85FB68FA88DA85FB6800225A64B7
:1045DC00FB68222283F84220FB681B69002B07D062
:1045EC00FB681B68DA68FB681B6842F48072DA604F
:1045FC00FB681B685A69FB681B6842F001025A6130
:10460C00FB681B68DA68FB681B6842F02002DA6002
:10461C00002318461437BD4680BC704780B495B053
:10462C0000AF78607B681B680C337B637B6B53E853
:10463C00003F3B633B6B23F49073FB647B681B680C
:10464C000C33FA6C3A64FB63F96B3A6C41E8002367
:10465C00BB63BB6B002BE5D17B681B6814333B62DF
:10466C003B6A53E8003FFB61FB6923F00103BB6429
:10467C007B681B681433BA6CFA62BB62B96AFA6A5B
:10468C0041E800237B627B6A002BE5D17B681B6BC6
:10469C00012B19D17B681B680C33FB60FB6853E85A
:1046AC00003FBB60BB6823F010037B647B681B6816
:1046BC000C337A6CBA617B617969BA6941E8002381
:1046CC003B613B69002BE5D17B68202283F84220BB
:1046DC007B6800221A6300BF5437BD4680BC70470C
:1046EC0080B584B000AF78607B685B6AFB60FB6868
:1046FC000022DA85FB680022DA84F868FCF76EFE8B
:10470C0000BF1037BD4680BD80B485B000AF786067
:10471C007B6893F84130DBB2212B3ED17B689B68E0
:10472C00B3F5805F14D17B681B69002B10D17B68BB
:10473C001B6AFB60FB681B881A467B681B68C2F30C
:10474C0008025A607B681B6A9A1C7B681A6208E034
:10475C007B681B6A591C7A6811621A787B681B6823
:10476C005A607B68DB8C9BB2013B9BB27A68194622
:10477C00D184002B0FD17B681B68DA687B681B68BF
:10478C0022F08002DA607B681B68DA687B681B6841
:10479C0042F04002DA60002300E00223184614378E
:1047AC00BD4680BC704780B582B000AF78607B6836
:1047BC001B68DA687B681B6822F04002DA607B6851
:1047CC00202283F841207868FFF782FE00231846E8
:1047DC000837BD4680BD80B58CB000AF78607B6873
:1047EC0093F84230DBB2222B40F0AE807B689B68A2
:1047FC00B3F5805F17D17B681B69002B13D10023A5
:10480C00FB627B689B6ABB627B681B685B689BB2C4
:10481C00C3F308039AB2BB6A1A807B689B6A9A1C22
:10482C007B689A6226E07B689B6AFB620023BB6212
:10483C007B689B68B3F5805F07D07B689B68002B17
:10484C000AD17B681B69002B06D17B681B685B68EF
:10485C00DAB2FB6A1A7008E07B681B685B68DBB233
:10486C0003F07F03DAB2FB6A1A707B689B6A5A1CEE
:10487C007B689A627B68DB8D9BB2013B9BB27A684A
:10488C001946D185002B5DD17B681B68DA687B6883
:10489C001B6822F02002DA607B681B68DA687B6890
:1048AC001B6822F48072DA607B681B685A697B682B
:1048BC001B6822F001025A617B68202283F8422097
:1048CC007B6800225A637B681B6B012B35D17B689C
:1048DC0000221A637B681B680C337B617B6953E88D
:1048EC00003F3B613B6923F010037B627B681B68D4
:1048FC000C337A6A3A62FB61F9693A6A41E800233F
:10490C00BB61BB69002BE5D17B681B681B6803F09E
:10491C001003102B0AD10023FB607B681B681B68FB
:10492C00FB607B681B685B68FB60FB687B689B8D2E
:10493C0019467868FFF7D5FD02E07868FCF708FDAA
:10494C00002302E0002300E0022318463037BD4666
:10495C0080BD000080B584B000AF78607B681B68B8
:10496C001B6923F440517B68DA687B681B680A4337
:10497C001A617B689A687B681B691A437B685B6960
:10498C001343BB607B681B68DB6823F4B05323F0D4
:10499C000C037A681268B9680B43D3607B681B6898
:1049AC005B6923F440717B689A697B681B680A43D6
:1049BC005A617B681B682C4A934203D1FEF712FBA9
:1049CC00F86002E0FEF7FAFAF860FA6813469B000A
:1049DC0013449A001A447B685B689B00B2FBF3F3A8
:1049EC00224AA2FB03235B091901FA6813469B00B8
:1049FC0013449A001A447B685B689B00B2FBF3F289
:104A0C001A4BA3FB02035B09642000FB03F3D31ACC
:104A1C001B013233154AA2FB03235B0903F0F0039D
:104A2C001944FA6813469B0013449A001A447B6895
:104A3C005B689B00B2FBF3F20C4BA3FB02035B091C
:104A4C00642000FB03F3D31A1B013233074AA2FB89
:104A5C0003235B0903F00F027B681B680A449A600E
:104A6C0000BF1037BD4680BD003801401F85EB519B
:104A7C000A22002100F07AB8242B2DE9F047864653
:104A8C00904601D8012B06D100F0CAF8162303601A
:104A9C000020BDE8F0870D4633482A4615F8014B37
:104AAC00065D16F00806F8D12D2C10D101262C78B5
:104ABC00951C33F0100215D1302C0DD12A7802F050
:104ACC00DF02582A08D16C78023510230AE02B2C0F
:104ADC0004BF2C78951CECE7002BF6D1302C14BFBE
:104AEC000A230823002206F1004C0CF1FF3CBCFB0E
:104AFC00F3F9104603FB19CAA4F13007092F0FD89C
:104B0C003C46A3421BDD571C07D0814514D301D171
:104B1C00A24511DB012200FB034015F8014BEBE72A
:104B2C00A4F14107192F01D8373CEAE7A4F161073A
:104B3C00192F04D8573CE4E74FF0FF32EDE7531C34
:104B4C0008D122236046CEF80030B8F1000FA0D077
:104B5C00691E06E006B14042B8F1000F99D0002A58
:104B6C00F6D1C8F8001094E71B57000813460A4604
:104B7C00014602480068FFF77FBF00BF0C00002011
:104B8C000CB430B5184B0C1E1D689DB008DA8B2385
:104B9C004FF0FF302B601DB0BDE8304002B07047C5
:104BAC004FF40273ADF814304FF000031B930CBF9D
:104BBC00234604F1FF33049307934FF6FF730290DF
:104BCC000690ADF81630284621AB209A02A9019325
:104BDC0000F0A8F9431CBCBF8B232B60002CDAD04F
:104BEC000022029B1A70D6E70C00002003460244F8
:104BFC00934200D1704703F8011BF9E710B56AB175
:104C0C000139841810F8012B11F8013F9A4203D195
:104C1C00A04201D0002AF5D1D01A10BD1046FCE7F5
:104C2C00014B1868704700BF0C00002070B50026BF
:104C3C000C4D0D4B5B1B9C10A64209D1002600F0BD
:104C4C007DFC0A4D0A4B5B1B9C10A64205D170BD26
:104C5C0055F8043B98470136EEE755F8043B984766
:104C6C000136F2E758580008585800085858000800
:104C7C005C5800087047704738B50546002940D08D
:104C8C0051F8043C0C1F002BB8BFE41800F0DEF800
:104C9C001C4A136833B9636014602846BDE8384079
:104CAC0000F0DAB8A34208D9206821188B4201BF62
:104CBC0019685B6809182160EDE71A465B680BB14F
:104CCC00A342FAD911685018A0420BD120680144B4
:104CDC00501883421160E0D118685B68084410607A
:104CEC005360DAE702D90C232B60D6E72068211831
:104CFC008B4201BF19685B680918216063605460BE
:104D0C00CBE738BDFC02002070B50F4E0C46316865
:104D1C00054611B900F0B0FB30602146284600F082
:104D2C00ABFB431C03D14FF0FF34204670BDC41CB9
:104D3C0024F00304A042F8D0211A284600F09CFB72
:104D4C000130F2D1EFE700BFF80200202DE9F84363
:104D5C00CD1C25F0030508350C2D38BF0C25002D76
:104D6C00064601DBA94204D90C2333600020BDE8C0
:104D7C00F883DFF8D48000F069F8D8F800301C46CE
:104D8C0044BB29463046FFF7BFFF431C044658D1AD
:104D9C00D8F800402746002F43D1002C4BD0236875
:104DAC003946304604EB030900F066FB814542D1DD
:104DBC00216830466D1A2946FFF7A6FF01303AD01C
:104DCC0023682B442360D8F800305A6862BBC8F8BB
:104DDC0000700FE02268521B20D40B2A17D96119DE
:104DEC00A342256018BF5960636808BFC8F800105B
:104DFC0062514B60304600F02FF804F10B00231D7C
:104E0C0020F00700C21A1CBF1B1AA350AFE7626840
:104E1C00A3420CBFC8F800205A60EBE72346646835
:104E2C00AEE73C467F68B6E71A465B68A342FBD107
:104E3C0000235360DEE70C233046336000F00CF89F
:104E4C0094E70560D6E700BFFC0200200148FFF79D
:104E5C0011BF00BFF40200200148FFF70CBF00BFD8
:104E6C00F40200202DE9F0471F468E688246BE42B0
:104E7C000C469046334653D8B1F90C0010F4906FA1
:104E8C002BD065692368096905EB4505A3EB01097E
:104E9C0005EBD5757B1C6D104B44AB422A4684BF89
:104EAC001D462A46430527D511465046FFF74EFFAF
:104EBC00064658B34A46216900F0FCFAA38923F44C
:104ECC00906343F08003A38126614E4426603B46E9
:104EDC003E466561A5EB0905A5601F463A4641466D
:104EEC00206800F0AFFA0020A3689B1BA360236826
:104EFC003B442360BDE8F087504600F0E9FA0646D3
:104F0C000028E1D150462169FFF7B6FE0C23CAF800
:104F1C000030A3894FF0FF3043F04003A381E9E751
:104F2C003E46DBE72DE9F0471F468B8906461B06FC
:104F3C000D4614469CB010D50B6973B94021FFF790
:104F4C0005FF2860286130B90C2333604FF0FF3027
:104F5C001CB0BDE8F08740236B610023099320232C
:104F6C008DF8293030234FF001080397644F8DF8EA
:104F7C002A302346994613F8012B0AB1252AF9D178
:104F8C00B9EB040A0BD05346224629463046FFF7AC
:104F9C0069FF013000F0A480099A5244099299F8F3
:104FAC000030002B00F09C8000234FF0FF32CDE945
:104FBC00052309F10109049307938DF853301A93D3
:104FCC004C46052214F8011B4D4800F065FA049B71
:104FDC00D0B9D80644BF20228DF85320190744BFFE
:104FEC002B228DF8532099F800202A2A13D04C46F6
:104FFC0000204FF00A0C079A214611F8013B303B78
:10500C00092B49D968B913E0C01B08FA00F0184302
:10501C00A1460490D4E7039A111D12680391002A4B
:10502C0001DB079204E0524243F00203079204931F
:10503C0023782E2B0AD163782A2B32D1039B02348E
:10504C001A1D1B68039243EAE3730593DFF8B490CF
:10505C0003224846217800F01FFA38B14022049B05
:10506C00A0EB0900824013430134049314F8011B94
:10507C00062225488DF8281000F00EFA002835D0AD
:10508C00224818BB039B073323F007030833039311
:10509C00099B034409936CE70C4601200CFB02327C
:1050AC00AAE700234FF00A0C194601340593204659
:1050BC0010F8012B303A092A03D9002BC6D00591E0
:1050CC00C4E7044601230CFB0121F0E703AB00937A
:1050DC002A4630460E4B04A9AFF30080421CD7D1B0
:1050EC00AB895B063FF532AF099831E703AB009310
:1050FC002A463046064B04A900F07EF8EEE700BFC6
:10510C001B58000821580008255800080000000012
:10511C00714E00082DE9F047164698468A680B69CF
:10512C0007469342B8BF1346336091F843200C46B0
:10513C00DDF820900AB1013333602368990642BF31
:10514C00336802333360256815F0060506D104F187
:10515C00190AE36832689B1AAB422BDC94F8433093
:10516C002268003B18BF0123920630D441463846D2
:10517C0004F14302C847013023D02368226903F0AD
:10518C000603042B14BF002533684FF0000608BF3C
:10519C00E56804F11A0408BFED1A54F8123C08BF74
:1051AC0025EAE5759342C4BF9B1AED18B5421AD196
:1051BC00002008E00123524641463846C8470130DA
:1051CC0003D14FF0FF30BDE8F0870135C1E7302047
:1051DC00E11881F843005A1C94F84510224402331C
:1051EC0082F84310C2E70123224641463846C8479D
:1051FC000130E6D00136D9E72DE9F0430D7E85B0BC
:10520C00782D904607460C4699460C9E01F14302B8
:10521C0007D8622D0AD8002D00F0D780582D00F049
:10522C00BC8004F1420684F842503BE0A5F16303D4
:10523C00152BF6D801A151F823F000BFA15200089C
:10524C00B55200082F5200082F5200082F520008A8
:10525C002F520008B55200082F5200082F52000898
:10526C002F5200082F520008BD530008DF520008CF
:10527C006F5300082F5200082F520008DF5300080C
:10528C002F520008DF5200082F5200082F5200083E
:10529C007753000833681A1D1B68326004F142060C
:1052AC0084F842300123A1E033682068191D316075
:1052BC00060601D51D6803E04506FBD5B3F9005081
:1052CC00002D03DA2D236D4284F843300A235B480A
:1052DC0011E021683368080653F8045B02D44906D0
:1052EC0048BFADB23360237E54486F2B5CD108238A
:1052FC00002184F843106668002EA66005DB216847
:10530C002E4321F00401216050D01646B5FBF3F179
:10531C0003FB115C10F80CC006F801CDAC466345DC
:10532C000D46F3D9082B0BD12368DB0708D523696D
:10533C0061689942DEBF302306F8013C06F1FF3666
:10534C00921B2261434621463846CDF8009003AAB1
:10535C00FFF7E0FE01304ED14FF0FF3005B0BDE855
:10536C00F083236843F0200323607825344884F8C5
:10537C0045502368316813F0800F51F8045B03D15A
:10538C0013F0400F18BFADB23160D90744BF43F0E2
:10539C00200323601DB11023AAE72848E7E7236800
:1053AC0023F020032360F6E70A23A1E71646B9E7AA
:1053BC0033682568181D616930602E061B6801D59D
:1053CC00196002E06806FBD519800023164623619C
:1053DC00B8E7336800211A1D32601E6862683046D7
:1053EC0000F05AF808B1801B6060636823610023E9
:1053FC0084F84330A6E73246414638462369C8470D
:10540C000130A9D023689B0713D4E068039B984212
:10541C00B8BF1846A2E70123324641463846C84772
:10542C00013099D00135E36803995B1AAB42F2DC89
:10543C00EBE7002504F11906F5E700BF2C5800082E
:10544C003D580008884210B501EB020402D9844291
:10545C00234607D8431EA14207D011F8012B03F8AD
:10546C00012FF8E70244824200D110BD13F8011D50
:10547C0002F8011DF7E7000038B50023054D04467E
:10548C0008462B60FCF774F9431C02D12B6803B15E
:10549C00236038BDF0020020034610B5C9B20244A7
:1054AC009342184601D1002003E0047801338C426A
:1054BC00F6D110BD0A44914200F1FF3300D1704780
:1054CC0010B511F8014B914203F8014FF9D110BD01
:1054DC002DE9F041074614460D4621B91146BDE8A9
:1054EC00F041FFF733BC2AB9FFF7C6FB2546284627
:1054FC00BDE8F08100F01AF88442064602D8B4EBFD
:10550C00500FF4D821463846FFF720FC804608B9E6
:10551C004546ECE7B4422246294628BF3246FFF7FF
:10552C00C9FF29463846FFF7A7FBF1E751F8043CC1
:10553C00181F002BBCBF0B58C0187047F8B500BF24
:10554C00F8BC08BC9E467047F8B500BFF8BC08BC58
:04555C009E467047B0
:10556000524553455400000053797374656D2068AB
:105570006173206265656E20726573657465640D84
:105580000A0000004572726F722C20452D53746F13
:10559000700D0A004572726F722C204F7665726C26
:1055A0006F61642073746F700D0A000053544F5084
:1055B000000000005374617475733A204D6F746F6E
:1055C000722073746F707065642C2054617267650B
:1055D000743D302052504D2C206D6F746F722073CB
:1055E000706565643D25642052504D0D0A00000031
:1055F0005374617475733A204272616B696E6720EF
:10560000284630290D0A00005374617475733A20DE
:10561000466F72776172642C205461726765743DC5
:1056200025642052504D2C206D6F746F7220737062
:105630006565643D25642052504D0D0A0000000050
:10564000556E6B6E6F776E20636F6D6D616E640D5E
:105650000A0000005374617475733A204272616BE2
:10566000696E6720285230290D0A00005374617456
:1056700075733A20526576657273652C2054617299
:105680006765743D25642052504D2C206D6F746FFA
:10569000722073706565643D25642052504D0D0A7B
:1056A000000000000D0A212121204D4F544F5220AF
:1056B0004F5645524C4F4144202121210D0A0000F4
:1056C0000D0A21212120454D455247454E43592081
:1056D00053544F50202121210D0A000000000000EA
:1056E0000000000001020304060708090000000092
:1056F0000102030402030405060708090A0B0C0D46
:105700000E0F10100102000002030405060708092D
:105710000A0B0C0D0E0F101001020020202020207B
:105720002020202028282828282020202020202051
:105730002020202020202020202020881010101041
:105740001010101010101010101010040404040495
:1057500004040404041010101010101041414141C1
:1057600041410101010101010101010101010101A9
:1057700001010101010110101010101042424242BB
:105780004242020202020202020202020202020279
:10579000020202020202101010102000000000009D
:1057A00000000000000000000000000000000000F9
:1057B00000000000000000000000000000000000E9
:1057C00000000000000000000000000000000000D9
:1057D00000000000000000000000000000000000C9
:1057E00000000000000000000000000000000000B9
:1057F00000000000000000000000000000000000A9
:105800000000000000000000000000000000000098
:105810000000000000000000000000232D302B20BD
:1058200000686C4C0065666745464700303132338E
:1058300034353637383941424344454600303132F9
:105840003334353637383961626364656600000089
:08585000FCA8FF7F010000002D
:045858003101000812
:04585C000D01000832
:1058600000127A001000000001000000100000206B
:1058700000000000B8010020200200208802002063
:105880000000000000000000000000000000000018
:105890000000000000000000000000000000000008
:1058A00000000000000000000000000000000000F8
:0C58B000000000000000000000000000EC
:04000005080017F5E3
:00000001FF
