:020000040800F2
:10000000002800200D150008891400088B14000832
:100010008D1400088F1400089114000800000000DF
:10002000000000000000000000000000813F000808
:10003000931400080000000011400008554000081B
:1000400055150008551500085515000855150008E8
:100050005515000855150008551500089514000899
:100060005515000855150008551500089D14000881
:10007000551500085515000855150008A914000865
:1000800055150008551500085515000855150008A8
:100090005515000855150008551500085515000898
:1000A00055150008B5140008551500085515000829
:1000B00055150008551500080000000055150008EA
:1000C000551500080000000000000000551500084C
:1000D00000000000C11400085515000800000000D1
:1000E00055150008551500085515000800000000BA
:1000F0000000000000000000000000000000000000
:0C01000000000000000000005FF808F1A3
:1001100010B5054C237833B9044B13B10448AFF341
:1001200000800123237010BD60000020000000004B
:10013000404F000808B5034B1BB103490348AFF318
:10014000008008BD0000000064000020404F00084F
:10015000034613F8012B002AFBD1181A0138704707
:1001600080F0004002E000BF81F0004142001FBF6C
:100170005FEA410392EA030F7FEA226C7FEA236C75
:100180006AD04FEA1262D2EB1363C1BFD21841406A
:1001900048404140B8BF5B42192B88BF704710F000
:1001A000004F40F4000020F07F4018BF404211F0A3
:1001B000004F41F4000121F07F4118BF494292EA0B
:1001C000030F3FD0A2F1010241FA03FC10EB0C0037
:1001D000C3F1200301FA03F100F0004302D54942C4
:1001E00060EB4000B0F5000F13D3B0F1807F06D371
:1001F00040084FEA310102F10102FE2A51D2B1F169
:10020000004F40EBC25008BF20F0010040EA03005D
:100210007047490040EB0000013A28BFB0F5000FDD
:10022000EDD2B0FA80FCACF1080CB2EB0C0200FA93
:100230000CF0AABF00EBC25052421843BCBFD040E2
:100240001843704792F0000F81F4000106BF80F45C
:1002500000000132013BB5E74FEA41037FEA226C1F
:1002600018BF7FEA236C21D092EA030F04D092F0EA
:10027000000F08BF0846704790EA010F1CBF00201E
:10028000704712F07F4F04D1400028BF40F000407B
:10029000704712F100723CBF00F50000704700F09B
:1002A000004343F0FE4040F4000070477FEA2262C2
:1002B00016BF08467FEA23630146420206BF5FEA93
:1002C000412390EA010F40F4800070474FF0000393
:1002D00004E000BF10F0004348BF40425FEA000C5A
:1002E00008BF704743F0964301464FF000001CE002
:1002F00050EA010208BF70474FF000030AE000BF58
:1003000050EA010208BF704711F0004302D5404295
:1003100061EB41015FEA010C02BF84460146002007
:1003200043F0B64308BFA3F18053A3F50003BCFA22
:100330008CF2083AA3EBC25310DB01FA02FC6344CF
:1003400000FA02FCC2F12002BCF1004F20FA02F2D6
:1003500043EB020008BF20F00100704702F12002C9
:1003600001FA02FCC2F1200250EA4C0021FA02F22A
:1003700043EB020008BF20EADC7070474FF0FF0C2F
:100380001CEAD0521EBF1CEAD15392EA0C0F93EA2A
:100390000C0F6FD01A4480EA010C400218BF5FEACC
:1003A00041211ED04FF0006343EA501043EA51113F
:1003B000A0FB01310CF00040B1F5000F3EBF490039
:1003C00041EAD3715B0040EA010062F17F02FD2A3D
:1003D0001DD8B3F1004F40EBC25008BF20F0010020
:1003E000704790F0000F0CF0004C08BF49024CEA37
:1003F000502040EA51207F3AC2BFD2F1FF0340EAC9
:10040000C250704740F400004FF00003013A5DDC39
:1004100012F1190FDCBF00F000407047C2F100027A
:10042000410021FA02F1C2F1200200FA02FC5FEA67
:10043000310040F1000053EA4C0308BF20EADC70B1
:10044000704792F0000F00F0004C02BF400010F423
:10045000000F013AF9D040EA0C0093F0000F01F0D0
:10046000004C02BF490011F4000F013BF9D041EAF2
:100470000C018FE70CEAD15392EA0C0F18BF93EAF4
:100480000C0F0AD030F0004C18BF31F0004CD8D11E
:1004900080EA010000F00040704790F0000F17BFA5
:1004A00090F0004F084691F0000F91F0004F14D0EB
:1004B00092EA0C0F01D142020FD193EA0C0F03D143
:1004C0004B0218BF084608D180EA010000F0004046
:1004D00040F0FE4040F40000704740F0FE4040F421
:1004E000400070474FF0FF0C1CEAD0521EBF1CEAC0
:1004F000D15392EA0C0F93EA0C0F69D0A2EB0302DE
:1005000080EA010C49024FEA402037D04FF0805377
:1005100043EA111143EA10130CF000408B4238BF3C
:100520005B0042F17D024FF4000C8B4224BF5B1A4A
:1005300040EA0C00B3EB510F24BFA3EB510340EA98
:100540005C00B3EB910F24BFA3EB910340EA9C0046
:10055000B3EBD10F24BFA3EBD10340EADC001B01B6
:1005600018BF5FEA1C1CE0D1FD2A3FF650AF8B425A
:1005700040EBC25008BF20F0010070470CF0004C67
:100580004CEA50207F32C2BFD2F1FF0340EAC25092
:10059000704740F400004FF00003013A37E792F053
:1005A000000F00F0004C02BF400010F4000F013AB1
:1005B000F9D040EA0C0093F0000F01F0004C02BFAC
:1005C000490011F4000F013BF9D041EA0C0195E715
:1005D0000CEAD15392EA0C0F08D142027FF47DAFAE
:1005E00093EA0C0F7FF470AF084676E793EA0C0F9E
:1005F00004D14B023FF44CAF08466EE730F0004C9C
:1006000018BF31F0004CCAD130F000427FF45CAF2B
:1006100031F000437FF43CAF5FE700BF4FF0FF3C99
:1006200006E000BF4FF0010C02E000BF4FF0010CEC
:100630004DF804CD4FEA40024FEA41037FEA226CB5
:1006400018BF7FEA236C11D001B052EA530C18BFD7
:1006500090EA010F58BFB2EB030088BFC81738BF3C
:100660006FEAE17018BF40F0010070477FEA226C2A
:1006700002D15FEA402C05D17FEA236CE4D15FEA26
:10068000412CE1D05DF8040B704700BF844608465A
:100690006146FFE70FB5FFF7C9FF002848BF10F11B
:1006A000000F0FBD4DF808EDFFF7F4FF0CBF012060
:1006B00000205DF808FB00BF4DF808EDFFF7EAFFEA
:1006C00034BF012000205DF808FB00BF4DF808EDA5
:1006D000FFF7E0FF94BF012000205DF808FB00BF9A
:1006E0004DF808EDFFF7D2FF94BF012000205DF820
:1006F00008FB00BF4DF808EDFFF7C8FF34BF01202D
:1007000000205DF808FB00BF4FEA4002B2F1FE4F47
:100710000FD34FF09E03B3EB12620DD94FEA0023C3
:1007200043F0004310F0004F23FA02F018BF40429C
:1007300070474FF00000704712F1610F01D1420283
:1007400005D110F0004008BF6FF0004070474FF037
:100750000000704742000ED2B2F1FE4F0BD34FF0B3
:100760009E03B3EB126209D44FEA002343F0004327
:1007700023FA02F070474FF00000704712F1610F4A
:1007800001D1420202D14FF0FF3070474FF000001C
:10079000704700BF034B0360034B0B608023136063
:1007A000704700BF7C0200207C0000202DE9F04350
:1007B00000257C4E9DB04FF0FF31012003F0FAFA86
:1007C00005227849784803F0B5FE784F48B9784B50
:1007D00078491860784B3870DD6003A803F046FF55
:1007E0002DE03B78012B23D013F0FD0FE3D1042241
:1007F0003046724903F09EFE044650BB704B0246E1
:100800001870704B01211D606B4B6F48DD6001F06B
:10081000B3FB224602216C4801F0AEFB4FF6FF729B
:100820006A4B1B68DA636A4B6A4AB3F9003002E02C
:100830005F4B694A1B68642103A803F03DFE03A8CF
:10084000FFF786FC642382B203A9644802F083FBAD
:10085000B1E73378462B48D14FF00208737887F818
:100860000080303B092B00F29B805D4803F09CFD2B
:10087000B0F57A7F0446504FDFF84491514B15DABA
:10088000B0B90246012189F800004F481D60FD60A3
:1008900001F072FB224641464B4801F06DFB4FF6DA
:1008A000FF724A4B4F491B68DA6396E740F2E73420
:1008B0002046FFF70FFD0122424B114618604248C7
:1008C00089F80020FD6001F057FB002202213E481C
:1008D00001F052FB3E4B444AB3F9003000932346EB
:1008E000642103A803F0E8FDA9E7522B44D14FF09F
:1008F0000208737887F80080303B092B50D83848BD
:1009000003F052FDB0F57A7F04462B4FDFF8B0902C
:100910002C4B15DAB0B90246012189F800002A48AB
:100920001D60FD6001F028FB22464146264801F08B
:1009300023FB4FF6FF72254B2C491B68DA634CE70B
:1009400040F2E7342046FFF7C5FC1E4B002218603A
:10095000FF2301211C4889F80030FD6001F00CFBE9
:1009600001220221184801F007FB194B204AB3F974
:10097000003000932346B3E7052230461D4903F0BB
:10098000D9FD68B91C4903A803F070FE03A8FFF75E
:10099000DFFB642382B203A9104802F0DCFAFEE711
:1009A00016491AE772030020904F00083403002014
:1009B00030030020964F00083C030020E24F00085F
:1009C0003503002038030020000C01407004002093
:1009D00060030020E74F0008B54F0008E003002047
:1009E0007303002021500008385000087F50000891
:1009F00096500008CB500008D15000086D500008F8
:100A00002DE9F8430546084611469946FFF7ACFB29
:100A1000064600F0BFFD254BA96818603046FFF779
:100A2000ADFC4946FFF7AAFCE968FFF79FFBD5F844
:100A3000188004464146FFF75DFE00B144466F69E9
:100A400020463946FFF738FE00B13C4600214846B3
:100A5000EC60FFF74FFE20B329693046FFF784FBB7
:100A60002968FFF78BFC4946FFF73CFD8146696822
:100A70003046FFF783FC2146FFF778FB4946FFF736
:100A800075FB2E61044601464046FFF715FE00B196
:100A9000444621463846FFF72DFE28B13846BDE8CA
:100AA000F8834FF00009E2E72046F8E758030020FA
:100AB0002DE9F04FA9B002F0E3FF644F07906448BE
:100AC00001F095FA634800F0CDFE0A21614800F07C
:100AD00067FD614C18B95F4800F006FE2060206891
:100AE000FFF7F4FB5D49FFF749FC3946FFF7FAFCD5
:100AF0005B4D5C492860FFF7FDFD5B4C18B1236836
:100B000043F00203236000F045FD584B584A18603B
:100B1000584B594E1B68DFF864915B6A19B211801B
:100B2000574A108811804FF416721B1A1BB2534398
:100B3000602293FBF2F33380D9F800305BB100F010
:100B400029FDD9F80030C01AB0F5FA7F82BF2368BA
:100B500043F00303236022684A4BDFF82CB1002ADC
:100B60005AD001214FF000091970484B4A4683F8CA
:100B7000009000234648CBF8003001F0FDF94A46CA
:100B80000221434801F0F8F94FF6FF72414B1B6810
:100B9000DA6300F0FFFCDFF80091B6F900608246EE
:100BA000C9F80000A9F80460DBF80000FFF7ACFD0D
:100BB0002D68D4F800B00FFA80F8A9F8068028460E
:100BC000C9F80850C9F80CB0FFF79EFDCDF810B079
:100BD0000446FFF77FFB01462846FFF7C5FA2F4979
:100BE000FFF7CCFBFFF790FD53468021CDE9024093
:100BF0002B4ACDE9006808A803F05EFC08A8FFF7BF
:100C0000A7FA08A982B20A23264802F0A4F96421AF
:100C100007A803F049F852E71B78022BB9D1B6F9BF
:100C200000000028B8BF404280B2FFF753FB1E4BC4
:100C30000246DBF800101D48FFF7E2FE154BD3F823
:100C40000090FFF787FDC9F83C00A2E700F07F4560
:100C5000B8040020080500206C0300200000A0401C
:100C60006803002000006040300300205C03002087
:100C70006403002028040020600300202C030020CF
:100C800062030020340300203803002035030020D5
:100C9000000C0140700400201C0300200000C8422A
:100CA000EA500008E0030020CDCCCC3D3C030020FE
:100CB00010B594B0242200210BA803F033FC1422B9
:100CC000102400210DEB020003F02CFC0021224631
:100CD00001A803F027FC0A230A9301230AA8CDE9FF
:100CE0000E34109301F08AF9014608B172B6FEE79E
:100CF0000F23CDE90700CDE90530099005A801F0E3
:100D00003FFB08B172B6FEE70223039001A80193EE
:100D100001F010FC08B172B6FEE714B010BD00007F
:100D20004FF0FF3380B54FF001084FF0020A002664
:100D300003278D4C9AB06361E361A36100F00CFC62
:100D4000FFF7B6FFE36911AD43F00203E361A36966
:100D5000102243F480430021A361284603F0E2FB04
:100D6000A369002243F00403A361A369032103F0F4
:100D700004030193019BA3697C4843F00803A3612A
:100D8000A3690DF1280903F008030293029B01F007
:100D9000F3F8774B29467748CDE911A3CDF84C807D
:100DA00001F01CF829467148CDE91178CDE9136AA4
:100DB00001F014F832460521072000F06BFE0720F1
:100DC00000F098FE6369324643EA08036361636991
:100DD000052103EA08030B200093009B00F05AFE54
:100DE0000B2000F087FE324605210F2000F052FE56
:100DF0000F2000F07FFE2022314612A803F092FB64
:100E00005D4A5E4B294613600723C2E9013640F272
:100E1000E73310460A96C2E90336C9F804609661C2
:100E20001197CDF84C80CDF85C8001F06DFE08B1D3
:100E300072B6FEE7CDE90A0049464F4801F096FF39
:100E400008B172B6FEE74FF4E1334D4E4D4AC6E9A4
:100E50000200C6E900230C233061C6E90530F061C9
:100E6000304602F049F808B172B6FEE7464C474BEF
:100E7000119023604FF46023C5E90100A060207544
:100E80006060204684F80C80E361C4F8108000F0B4
:100E900071FD08B172B6FEE7CDE91108139029463D
:100EA000204600F025FC074608B172B6FEE70A901E
:100EB0000146C9F804001C22284603F033FB4FF01A
:100EC0008043334CC4E900374FF6FF732046C4E932
:100ED0000337A760A76101F0EBFD08B172B6FEE72A
:100EE000CDE90A004946204601F040FF08B172B63C
:100EF000FEE760231390CDE91130159008222946B2
:100F0000204601F081FE074608B172B6FEE7204692
:100F100000F0F4F91F48204BC0E9003740F6FF739A
:100F2000836001F03BF8074608B172B6FEE702465F
:100F300041460E4801F020F83A4651460B4801F070
:100F40001BF820221549304602F0D8FAF36B08212D
:100F50001A682046136823F00403136001F004FFAD
:100F6000F0B172B6FEE700BF00100240000C014075
:100F70000000211000080140280400200004004067
:100F8000E003002000380140080500200024014053
:100F900070040020B80400200030004072030020DC
:100FA0004FF6FF7223683C21DA63244801F036FCD7
:100FB00000F0F0FA224B234A1860234B2C465A606B
:100FC000224A23499A604FF07E521A6000229961AA
:100FD000DA601A615A611F4B03F120062246186835
:100FE0005968083303C2B3421446F7D12846FFF7C5
:100FF000AFF8194C294682B26423184803AD01F0BA
:10100000AAFF0FCC0FC594E8070085E80700002170
:1010100003A802F0A3FA4D46114B0C3418600FCC14
:101020000FC594E8070085E807000021484602F054
:1010300095FA0C4B186002F08CFAFEE728040020A9
:101040005C030020000020423C03002000002041FF
:1010500000FF7F4726510008584F0008E00300209A
:10106000980300209403002030B50228044689B07C
:101070002FD100220121184800F07EFF00222146D6
:10108000154800F079FF4FF6FF72144B1B68DA63C6
:101090000122134B1A70134A136843F001031360C3
:1010A000114B01AA03F11805144618685968083352
:1010B00003C4AB422246F7D119889B782180A370E4
:1010C00001A8FFF745F8642382B201A9074801F09F
:1010D00042FF09B030BD00BF000C01407004002089
:1010E000340300203003002046510008E0030020B4
:1010F00002681D4B13B59A420C462FD100F04AFAF4
:101100001A4B1B4A18601B4B10461C8000239C4244
:1011100005DD12F8011B0D2922D10022C254002343
:101120000193154B01A9186802F07AFE019B4BB19F
:101130004FF0E0234FF08052C3F8042DBFF34F8FE0
:10114000BFF36F8F0D4C20222046094902F0D6F9DB
:10115000E36B1A68136823F00403136002B010BD38
:101160000A29DAD00133D2E7003801402C030020ED
:10117000720300207003002098030020E003002089
:101180000268034B9A4201D100F0F8B9704700BFE2
:10119000002C014072B6FEE7114B07B59A690F218A
:1011A00042F001029A619A696FF0010002F00102B7
:1011B0000092009ADA6942F08052DA61DB6900221B
:1011C00003F080530193019B00F064FC054A5368CF
:1011D00023F0E06343F00073536003B000BD00BF31
:1011E000001002400000014030B5054687B01022D3
:1011F000002102A803F096F92A681D4B9A4234D1C7
:1012000003F56C439A691B4842F400729A619A692B
:1012100002A902F400720092009A9A69164C42F0F8
:1012200004029A619B69012203F004030193019B6C
:101230000323CDE9022300F0D1FD80204FF480721A
:101240000023C4E903024FF4806C20220B4920469E
:10125000C4E90013C4E905C2A360E36100F058FCCF
:1012600008B1FFF797FF2C62656207B030BD00BF81
:101270000024014000080140C4040020080002408E
:10128000036882B0B3F1804F0AD103F50433DA6901
:1012900042F00102DA61DB6903F001030193019B73
:1012A00002B0704710B5044686B01022002102A893
:1012B00003F038F922680F4B9A4219D103F5033332
:1012C000DA690D4842F00202DA61DA6902A902F035
:1012D00002020092009A9A6942F004029A619B69A4
:1012E00003F004030193019BC023029300F076FDF9
:1012F00006B010BD000400400008014010B50446CF
:1013000086B01022002102A803F00CF92368B3F183
:10131000804F13D103F504339A69094842F004025F
:101320009A619B69042203F004030193019B022349
:1013300002A9CDE90223059300F050FD06B010BDCF
:101340000008014070B5064686B01022002102A8B0
:1013500003F0E8F83268244B9A4243D103F558432E
:101360009A69224842F480429A619A6902A902F479
:1013700080420092009A9A69002542F004029A6124
:101380009B694FF4007203F004030193019B022355
:10139000CDE902230323059300F020FD4FF4806381
:1013A000124802A9124CCDE90235049500F016FD51
:1013B000104B2046C4E900358023C4E90555C4E933
:1013C0000335A560E56100F0A3FB08B1FFF7E2FE7D
:1013D000252000220621F463666200F05BFB2520D5
:1013E00000F088FB06B070BD0038014000080140E5
:1013F0009C0300205800024030B51E4B89B09A690A
:1014000001A942F400629A619B69054603F40063F6
:10141000029303A8029B01F06FF801F05DF8164AF1
:10142000164B136040F2E733D360154BB0FBF3F07B
:10143000002301385060104613619360936101F0FE
:101440000BFB044680B90C4801F0C2F9044658B9B8
:10145000192000F04FFB0F2D09D8224629461920EC
:1014600000F018FB074B1D60204609B030BD012479
:10147000FAE700BF0010024038050020002C0140B0
:1014800040420F0008000020FEE7FEE7FEE7FEE70F
:10149000FEE77047022000F075BD0000014800F033
:1014A00009BC00BFC4040020014800F003BC00BF19
:1014B0009C030020014801F00DBA00BF3805002050
:1014C000014801F085BE00BFE00300200A4A034640
:1014D000106810B508B9094810600949094C03445F
:1014E000091B8B4206D903F095F80C2303604FF0DB
:1014F000FF3010BD1360FCE78005002020140020A1
:10150000002800200004000070470000FFF7FCFFE7
:101510000B480C490C4A002302E0D458C450043351
:10152000C4188C42F9D3094A094C002301E0136026
:101530000432A242FBD303F073F8FFF7F1FB7047CC
:101540000000002060000020FC5200086000002025
:1015500020140020FEE70000074A08B513680320A6
:1015600043F01003136000F083FA0F20FFF744FFED
:10157000FFF712FE002008BD00200240034A044B82
:1015800011681B780B441360704700BF840500206E
:1015900004000020014B1868704700BF840500203C
:1015A000F7B5002604460D460196FFF7F3FF2368C2
:1015B00007469A68D10508D50120A36A84F82460FB
:1015C00043F02003A36203B0F0BD5A68D20503D4F0
:1015D000DB6A13F4700F3DD03D4B02201E6801F012
:1015E00023F823683B4A1969B6FBF0F611423A4AE0
:1015F00051D1D868394908424DD1196911425BD19E
:10160000DA68374B1A420CBF142329235E43019B2F
:10161000B34223D26A1C04D0002D53D1019BB342A4
:101620000AD3019B01330193F1E76E1C13D065B916
:1016300023681B6898070DD4A36A032043F00403B2
:10164000A362002384F82430BDE7FFF7A3FFC01B8B
:10165000A842EDD8226813689907E6D56FF0120307
:1016600022681360A36A43F40073A362936803F4CF
:101670006023B3F5602F0CD1237B53B9A36A23F405
:101680008073A362A36ADB0403D4A36A43F001035B
:10169000A362002097E71969114203D1D968104A63
:1016A00011420BD019690F4A114209D1DB6813426C
:1016B0000CBF5423FC23A9E72923A7E75423A5E75C
:1016C000FC23A3E7FFF766FFC01BA842A6D8A8E744
:1016D00000000020244992249224491224499200B7
:1016E00092244900499224000368D86C7047000096
:1016F000002373B5019390F824300446012B6CD07D
:10170000012380F824304D680268062D086805EB37
:10171000850322D81F26556B053B9E4025EA06050A
:1017200000FA03F32B43536309288B6800EB400551
:101730004FF0070129D9D6681E3DA94026EA0101CC
:10174000AB400B43D360A0F11003012B25D900203F
:10175000002384F8243002B070BD0C2D4FF01F051B
:1017600009D8166B233B9D4026EA050500FA03F3D2
:101770002B431363D8E7D66A413B9D4026EA050513
:1017800000FA03F32B43D362CEE71069A94020EAA5
:101790000101AB400B431361D9E7114B9A4216D1BB
:1017A00093681B02D3D49368102843F4000393601A
:1017B000CDD10C4B0C4A1B68B3FBF2F30A22534306
:1017C0000193019B002BC2D0019B013BF8E7A36A68
:1017D000012043F02003A362BAE70220BBE700BF69
:1017E000002401400000002040420F00002337B5D4
:1017F0000193036804469A68D20702D5002003B01B
:1018000030BD9A6842F001029A60144B144A1B687A
:10181000B3FBF2F30193019BE3B9FFF7BBFE05466F
:1018200023689B68DB07E9D4FFF7B4FE401B02285E
:10183000F6D923689B6813F00103F1D1A26A012055
:1018400042F01002A262E26A84F8243042F00102FF
:10185000E262D4E7019B013BDCE700BF000000200F
:1018600040420F0010B590F824300446012B54D0AC
:10187000012380F82430FFF7B9FF002849D1A36A7B
:10188000274A23F4407323F0010343F48073A362D7
:101890002368934204D123494A6812F4702F2ED151
:1018A000A26A22F48012A2625A68520541BFA26A5B
:1018B00022F4405242F48052A262A26A12F4805290
:1018C0001CBFE26A22F00602E262002284F82420B1
:1018D0006FF002021A609A6802F46022B2F5602F7B
:1018E00013D10F4A934205D1A2F58062526812F4D7
:1018F000702F0AD19A6842F4A0029A6010BDA26AC1
:1019000042F48012A2624A68CFE79A6842F48012D9
:10191000F3E7002384F82430F0E70220EEE700BF6D
:10192000002801400024014038B5036804469A6845
:10193000D10701D4002038BD9A6822F001029A60D4
:10194000FFF728FE054623689B68DB07F2D5FFF703
:1019500021FE401B0228F6D923689B68DA07F2D5DE
:10196000A36A012043F01003A362E36A43F001037A
:10197000E362E0E7F8B5044600286DD0836A23B936
:10198000C36280F82430FFF72FFC2046FFF7CCFF1E
:10199000A36A13F0100361D100285FD1A26A6168C5
:1019A00022F4885222F0020242F00202E569A6689F
:1019B000A262227B2943B6F5807F41EA420136D0FC
:1019C000771E7D427D412D02277D012F06D182BBEE
:1019D000A269013A45EA423242F400652268B6F54E
:1019E000807F576827F4694745EA0705556097687F
:1019F0001D4D05EA070545EA0105956001D0012E58
:101A000002D12369013B1B05D56A25F470052B43E0
:101A1000D3629268154B1340994213D10023E362BD
:101A2000A36A23F0030343F00103A362F8BD354624
:101A3000CAE7A26A42F02002A262E26A42F0010210
:101A4000E262CBE7A36A23F0120343F01003A36220
:101A5000E36A43F00103E3620120E7E7A36A43F08E
:101A60001003A362F8E700BFFDF7E1FFFE0E1FFFC2
:101A700007490302CA6803F4E06322F4E062120437
:101A8000120C134343F0BF6343F40033CB60704741
:101A900000ED00E0154B30B5DC68C4F30224C4F15E
:101AA0000703251D042B28BF0423062D4FF0FF3507
:101AB00094BF0024033C05FA03F321EA0303A54085
:101AC00022EA0502A340002843EA0203ACBF00F16A
:101AD0006040074A4FEA0313DBB2ABBF00F5614039
:101AE00000F00F0080F80033135430BD00ED00E02B
:101AF00014ED00E0002807DB01234109034A00F050
:101B00001F00834042F82130704700BF00E100E031
:101B1000034610B530B301681420134A0A44B2FBDF
:101B2000F0F292001A64114ADA63022283F821204B
:101B3000D3E901242243DC68086822431C696FF35F
:101B40000D1022435C6922439C692243DC692243D5
:101B500002430A6000200122986383F8200083F882
:101B6000212010BD0120FCE7F8FFFDBF000002406E
:101B7000F0B590F82040012C34D0012480F82040AA
:101B800090F82140012CE5B24FF0000428D1022644
:101B900080F8216084630468266826F001062660C8
:101BA000D0E90F67BD40756063604368102BC36A5E
:101BB0000BBFA260A160E160E2604BB1236843F01B
:101BC0000E0300202360236843F001032360F0BD6F
:101BD000236823F004032360236843F00A03F0E73B
:101BE00080F820400220F2E790F821200346022AE4
:101BF00006D0042282630120002283F8202070474F
:101C00000268C06B116821F00E011160116821F0AB
:101C10000101116001211A6C01FA02F242600020F8
:101C200083F82110E8E7000008B590F82130022B76
:101C300003D004238363012008BD03681A6822F0DF
:101C40000E021A601A6822F001021A60174A9342C3
:101C50001FD0143293421ED0143293421DD014323E
:101C600093421DD0143293421DD01432934214BFBC
:101C70004FF080734FF480130D4A5360012380F8B6
:101C80002130002380F82030436B03B198470020B7
:101C9000D2E70123F0E71023EEE74FF48073EBE780
:101CA0004FF48053E8E74FF48033E5E70800024043
:101CB0000000024070B40425C66B026C34680368EF
:101CC00095402542196832D04D0730D51A689606DE
:101CD0005EBF1A6822F004021A603E4A934219D08D
:101CE0001432934218D01432934217D014329342D4
:101CF00017D01432934217D01432934214BF4FF0CE
:101D000080634FF48003344A5360C36A002B5ED073
:101D100070BC18470423F6E74023F4E74FF48063D0
:101D2000F1E74FF48043EEE74FF48023EBE7022521
:101D30009540254235D08D0733D51A68940606D4D0
:101D40001A6822F00A021A60012280F82120214A32
:101D5000934219D01432934218D01432934217D0C0
:101D60001432934217D01432934217D01432934254
:101D700014BF4FF000734FF40013174A5360002351
:101D800080F82030836AC1E70223F6E72023F4E7D6
:101D90004FF40073F1E74FF40053EEE74FF40033D4
:101DA000EBE708259540254211D009070FD51968A2
:101DB00021F00E011960012303FA02F272608363BD
:101DC00080F82130002380F82030036B9EE770BC40
:101DD000704700BF08000240000002402DE9F74FA5
:101DE00000224FF00F0E1646DFF878C15E4B00F16F
:101DF00004080D6835FA06F402D103B0BDE8F08F8F
:101E0000012404FA06F705EA070437EA050572D14A
:101E10004D68032D06D8013D022D7FD8DFE805F07F
:101E20008F949A00122D00F0928066D8112D00F048
:101E30008880FF2C94BF8146C1464FEA8605D9F8B9
:101E4000007088BF203D0EFA05FA27EA0A0702FA59
:101E500005F52F43C9F80070D1F8049019F0805FA0
:101E600049D0DCF8185026F0030745F00105CCF8FE
:101E70001850DCF8185007F1804705F0010501956E
:101E800007F5803706F0030A019D4FEA8A0ABD680C
:101E90000EFA0AFB25EA0B0B344DA8425ED005F57D
:101EA0008065A8425CD005F58065A84214BF032573
:101EB000022505FA0AF545EA0B05BD609D6819F48F
:101EC000801F14BF2543A5439D60DD6819F4001FE2
:101ED00014BF2543A543DD605D6819F4003F14BFBE
:101EE0002543A5435D601D6819F4803F14BF2C4352
:101EF00025EA04041C6001367BE7DFF874904D4549
:101F00000CD015D8A9F580194D4507D009F57029D1
:101F10004D4503D0A9F580194D458AD18A68DAB1BB
:101F2000012A08BF07614FF0080218BF476180E728
:101F3000DFF840904D45F1D009F58039ECE7CA68EB
:101F400077E7CA68043274E7CA68083271E7CA687A
:101F50000C326EE700226CE704226AE70025A8E74E
:101F60000125A6E7001002400004014000080140DE
:101F700000002210000031100AB10161704709040D
:101F8000FBE70000044A08B55169014202D05061E4
:101F9000FFF76AF808BD00BF0004014070B50446B1
:101FA00018B34CF6CC42036841F23C361A6045F255
:101FB00055521A6042685A6082689A60FFF7EAFADE
:101FC00005462268D06810F0030003D14AF6AA2320
:101FD000136070BDFFF7DEFA401BB042F1D92368F1
:101FE000DB689B07EDD00320F3E70120F1E74AF619
:101FF000AA22036800201A60704700002DE9F3410F
:10200000054638B30368DB0710D42B689F075ED4FE
:102010002B68190700F195802B685A0700F1C180E1
:10202000EB69002B40F02C81002029E0904C636884
:1020300003F00C03042B07D0636803F00C03082B98
:102040000AD16368DE0307D523689C03DDD56B687E
:10205000002BDAD1012013E06B68B3F5803F12D179
:10206000236843F480332360FFF794FA064623681D
:102070009803CAD4FFF78EFA801B6428F7D903208F
:1020800002B0BDE8F0819BB9236823F4803323605C
:10209000236823F480232360FFF77CFA0646236835
:1020A0009903B2D5FFF776FA801B6428F7D9E6E7E3
:1020B000B3F5A02F236803D143F480232360CFE737
:1020C00023F480332360236823F48023CBE7684C18
:1020D000636813F00C0F07D0636803F00C03082B40
:1020E00010D16368DA030DD423689B0702D52B69EE
:1020F000012BAFD123686A6923F0F80343EAC203D6
:10210000236085E72A695B4B6AB101221A60FFF7F9
:1021100041FA064623689F07ECD4FFF73BFA801B81
:102120000228F7D9ABE71A60FFF734FA06462368AE
:1021300098077FF56DAFFFF72DFA801B0228F6D9BF
:102140009DE7AA694A4E4B4BE2B10122C3F88024B5
:10215000FFF720FA0446736A9B070DD54FF4FA5235
:10216000454B1B68B3FBF2F3019300BF019B5A1E62
:102170000192002BF9D14FE7FFF70CFA001B022860
:10218000E9D97CE7C3F88024FFF704FA0446736AB0
:102190009F077FF541AFFFF7FDF9001B0228F6D935
:1021A0006DE7334CE369D80024D40127E36943F099
:1021B0008053E361E36903F080530093009B2F4E4B
:1021C0003368D90518D5EB68012B26D1236A43F073
:1021D00001032362FFF7DEF941F288380646236ADD
:1021E0009B073FD5002F3FF41BAFE36923F08053DB
:1021F000E36115E70027E2E7336843F48073336057
:10220000FFF7C8F980463368DA05DCD4FFF7C2F976
:10221000A0EB08006428F6D931E7ABB9236A41F294
:10222000883823F001032362236A23F00403236226
:10223000FFF7B0F90646236A9807D3D5FFF7AAF946
:10224000801B4045F7D91AE7052B236A03D143F0D9
:1022500004032362BAE723F001032362236A23F015
:102260000403B6E7FFF796F9801B4045B7D906E7A8
:1022700000100240000042420000002000700040B8
:102280002A4C626802F00C02082A3ED00022022B7F
:10229000274B1A662CD1FFF77DF906462368990172
:1022A00020D42B6AB3F5803F05D16268A96822F477
:1022B00000320A436260696A62680B4322F4741256
:1022C0001343012263601A4B1A66FFF763F9054650
:1022D00023689A013FF5A8AEFFF75CF9401B02287E
:1022E000F6D9CCE6FFF756F9801B0228D6D9C6E608
:1022F000FFF750F9054623689B017FF595AEFFF780
:1023000049F9401B0228F6D9B9E6012B3FF4A2AEE9
:1023100060682B6A00F480329A427FF49BAE6B6A4D
:1023200000F47010C01A18BF0120A9E60010024086
:10233000000042420D4A536803F00C01082912D1F3
:102340000B48C3F38341DB03405C09D55368094A5A
:10235000C3F340435043084AD35CB0FBF3F07047EB
:10236000064B584370470348704700BF00100240B7
:10237000C951000800127A00C751000800093D0049
:102380002DE9F0410D46044610B90120BDE8F08169
:10239000444A136803F007038B4228D321688E0751
:1023A00030D4CA0743D43F4A136803F00703AB4253
:1023B00065D822683C4D12F0040F6CD1130706D586
:1023C0006B68226923F4605343EAC2036B60FFF732
:1023D000B1FF6B68354AC3F30313D35CD840344B69
:1023E0001860344B1868FFF707F80020CEE7136831
:1023F00023F007030B431360136803F007038B42BA
:10240000C3D1CBE7284B11F0040F1EBF5A6842F42A
:10241000E0625A60080742BF5A6842F460525A604C
:102420005A68A06822F0F00202435A60B9E7626875
:102430001D4E012A33681AD113F4003FA5D07368EA
:1024400041F2883823F0030313437360FFF7A2F8C7
:1024500007467368626803F00C03B3EB820FA2D0E7
:10246000FFF798F8C01B4045F3D903208EE7022AF6
:1024700002D113F0007FE1E713F0020FDEE71368EB
:1024800023F007032B431360136803F00703AB42E9
:102490007FF47BAF8DE76B68E16823F4E0630B4367
:1024A0006B608BE70020024000100240B75100082B
:1024B0000000002008000020044B054A5B68C3F3BD
:1024C0000223D35C034A1068D840704700100240D2
:1024D000AF51000800000020044B054A5B68C3F3BD
:1024E000C223D35C034A1068D840704700100240F2
:1024F000AF510008000000200F2303600B4B5A6807
:1025000002F0030242605A6802F0F00282605A68E8
:1025100002F4E062C2605B68DB0803F4E06303611D
:10252000034B1B6803F007030B6070470010024069
:102530000020024003682DE9F3410546D80720D565
:10254000364CE369D9002AD40126E36943F080536D
:10255000E361E36903F080530193019B304F3B68D3
:10256000DA051ED5236A13F440732ED1236A6A68F4
:1025700023F44073134323621EB1E36923F08053B5
:10258000E3612A68910706D52449A8684B6823F4BB
:10259000404303434B60D30637D4002012E00026AB
:1025A000DCE73B6843F480733B60FEF7F3FF804653
:1025B0003B68DB05D6D4FEF7EDFFA0EB08006428EE
:1025C000F6D9032002B0BDE8F0816A6802F44072D7
:1025D0009A42CBD00120134A236AC2F8400400205B
:1025E00023F44071DF07C2F840042162BED5FEF734
:1025F000D1FF41F288380746236A9807B6D4FEF720
:10260000C9FFC01B4045F7D9DBE7044AE9685368B6
:1026100023F480030B435360BFE700BF0010024068
:102620000070004000004242022808B544D0102843
:1026300003D0012822D0002034E0254B5A681868C6
:1026400010F080702ED0C2F383412248D20348BFDD
:102650005A68405C41BF2049C2F34042895C1F4A2E
:102660005B684CBFB2FBF1F21D4A5B0202FB00F05B
:1026700018D403234000B0FBF3F013E040F2023122
:10268000134A136A1940B1F5817F1ED003F44073D9
:10269000B3F5007F07D149F64040536A13F0020FAB
:1026A00008BF002008BDB3F5407FC4D113684FF2C6
:1026B000244013F4003FF3E7FFF70EFF044B5B6881
:1026C000C3F3813301335B00D5E74FF40040E9E702
:1026D00000100240DB510008D951000800127A00B6
:1026E00000093D00036A026A70B522F0010202622D
:1026F000446882690D6822F073022A438D6823F0D2
:1027000002032B430A4DA8420BD1CD6823F00803E6
:102710002B4324F44074D1E90556354323F00403D8
:102720002C43446082614A684263036270BD00BF0B
:10273000002C0140036A026A70B522F480720262C2
:102740004468C2690D6822F073022A438D6823F43D
:10275000007343EA05230B4DA8420DD1CD6823F445
:10276000006343EA052324F44054D1E90556354378
:1027700023F4806344EA05144460C2614A68C2637A
:10278000036270BD002C0140036A026A30B522F476
:10279000805202624468C2690D6822F4E64242EA4D
:1027A00005228D6823F4005343EA0533064DA84201
:1027B00002BF4D6924F4804444EA85144460C26138
:1027C0004A680264036230BD002C0140704700007B
:1027D00090F83D30012B1CD1022380F83D30036876
:1027E000DA6842F00102DA600B4A934206D0B3F194
:1027F000804F03D0A2F59432934204D19A6802F03C
:102800000702062A03D01A6842F001021A6000206B
:1028100070470120704700BF002C0140034630B5CF
:1028200090F83E0093F83F2093F8425093F84340CD
:10283000C0B2D2B2EDB2E4B2B9B9012844D1012D8F
:1028400012D1022283F83E2083F842201B681A6AC4
:1028500022F001021A621A6A42F0010200201A6292
:102860001A6842F001021A6030BD042911D1012A10
:102870002AD1012C28D1022283F83F2083F843205B
:102880001B681A6A22F010021A621A6A42F01002D9
:10289000E4E7012818D1012AE6D1012DE4D1012C69
:1028A000E2D1022283F83E2083F83F2083F84220C1
:1028B00083F843201B681A6A22F001021A621A6A1E
:1028C00042F001021A62DCE70120CDE77047704751
:1028D00070477047036870B5DD681E690446B1072C
:1028E0000DD5AA070BD56FF002021A6101220277FB
:1028F0009B699B0769D0FFF7EAFF002323777107E5
:1029000010D56A070ED56FF00402236820461A61BD
:10291000022222779B6913F4407F5CD0FFF7D7FF38
:102920000023237733070FD528070DD56FF0080252
:10293000236820461A6104222277DB69990750D068
:10294000FFF7C5FF00232377F20610D5EB060ED55F
:102950006FF01002236820461A6108222277DB6993
:1029600013F4407F43D0FFF7B2FF00232377F00733
:1029700008D5E90706D56FF00102236820461A61E1
:10298000FEF7FEFB320608D52B0606D56FF0800257
:10299000236820461A6100F014FA700608D569060B
:1029A00006D56FF04002236820461A61FFF791FFB9
:1029B000B20622D5AB0620D56FF020022368204650
:1029C000BDE870401A6100F0FBB9FFF77FFF2046B9
:1029D000FFF77EFF91E7FFF779FF2046FFF778FFCB
:1029E0009EE7FFF773FF2046FFF772FFAAE7FFF7A6
:1029F0006DFF2046FFF76CFFB7E770BD154A03680F
:102A0000904206D0B0F1804F03D0A2F594329042AC
:102A100007D14A6823F070031343CA6823F4407354
:102A200013434A6923F08003134303608B68C36236
:102A30000B688362074B984204BF0B690363012351
:102A400043610369DB0742BF036923F001030361AC
:102A5000704700BF002C014010B5044630B390F819
:102A60003D3003F0FF021BB980F83C20FFF7AEFEBB
:102A70000223206884F83D30211DFFF7BFFF0123AA
:102A8000002084F8463084F83E3084F83F3084F8E3
:102A9000403084F8413084F8423084F8433084F880
:102AA000443084F8453084F83D3010BD0120FCE707
:102AB00010B5044630B390F83D3003F0FF021BB967
:102AC00080F83C20FEF7DCFB0223206884F83D30D0
:102AD000211DFFF793FF0123002084F8463084F87E
:102AE0003E3084F83F3084F8403084F8413084F838
:102AF000423084F8433084F8443084F8453084F818
:102B00003D3010BD0120FCE7F8B50D460446002815
:102B10004CD090F83D3003F0FF021BB980F83C2008
:102B2000FEF7C0FB0223214684F83D3051F8040B28
:102B3000836823F4804323F007038360FFF75EFF7D
:102B400081682A688369AE691143AA6823F44073D7
:102B500023F0030342EA06221A432B69EE691B01A4
:102B600043EA0623EE6822F47C4233432E6A22F0C5
:102B7000FC0243EA0633076A6E6913436A6827F06A
:102B8000220742EA0612816017438361012307622C
:102B9000002084F8463084F83E3084F83F3084F8D2
:102BA000423084F8433084F83D30F8BD0120FCE722
:102BB000036A026A70B522F01002026244688269F8
:102BC0000D6822F4E64242EA05228D6823F02003D4
:102BD00043EA05130B4DA8420DD1CD6823F08003C5
:102BE00043EA051324F44064D1E90556354323F044
:102BF000400344EA8504446082614A688263036258
:102C000070BD00BF002C014038B590F83C30044640
:102C1000012B4FD00120082A84F83C003AD006D876
:102C2000BAB1042A26D0002384F83C3038BD0C2ADF
:102C3000F9D12068FFF7A8FDC3690A6943F400636E
:102C4000C361C36923F48063C361C36943EA022398
:102C50002EE02068FFF746FD83690A6943F0080308
:102C60008361836923F00403836183691343836170
:102C70000020D8E72068FFF79BFF83690A6943F4C7
:102C800000638361836923F480638361836943EA1A
:102C90000223ECE72068FFF74DFDC3690A6943F0A2
:102CA0000803C361C36923F00403C361C369134309
:102CB000C361DDE70220B9E710B50124036A01F022
:102CC0001F018C4023EA04030362036A8A401A430B
:102CD000026210BD08B529B990F83E30012B1DD015
:102CE00001202EE0042907D190F83F30012BF7D1C5
:102CF000022380F83F3014E0082907D190F84030D3
:102D0000012BEDD1022380F840300AE090F84130E9
:102D1000012BE5D1022380F8413002E0022380F844
:102D20003E3000680122FFF7C7FF0D4B984209D0E3
:102D3000B0F1804F0BD1836803F00703062B09D154
:102D4000002008BD436C43F400434364F3E7054BA4
:102D50009842F0D0036843F001030360F0E700BF3E
:102D6000002C014000040040FFF7B4BF30B590F8DC
:102D70003C200346012A4FF002001ED01A6883F857
:102D80003D0054680D6824F070042C439068546032
:102D90000A4CA24206D0B2F1804F03D0A4F594347D
:102DA000A24204D1496820F08000014391600122D1
:102DB000002083F83D2083F83C0030BD002C01400A
:102DC00070477047026802F10C0353E8003F23F498
:102DD00090730C3242E8003102680029F2D102F10E
:102DE000140353E8003F23F0010302F1140C4CE8F4
:102DF00000310029F3D1036B012B0BD102F10C033D
:102E000053E8003F23F0100302F10C0C4CE80031B2
:102E10000029F3D1202380F8423000230363704758
:102E200010B504460368C1681A6922F440520A4387
:102E30001A6182680069D9680243606921F4B0515F
:102E400021F00C0102430A43DA605A69A16922F4B5
:102E500040720A435A610E4A934215D1FFF73CFB78
:102E600019234343626820689200B3FBF2F36422A3
:102E7000B3FBF2F102FB11331B013233B3FBF2F36C
:102E800003EB0113836010BDFFF716FBE8E700BFFB
:102E900000380140F7B505460C4617461E462A681D
:102EA000136834EA030301D1002021E0701CF7D03D
:102EB000FEF770FBC01B86421CD3DEB12B68DA68BC
:102EC0005107ECD5802CEAD0402CE8D01A681207C4
:102ED000E5D5002401941A68284601925B680193A5
:102EE000019BFFF76FFF082301206B6485F84040CA
:102EF00003B0F0BD0320FBE710B5044648B390F8DB
:102F0000413003F0FF021BB980F84020FEF71AFAA7
:102F10002423226884F84130D368204623F40053E8
:102F2000D360FFF77DFF236800201A6922F49042E6
:102F30001A615A6922F02A025A61DA6842F4005290
:102F4000DA602023606484F8413084F842306063A2
:102F500010BD0120FCE72DE9F843984690F8413078
:102F60000446202B0E4617463FD100293FD0002AA9
:102F70003DD021230025456480F84130FEF70AFB4F
:102F8000A3688146B3F5805FA784E78403D12369F2
:102F90000BB935461E46E38C9BB253B943464A46AD
:102FA00040212046FFF776FF202350B984F84130B6
:102FB0000AE043464A4680212046FFF76BFF28B1CE
:102FC0002023032084F84130BDE8F88322684EB9FD
:102FD00035F8023BC3F308035360E18C013989B231
:102FE000E184D8E716F8013BF6E70220ECE7012080
:102FF000EAE7704770477047704708B5406A036852
:103000005A6990F84110212912D1120610D50022D8
:10301000C28403F10C0252E8002F22F0C00203F137
:103020000C0C4CE800210029F3D1202280F841202B
:103030005B6990F84220222A05D15B0603D5002364
:10304000C385FFF7BFFE436C43F010034364FFF7F3
:10305000D3FF08BD08B50023406AC385C384FFF7CA
:10306000CBFF08BD08B50123406A4363036B012B06
:1030700004D1818D4908FEF73BF808BDFFF7BBFF7F
:10308000FBE708B503461B68406A1B6813F0200382
:1030900037D1C385026802F10C0353E8003F23F4E3
:1030A00080730C3242E8003103680029F2D103F149
:1030B000140252E8002F22F0010203F1140C4CE834
:1030C00000210029F3D103F1140252E8002F22F06D
:1030D000400203F1140C4CE800210029F3D1202216
:1030E00080F84220026B012A0BD103F10C0252E856
:1030F000002F22F0100203F10C0C4CE800210029F3
:10310000F3D100234363036B012B03D1818DFDF7C2
:10311000EFFF08BDFFF76EFFFBE790F8423007B501
:10312000222B42D181680268B1F5805F836A3ED16B
:10313000016900293ED15268C2F3080223F8022B2C
:103140008362C38D013B9BB2C385002B2DD10268E6
:10315000D16821F02001D160D16821F48071D16063
:10316000516921F001015161202280F8422043631E
:10317000026B012A026827D1036302F10C0353E8B2
:10318000003F23F0100302F10C0C4CE80031002941
:10319000F3D11368DB0605D50191136801935368D9
:1031A0000193019B818DFDF7A3FF03B000BD39B9E9
:1031B000016929B95268D2B21A70836A0133BFE734
:1031C000526802F07F02F7E7FFF714FFEDE7000017
:1031D000036873B51A6804461607D9685D6908D193
:1031E000960668D58D0666D502B0BDE87040FFF73B
:1031F00094BF05F0010001F4907505435BD0D6073C
:1032000005D5CD0542BF636C43F0010363645307EA
:1032100004D518B1636C43F002036364960704D5C8
:1032200018B1636C43F004036364150707D501F01C
:10323000200303431EBF636C43F008036364636CA5
:10324000002B32D0920604D58B0602D52046FFF71C
:1032500064FF266820467369626C03F0400302F045
:10326000080253EA020522D0FFF7ACFD73695E063F
:1032700018D5226802F1140353E8003F23F04003FD
:10328000143242E800310029F3D1E06B50B1744BA5
:103290004363FEF7C9FC40B1E06B436B02B0BDE88D
:1032A000704018472046FFF7A7FE02B070BDFFF739
:1032B000A3FE6564F9E7206B012840F09480D506F1
:1032C00040F19180C80640F18E80002201921A6878
:1032D00001925A680192019A5A6952064DD5E16BE2
:1032E0000A68526892B2002ADFD0A08D9042DCD9E1
:1032F000E2858A69202A36D003F10C0252E8002FB9
:1033000022F4807203F10C0040E800210029F3D17F
:1033100003F1140252E8002F22F0010203F114001D
:1033200040E800210029F3D103F1140252E8002FF4
:1033300022F0400203F1140040E800210029F3D1FB
:10334000202284F84220216303F10C0252E8002F6E
:1033500022F0100203F10C0040E800210029F3D113
:10336000E06BFEF741FC02236363E38DA18DC91A74
:1033700089B22046FDF7BCFE97E7E28DE18D92B25F
:1033800089B2002991D0A18D891A89B200298CD0E7
:1033900003F10C0252E8002F22F4907203F10C05A5
:1033A00045E800200028F3D103F1140252E8002F71
:1033B00022F0010203F1140545E800200028F3D1B2
:1033C000202284F84220206303F10C0252E8002FEF
:1033D00022F0100203F10C0545E800200028F3D18B
:1033E00002236363C5E7160628D50D0626D594F893
:1033F0004120212A7FF459AFA168226AB1F5805F8C
:1034000017D12169A9B932F8021BC1F3080159602B
:103410002262E28C013A92B2E284002A7FF445AF44
:10342000DA6822F08002DA60DA6842F04002DA609C
:103430003BE7511C216212785A60EAE750067FF59B
:1034400034AF4A067FF531AFDA68204622F04002F9
:10345000DA60202384F84130FFF7CBFD25E700BF79
:103460005530000873B51346828500252222044694
:103470008162456480F84220C06B1D4A26688262E2
:103480001C4AC2621C4AC0E90C250A46311DFEF7DF
:103490006FFB236801951A6801925A680192019A9C
:1034A00022695AB103F10C0252E8002F42F48072F3
:1034B00003F10C0040E800210029F3D103F11402CC
:1034C00052E8002F42F0010203F1140040E800210D
:1034D0000029F3D103F1140252E8002F42F0400218
:1034E00003F1140141E800200028F3D102B070BDBF
:1034F0008330000865300008FB2F000873B590F892
:1035000042600446202E22D111B9012002B070BDC4
:10351000002AFAD00123002503634563FFF7A2FFC9
:10352000236B012BF1D12268019513680193536835
:103530000193019B02F10C0353E8003F43F0100399
:1035400002F10C0141E800300028F3D1DEE702204F
:10355000DCE708B500F04AFA002008BD70B5054662
:1035600046690B46D0E900102A69B5F9084086B0D3
:1035700076B1AD6965B1842C0CBF00240334CDE96C
:103580000165009400F0CCF90590059806B070BD77
:10359000842C0CBF0024033405ADCDE9004592B264
:1035A00000F0F6F90128F0D00020EFE74FF0FF32ED
:1035B00000F10803C0E902234360036100230360B4
:1035C000704700230361704743689A684B608A60C4
:1035D000516099600368086101330360704730B53A
:1035E0000C68631C0AD103695A684A6091608B6059
:1035F0005960036808610133036030BD00F10802BF
:10360000134652681568A542FAD9EDE70369D0E977
:1036100001128A6051605968814208BF5A600022D5
:1036200002611A68013A1A60186870472DE9F04182
:10363000044600F0B7FC2F4B2F4E1A682F4F013273
:103640001A603568002D4AD134601B68012B1FD1E8
:10365000B84640460135FFF7A9FF072D08F11408C9
:10366000F7D1DFF89C80274D4046FFF79FFF2846A3
:10367000FFF79CFF2448FFF799FF2448FFF796FFC8
:103680002348FFF793FF234BC3F80080224B1D60B4
:10369000224A234913680868013313600123E26A50
:1036A0009340034314200B6000FB0270211DFFF7C1
:1036B0008BFF00F097FC1B4B1B6873B13368DA6A11
:1036C000E36A9A4209D24FF0E0234FF08052C3F8E8
:1036D000042DBFF34F8FBFF36F8FBDE8F081114B07
:1036E0001B68002BD4D13368DA6AE36A9A4298BF28
:1036F0003460CDE7AC050020AC0600202006002099
:103700000C060020F8050020DC050020C80500207C
:10371000B0050020F4050020F005002090050020F1
:10372000A4050020A0050020F8B51A4B1A4D064646
:103730001C6828680F460430FFF768FF40B92A6804
:103740001649D06A01220B68824023EA02030B600B
:10375000731C07D137B1296811480431BDE8F8401E
:10376000FFF732BF2B68A4195C6007D30D4B1868B4
:103770002968BDE8F8400431FFF731BF0A4B1868EB
:1037800029680431FFF72BFF084B1A68A24288BF53
:103790001C60F8BDA8050020AC060020A405002090
:1037A000B0050020F0050020F40500208C05002065
:1037B000064A13681968064B19B94FF0FF321A60B0
:1037C00070471268D268D2685268F8E7F4050020A2
:1037D0008C05002010B504464C3000F0BDFE94F876
:1037E0009D303BB9206B00F0A1FD2046BDE81040A4
:1037F00000F09CBD012BF8D0022B08D04FF05003F5
:1038000083F31188BFF36F8FBFF34F8FFEE710BDB7
:1038100080B5134C134F144D236873B9134B1B68B9
:10382000012BF8D94FF0E0234FF08052C3F8042D5C
:10383000BFF34F8FBFF36F8FEDE700F0B3FBFB6873
:10384000DE68301DFFF7E2FE2B68013B2B6023682A
:10385000013B236000F0C6FB3046FFF7BBFFDBE710
:10386000C4050020C8050020AC050020200600206B
:103870002DE9F04702F18042DDE90984256B013A28
:1038800005EB820506461F4625F00705002941D0B5
:103890004B1E04F133020F3113F8010F02F8010F30
:1038A00008B18B42F8D1002384F84330089B4FF0D5
:1038B000000A062B28BF0623201DE3626364C4F8B8
:1038C00048A09946FFF77DFE04F11800FFF779FE46
:1038D0004C22C9F107035146A361C4F898A0A0186F
:1038E0002461646284F89CA000F01CFE0B4B3146FE
:1038F00003F168022365D033626528463A46A36522
:1039000000F026FB2060B8F1000F01D0C8F800409D
:10391000BDE8F08784F83410C8E700BFD812002053
:1039200070B586B0DDE90B5445B94FF0500383F311
:103930001188BFF36F8FBFF34F8FFEE744B94FF08D
:10394000500383F31188BFF36F8FBFF34F8FFEE7F0
:10395000A0260596059EA02E08D04FF0500383F3B5
:103960001188BFF36F8FBFF34F8FFEE725630225EA
:1039700084F89D5004AD01950A9D02940095059E22
:10398000FFF776FF2046FFF751FE049806B070BDA2
:103990002DE9F043074685B09000884616469946C3
:1039A00000F02CFC054620B94FF0FF3005B0BDE813
:1039B000F083A02000F022FC044698B1002380F898
:1039C0009D300D9B056301930C9B3246414602904E
:1039D000009338464B46FFF74BFF2046FFF726FE85
:1039E0000120E3E7284600F0A1FCDDE710B5002444
:1039F00088B007AA06A905A8CDE90544FCF7CAFEC8
:103A0000059B079A0293069B1249CDE90043124891
:103A10002346FFF785FFD0B14FF0500383F31188A1
:103A2000BFF36F8FBFF34F8F0C4B0D4A1B684C33A6
:103A300013604FF0FF320B4B1A6001220A4B1A60E1
:103A40000A4B1C6008B0BDE8104000F02BBB08B06A
:103A500010BD00BF7751000811380008AC060020E7
:103A6000100000208C050020A0050020A8050020E3
:103A7000024A136801331360704700BF88050020B5
:103A8000014B1868704700BFA8050020404B2DE986
:103A9000F74F1B68002B74D13E4B1C6801341C602F
:103AA000BCB93D4B1A68126842B14FF0500383F322
:103AB0001188BFF36F8FBFF34F8FFEE7374A196846
:103AC000106818601160364A136801331360FFF7FD
:103AD0006FFE344E00253368334F9C42DFF8CC80B4
:103AE0000AD3DFF8B4B0DFF8C8A0DBF800301B68F9
:103AF000A3B94FF0FF3333601422D8F80030DB6AEB
:103B00005343F8582B4B1B68012898BF002B14BF58
:103B100001200020284303B0BDE8F08FDBF800301F
:103B2000DB68D3F80C90D9F80420944201D23260BB
:103B3000E2E709F1040318460193FFF767FDD9F89E
:103B400028201AB109F11800FFF760FD0123D9F808
:103B50002C00DAF8001003FA00F20A43CAF8002039
:103B6000142209F1040102FB0070FFF72DFDD8F8C3
:103B70000010D9F82C20CB6A9A4228BF45F00105E5
:103B8000B3E70D4A0020136801331360C3E700BF99
:103B900088050020A8050020F4050020F00500207D
:103BA000940500208C05002020060020AC06002093
:103BB000A4050020980500209C0500202DE9F8436D
:103BC000314C236843B94FF0500383F31188BFF39E
:103BD0006F8FBFF34F8FFEE700F0E4F92368013BDE
:103BE000236024682CB1002400F0FCF92046BDE8D5
:103BF000F883264B1B68002BF5D0254D254EDFF8AA
:103C000098801FE0EB680127DC6804F1040904F1E7
:103C10001800FFF7FBFC4846FFF7F8FC1420E26AA7
:103C2000316807FA02F30B4300FB02804946336018
:103C3000FFF7CAFC194BE26A1B68DB6A9A4201D3A0
:103C4000174B1F602B68002BDCD10CB1FFF7B0FDC8
:103C5000144D2C6844B10127114EFFF717FF00B136
:103C60003760013CF9D12C600D4B1B68002BBAD09A
:103C70004FF0E0234FF08052C3F8042DBFF34F8F75
:103C8000BFF36F8F0124AFE788050020AC0500204B
:103C9000DC050020A405002020060020AC06002042
:103CA000980500209C05002010B540B94FF0500346
:103CB00083F31188BFF36F8FBFF34F8FFEE741B9D6
:103CC0004FF0500383F31188BFF36F8FBFF34F8F13
:103CD000FEE7184B1B6843B14FF0500383F3118884
:103CE000BFF36F8FBFF34F8FFEE7FFF7C1FE124B9D
:103CF00004681A6863182CBF0121002194420FD96F
:103D000079B90360FFF75AFF48B94FF0E0234FF04D
:103D10008052C3F8042DBFF34F8FBFF36F8F10BDD8
:103D200009B99A42EDD203600021981AFFF7FCFC12
:103D3000E8E700BF88050020A8050020174B1A6897
:103D4000174B12B101221A6070471A60154B1B689D
:103D5000B3FA83F31422DBB2C3F11F0353431248B7
:103D6000C258C11842B94FF0500383F31188BFF312
:103D70006F8FBFF34F8FFEE74A68083352680344E2
:103D80009A424A6008BF5268084B08BF4A60D2682E
:103D90001A601B68064A4C33136070478805002080
:103DA00098050020A405002020060020AC06002075
:103DB0001000002070B5194C06460D4600F0F2F8D0
:103DC0002368D3F898308BB90121236883F89C10BD
:103DD00065B12846FFF7A8FC4FF0E0234FF0805272
:103DE000C3F8042DBFF34F8FBFF36F8F00F0FAF8C5
:103DF00000F0D8F82368D3F8985025B1236856B15D
:103E00000022C3F898200022236883F89C2000F049
:103E1000E9F8284670BD6A1EF3E700BFAC06002033
:103E20002DE9F0410E46044640B94FF0500383F3AC
:103E30001188BFF36F8FBFF34F8FFEE700F08AF951
:103E4000EFF311874FF0500383F31188BFF36F8FA7
:103E5000BFF34F8F022394F89C2084F89C30D4F851
:103E60009830012A03F10103D5B2C4F898302AD161
:103E7000A36A43B14FF0500383F31188BFF36F8FF0
:103E8000BFF34F8FFEE7144B1B6803BB04F104081C
:103E90004046FFF7BBFB114A1420E36A11689D40BE
:103EA0000D43414615600E4A00FB0320FFF78CFBD3
:103EB0000C4BE26A1B68DB6A9A4204D9012306B103
:103EC0003360094A136087F31188BDE8F081074821
:103ED00004F11801EAE700BF88050020A4050020CE
:103EE00020060020AC06002098050020DC050020FC
:103EF00006480068006880F3088862B661B6BFF3C0
:103F00004F8FBFF36F8F00DF00BF000008ED00E0B0
:103F1000002382B001930D4B1B68013308D04FF092
:103F2000500383F31188BFF36F8FBFF34F8FFEE70A
:103F30004FF0500383F31188BFF36F8FBFF34F8FA0
:103F4000019B002BFCD002B0704700BF0C0000208A
:103F50004FF0807340F8043C054B21F0010140F81C
:103F6000081C40F80C3C40F8202C4038704700BF3B
:103F7000113F0008000000000000000000000000E9
:103F8000074B19680868B0E8F00F80F30988BFF3A1
:103F90006F8F4FF0000080F311884EF00D0E7047C8
:103FA000AC0600204FF0500383F31188BFF36F8FEE
:103FB000BFF34F8F0A4A13680133012B13600ED1F0
:103FC0004FF0E023D3F8043DDBB243B14FF0500390
:103FD00083F31188BFF36F8FBFF34F8FFEE77047F6
:103FE0000C000020084A136843B94FF0500383F3D4
:103FF0001188BFF36F8FBFF34F8FFEE7013B136054
:104000000BB983F3118870470C00002000000000FA
:10401000EFF30980BFF36F8F0D4B1A6820E9F00FA3
:10402000106008B54FF0500080F31188FFF786FE4E
:104030004FF0000080F31188BDE808401968086857
:10404000B0E8F00F80F30988BFF36F8F704700BFAF
:10405000AC06002008B54FF0500383F31188BFF37E
:104060006F8FBFF34F8FFFF711FD28B14FF0E023A3
:104070004FF08052C3F8042D002383F3118808BD4C
:104080004FF0E02200234FF47A7113619361044BE7
:104090001B68B3FBF1F3013B5361072313617047C6
:1040A0000000002013B5274B1A78D2B20192FF22EC
:1040B0001A701B78244ADBB28DF803309DF8033068
:1040C00003F0500313700723204A13609DF8030088
:1040D000591E00060AD4032B11D04FF0500383F36E
:1040E0001188BFF36F8FBFF34F8FFEE79DF803304A
:1040F00011605B00DBB28DF803300B46E6E74FF44E
:1041000040731360019B0F4ADBB213704FF0E02342
:104110000024D3F8202D42F47002C3F8202DD3F8E8
:10412000202D42F07042C3F8202DFFF7A9FF084B65
:104130001C60FFF7DDFEFFF701FE2046FFF7E8FEFB
:1041400002B010BD00E400E0B4060020B00600207C
:104150000C000020EFF305830F2B0ED9114A9B5C56
:10416000114A12789A4208D94FF0500383F311880C
:10417000BFF36F8FBFF34F8FFEE74FF0E0230B4A83
:10418000D3F80C3D126803F4E063934208D94FF072
:10419000500383F31188BFF36F8FBFF34F8FFEE798
:1041A000704700BFF0E300E0B4060020B006002036
:1041B00010B5104B1A461B688342FBD35468111983
:1041C000884201BF416810460919516044680119CD
:1041D0008B420CD1084909688B4203D059682144AD
:1041E000416019689042016018BF106010BD194607
:1041F000F8E700BFD0060020CC0600202DE9F041F2
:104200000446FFF735FC4249424D0B680BBB424A5E
:1042100056071FBFD01D20F0070002F54062131A99
:104220000CBF4FF440630246002013443B4E083B52
:1042300023F0070370603260C3E90000981AC2E9F6
:1042400000300B60364B1860364B18604FF000435F
:104250002B602E68264255D1002C46D004F108036D
:1042600060071CBF23F007030833002B4AD02D4FF3
:104270003C689C4246D3294A15686868984204D233
:10428000D5F800C0BCF1000F15D10968A94239D09A
:104290002968D2F800801160C21A102A12D9E818D1
:1042A00041070BD04FF0500383F31188BFF36F8F9A
:1042B000BFF34F8FFEE72A466546DEE742606B603C
:1042C000FFF776FF00236A681549A41A1643164AB9
:1042D00008682B601368844203F101033C6038BF17
:1042E0000C606E6008F108041360FFF767FC630759
:1042F0000AD04FF0500383F31188BFF36F8FBFF3E1
:104300004F8FFEE70024F0E72046BDE8F08100BFB4
:10431000CC060020B8060020D8060020D0060020D9
:10432000C4060020C8060020C006002010B50446C0
:1043300090B31A4A50F8043C1268134208D14FF067
:10434000500383F31188BFF36F8FBFF34F8FFEE7E6
:1043500050F8081C41B14FF0500383F31188BFF3AC
:104360006F8FBFF34F8FFEE723EA020340F8043C50
:10437000FFF77EFB0A4A54F8043C1168A4F10800D8
:104380000B441360FFF714FFBDE81040054A1368A3
:1043900001331360FFF712BC10BD00BFB806002048
:1043A000C8060020BC0600200A22002100F07AB8CE
:1043B000242B2DE9F0478646904601D8012B06D1E3
:1043C00000F028F9162303600020BDE8F0870D46B1
:1043D00033482A4615F8014B065D16F00806F8D159
:1043E0002D2C10D101262C78951C33F0100215D1FC
:1043F000302C0DD12A7802F0DF02582A08D16C78CF
:10440000023510230AE02B2C04BF2C78951CECE716
:10441000002BF6D1302C14BF0A230823002206F10A
:10442000004C0CF1FF3CBCFBF3F9104603FB19CA2E
:10443000A4F13007092F0FD83C46A3421BDD571CBF
:1044400007D0814514D301D1A24511DB012200FB25
:10445000034015F8014BEBE7A4F14107192F01D8F0
:10446000373CEAE7A4F16107192F04D8573CE4E789
:104470004FF0FF32EDE7531C08D122236046CEF8FF
:104480000030B8F1000FA0D0691E06E006B140422E
:10449000B8F1000F99D0002AF6D1C8F8001094E7BF
:1044A000EC51000813460A46014602480068FFF72F
:1044B0007FBF00BF100000200CB430B5184B0C1E9D
:1044C0001D689DB008DA8B234FF0FF302B601DB0C4
:1044D000BDE8304002B070474FF40273ADF81430BD
:1044E0004FF000031B930CBF234604F1FF330493EA
:1044F00007934FF6FF7302900690ADF816302846EA
:1045000021AB209A02A9019300F01CFA431CBCBF06
:104510008B232B60002CDAD00022029B1A70D6E786
:104520001000002003460244934200D1704703F874
:10453000011BF9E710B56AB10139841810F8012B95
:1045400011F8013F9A4203D1A04201D0002AF5D1CF
:10455000D01A10BD1046FCE72D4B70B51B68044601
:10456000834253D0C3691BB3DB6863B10025E369A1
:10457000DB685959B1B90435802DF8D1E36920467B
:10458000D96800F089F8E369196811B1204600F094
:1045900083F8E3699D685DB1294620462D6800F0E7
:1045A0007BF8F8E70E68204600F076F83146E1E740
:1045B000616911B1204600F06FF8E16911B1204640
:1045C00000F06AF8216B11B1204600F065F8616BCC
:1045D00011B1204600F060F8A16B11B1204600F047
:1045E0005BF8A16C11B1204600F056F8616C11B176
:1045F000204600F051F8E16A11B1204600F04CF875
:10460000236A1BB12046BDE87040184770BD00BF4B
:1046100010000020014B1868704700BF10000020F8
:1046200070B500260C4D0D4B5B1B9C10A64209D1AA
:10463000002600F085FC0A4D0A4B5B1B9C10A6422D
:1046400005D170BD55F8043B98470136EEE755F8A3
:10465000043B98470136F2E7F4520008F452000890
:10466000F4520008F852000870477047034611F8EA
:10467000012B03F8012B002AF9D170470A4491421B
:1046800000F1FF3300D1704710B511F8014B914292
:1046900003F8014FF9D110BD38B50546002940D0C7
:1046A00051F8043C0C1F002BB8BFE41800F0DEF8F2
:1046B0001C4A136833B9636014602846BDE838406B
:1046C00000F0DAB8A34208D9206821188B4201BF54
:1046D00019685B6809182160EDE71A465B680BB141
:1046E000A342FAD911685018A0420BD120680144A6
:1046F000501883421160E0D118685B68084410606C
:104700005360DAE702D90C232B60D6E72068211822
:104710008B4201BF19685B680918216063605460AF
:10472000CBE738BD1C14002070B50F4E0C46316825
:10473000054611B900F0B0FB30602146284600F074
:10474000ABFB431C03D14FF0FF34204670BDC41CAB
:1047500024F00304A042F8D0211A284600F09CFB64
:104760000130F2D1EFE700BF181400202DE9F84323
:10477000CD1C25F0030508350C2D38BF0C25002D68
:10478000064601DBA94204D90C2333600020BDE8B2
:10479000F883DFF8D48000F069F8D8F800301C46C0
:1047A00044BB29463046FFF7BFFF431C044658D19F
:1047B000D8F800402746002F43D1002C4BD0236867
:1047C0003946304604EB030900F066FB814542D1CF
:1047D000216830466D1A2946FFF7A6FF01303AD00E
:1047E00023682B442360D8F800305A6862BBC8F8AD
:1047F00000700FE02268521B20D40B2A17D96119D0
:10480000A342256018BF5960636808BFC8F800104C
:1048100062514B60304600F02FF804F10B00231D6D
:1048200020F00700C21A1CBF1B1AA350AFE7626832
:10483000A3420CBFC8F800205A60EBE72346646827
:10484000AEE73C467F68B6E71A465B68A342FBD1F9
:1048500000235360DEE70C233046336000F00CF891
:1048600094E70560D6E700BF1C1400200148FFF75D
:10487000FBBE00BF141400200148FFF7F6BE00BFC6
:10488000141400202DE9F0471F468E688246BE4270
:104890000C469046334653D8B1F90C0010F4906F93
:1048A0002BD065692368096905EB4505A3EB010970
:1048B00005EBD5757B1C6D104B44AB422A4684BF7B
:1048C0001D462A46430527D511465046FFF74EFFA1
:1048D000064658B34A462169FFF7D0FEA38923F460
:1048E000906343F08003A38126614E4426603B46DB
:1048F0003E466561A5EB0905A5601F463A4641465F
:10490000206800F0AFFA0020A3689B1BA360236817
:104910003B442360BDE8F087504600F0DBFA0646D2
:104920000028E1D150462169FFF7B6FE0C23CAF8F2
:104930000030A3894FF0FF3043F04003A381E9E743
:104940003E46DBE72DE9F0471F468B8906461B06EE
:104950000D4614469CB010D50B6973B94021FFF782
:1049600005FF2860286130B90C2333604FF0FF3019
:104970001CB0BDE8F08740236B610023099320231E
:104980008DF8293030234FF001080397644F8DF8DC
:104990002A302346994613F8012B0AB1252AF9D16A
:1049A000B9EB040A0BD05346224629463046FFF79E
:1049B00069FF013000F0A480099A5244099299F8E5
:1049C0000030002B00F09C8000234FF0FF32CDE937
:1049D000052309F10109049307938DF853301A93C5
:1049E0004C46052214F8011B4D4800F065FA049B63
:1049F000D0B9D80644BF20228DF85320190744BFF0
:104A00002B228DF8532099F800202A2A13D04C46E7
:104A100000204FF00A0C079A214611F8013B303B69
:104A2000092B49D968B913E0C01B08FA00F01843F4
:104A3000A1460490D4E7039A111D12680391002A3D
:104A400001DB079204E0524243F002030792049311
:104A500023782E2B0AD163782A2B32D1039B023480
:104A60001A1D1B68039243EAE3730593DFF8B490C1
:104A700003224846217800F01FFA38B14022049BF7
:104A8000A0EB0900824013430134049314F8011B86
:104A9000062225488DF8281000F00EFA002835D09F
:104AA000224818BB039B073323F007030833039303
:104AB000099B034409936CE70C4601200CFB02326E
:104AC000AAE700234FF00A0C19460134059320464B
:104AD00010F8012B303A092A03D9002BC6D00591D2
:104AE000C4E7044601230CFB0121F0E703AB00936C
:104AF0002A4630460E4B04A9AFF30080421CD7D1A2
:104B0000AB895B063FF532AF099831E703AB009301
:104B10002A463046064B04A900F07EF8EEE700BFB7
:104B20007C510008825100088651000800000000F6
:104B3000854800082DE9F047164698468A680B69B3
:104B400007469342B8BF1346336091F843200C46A2
:104B5000DDF820900AB1013333602368990642BF23
:104B6000336802333360256815F0060506D104F179
:104B7000190AE36832689B1AAB422BDC94F8433085
:104B80002268003B18BF0123920630D441463846C4
:104B900004F14302C847013023D02368226903F09F
:104BA0000603042B14BF002533684FF0000608BF2E
:104BB000E56804F11A0408BFED1A54F8123C08BF66
:104BC00025EAE5759342C4BF9B1AED18B5421AD188
:104BD000002008E00123524641463846C8470130CC
:104BE00003D14FF0FF30BDE8F0870135C1E7302039
:104BF000E11881F843005A1C94F84510224402330E
:104C000082F84310C2E70123224641463846C8478E
:104C10000130E6D00136D9E72DE9F0430D7E85B0AD
:104C2000782D904607460C4699460C9E01F14302AA
:104C300007D8622D0AD8002D00F0D780582D00F03B
:104C4000BC8004F1420684F842503BE0A5F16303C6
:104C5000152BF6D801A151F823F000BFB54C000880
:104C6000C94C0008434C0008434C0008434C000862
:104C7000434C0008C94C0008434C0008434C000852
:104C8000434C0008434C0008D14D0008F34C000889
:104C9000834D0008434C0008434C0008F34D0008C6
:104CA000434C0008F34C0008434C0008434C0008F8
:104CB0008B4D000833681A1D1B68326004F14206F0
:104CC00084F842300123A1E033682068191D316067
:104CD000060601D51D6803E04506FBD5B3F9005073
:104CE000002D03DA2D236D4284F843300A235B48FC
:104CF00011E021683368080653F8045B02D44906C2
:104D000048BFADB23360237E54486F2B5CD108237B
:104D1000002184F843106668002EA66005DB216838
:104D20002E4321F00401216050D01646B5FBF3F16B
:104D300003FB115C10F80CC006F801CDAC466345CE
:104D40000D46F3D9082B0BD12368DB0708D523695F
:104D500061689942DEBF302306F8013C06F1FF3658
:104D6000921B2261434621463846CDF8009003AAA3
:104D7000FFF7E0FE01304ED14FF0FF3005B0BDE847
:104D8000F083236843F0200323607825344884F8B7
:104D900045502368316813F0800F51F8045B03D14C
:104DA00013F0400F18BFADB23160D90744BF43F0D4
:104DB000200323601DB11023AAE72848E7E72368F2
:104DC00023F020032360F6E70A23A1E71646B9E79C
:104DD00033682568181D616930602E061B6801D58F
:104DE000196002E06806FBD519800023164623618E
:104DF000B8E7336800211A1D32601E6862683046C9
:104E000000F05AF808B1801B6060636823610023DA
:104E100084F84330A6E73246414638462369C847FE
:104E20000130A9D023689B0713D4E068039B984204
:104E3000B8BF1846A2E70123324641463846C84764
:104E4000013099D00135E36803995B1AAB42F2DC7B
:104E5000EBE7002504F11906F5E700BF8D510008C6
:104E60009E510008884210B501EB020402D9844229
:104E7000234607D8431EA14207D011F8012B03F89F
:104E8000012FF8E70244824200D110BD13F8011D42
:104E900002F8011DF7E7000038B50023054D044670
:104EA00008462B60FCF712FB431C02D12B6803B1B0
:104EB000236038BD10140020034610B5C9B2024467
:104EC0009342184601D1002003E0047801338C425C
:104ED000F6D110BD2DE9F041074614460D4621B923
:104EE0001146BDE8F041FFF741BC2AB9FFF7D4FBFA
:104EF00025462846BDE8F08100F01AF884420646AF
:104F000002D8B4EB500FF4D821463846FFF72EFCF8
:104F1000804608B94546ECE7B4422246294628BFF8
:104F20003246FFF7ABFB29463846FFF7B5FBF1E702
:104F300051F8043C181F002BBCBF0B58C018704719
:104F4000F8B500BFF8BC08BC9E467047F8B500BF76
:084F5000F8BC08BC9E46704746
:104F58006D510008AD0700080000000000000000C7
:104F6800000100000000000000000000615100087E
:104F7800B10A000802000000000000000001000063
:104F880000000000000000005245534554005379CA
:104F98007374656D206661756C747320636C6561EC
:104FA8007265642E2052656164790D0A004572723B
:104FB8006F722120416374697665204661756C744F
:104FC800733A2030782530326C582E2053656E6441
:104FD8002052455345542E0D0A0053544F50005348
:104FE80074617475733A204D6F746F722073746FA7
:104FF800707065642C205461726765743D3020526E
:10500800504D2C206D6F746F722073706565643D10
:1050180025642052504D0D0A005374617475733A1B
:10502800204272616B696E6720284630290D0A009C
:105038005374617475733A20466F72776172642C89
:10504800205461726765743D25642052504D2C20B0
:105058006D6F746F722073706565643D25642052AE
:10506800504D0D0A00556E6B6E6F776E20636F6D35
:105078006D616E640D0A005374617475733A204251
:1050880072616B696E6720285230290D0A005374CB
:10509800617475733A20526576657273652C205475
:1050A80061726765743D25642052504D2C206D6FE8
:1050B800746F722073706565643D25642052504D8D
:1050C8000D0A0043524153480053696D756C617471
:1050D800696E6720666174616C2063726173680D24
:1050E8000A005B54454C454D455452595D20543A8D
:1050F800256C752052504D3A2564205447543A2562
:105108006420493A25642E253032644120464155B1
:105118004C54533A30782530326C580D0A000D0A39
:105128002D2D2D2053595354454D20424F4F542077
:105138002F205245534554202D2D2D0D0A000D0AC0
:1051480021212120454D455247454E43592053546E
:105158004F50202121210D0A00436F6E74726F6C2D
:105168005461736B004D6F746F725461736B0049B7
:10517800444C4500232D302B2000686C4C0065669C
:105188006745464700303132333435363738394190
:1051980042434445460030313233343536373839A6
:1051A8006162636465660000000000010203040098
:1051B80000000000000000010203040607080901BE
:1051C8000202030405060708090A0B0C0D0E0F104E
:1051D80010010202030405060708090A0B0C0D0E4C
:1051E8000F101000202020202020202020282828F0
:1051F8002828202020202020202020202020202097
:1052080020202020881010101010101010101010DE
:1052180010101010040404040404040404041010FE
:10522800101010101041414141414101010101019B
:105238000101010101010101010101010101011047
:105248001010101010424242424242020202020270
:105258000202020202020202020202020202021018
:1052680010101020000000000000000000000000E6
:105278000000000000000000000000000000000026
:105288000000000000000000000000000000000016
:105298000000000000000000000000000000000006
:1052A80000000000000000000000000000000000F6
:1052B80000000000000000000000000000000000E6
:1052C80000000000000000000000000000000000D6
:1052D80000000000000000000000000000000000C6
:0452E80000000000C2
:0852EC0064AEFF7F0100000029
:0452F4003501000878
:0452F8001101000898
:1052FC0000127A000100000010000000AAAAAAAA5D
:10530C001400002000000000D812002040130020E0
:10531C00A8130020000000000000000000000000A6
:10532C000000000000000000000000000000000071
:10533C000000000000000000000000000000000061
:10534C000000000000000000000000000000000051
:040000050800150DCD
:00000001FF
