:020000040800F2
:100000000028002029110008B5100008B7100008CA
:10001000B9100008BB100008BD1000080000000067
:10002000000000000000000000000000BF100008F9
:10003000C110000800000000C3100008C51000082F
:100040007111000871110008711100087111000888
:10005000711100087111000871110008C910000821
:10006000711100087111000871110008D110000809
:100070007111000871110008711100087111000858
:100080007111000871110008711100087111000848
:100090007111000871110008711100087111000838
:1000A0007111000871110008711100087111000828
:1000B00071110008711100080000000071110008A2
:1000C000711100080000000000000000711100081C
:1000D00000000000DD1000087111000800000000A1
:1000E0007111000871110008711100080000000072
:1000F0000000000000000000000000000000000000
:0C01000000000000000000005FF808F1A3
:10010C0010B5054C237833B9044B13B10448AFF345
:10011C0000800123237010BD5C0000200000000053
:10012C001C38000808B5034B1BB103490348AFF357
:10013C00008008BD00000000600000201C38000892
:10014C00034613F8012B002AFBD1181A013870470B
:10015C0080F0004002E000BF81F0004142001FBF70
:10016C005FEA410392EA030F7FEA226C7FEA236C79
:10017C006AD04FEA1262D2EB1363C1BFD21841406E
:10018C0048404140B8BF5B42192B88BF704710F004
:10019C00004F40F4000020F07F4018BF404211F0A7
:1001AC00004F41F4000121F07F4118BF494292EA0F
:1001BC00030F3FD0A2F1010241FA03FC10EB0C003B
:1001CC00C3F1200301FA03F100F0004302D54942C8
:1001DC0060EB4000B0F5000F13D3B0F1807F06D375
:1001EC0040084FEA310102F10102FE2A51D2B1F16D
:1001FC00004F40EBC25008BF20F0010040EA030062
:10020C007047490040EB0000013A28BFB0F5000FE1
:10021C00EDD2B0FA80FCACF1080CB2EB0C0200FA97
:10022C000CF0AABF00EBC25052421843BCBFD040E6
:10023C001843704792F0000F81F4000106BF80F460
:10024C0000000132013BB5E74FEA41037FEA226C23
:10025C0018BF7FEA236C21D092EA030F04D092F0EE
:10026C00000F08BF0846704790EA010F1CBF002022
:10027C00704712F07F4F04D1400028BF40F000407F
:10028C00704712F100723CBF00F50000704700F09F
:10029C00004343F0FE4040F4000070477FEA2262C6
:1002AC0016BF08467FEA23630146420206BF5FEA97
:1002BC00412390EA010F40F4800070474FF0000397
:1002CC0004E000BF10F0004348BF40425FEA000C5E
:1002DC0008BF704743F0964301464FF000001CE006
:1002EC0050EA010208BF70474FF000030AE000BF5C
:1002FC0050EA010208BF704711F0004302D540429A
:10030C0061EB41015FEA010C02BF8446014600200B
:10031C0043F0B64308BFA3F18053A3F50003BCFA26
:10032C008CF2083AA3EBC25310DB01FA02FC6344D3
:10033C0000FA02FCC2F12002BCF1004F20FA02F2DA
:10034C0043EB020008BF20F00100704702F12002CD
:10035C0001FA02FCC2F1200250EA4C0021FA02F22E
:10036C0043EB020008BF20EADC7070474FF0FF0C33
:10037C001CEAD0521EBF1CEAD15392EA0C0F93EA2E
:10038C000C0F6FD01A4480EA010C400218BF5FEAD0
:10039C0041211ED04FF0006343EA501043EA511143
:1003AC00A0FB01310CF00040B1F5000F3EBF49003D
:1003BC0041EAD3715B0040EA010062F17F02FD2A41
:1003CC001DD8B3F1004F40EBC25008BF20F0010024
:1003DC00704790F0000F0CF0004C08BF49024CEA3B
:1003EC00502040EA51207F3AC2BFD2F1FF0340EACD
:1003FC00C250704740F400004FF00003013A5DDC3E
:10040C0012F1190FDCBF00F000407047C2F100027E
:10041C00410021FA02F1C2F1200200FA02FC5FEA6B
:10042C00310040F1000053EA4C0308BF20EADC70B5
:10043C00704792F0000F00F0004C02BF400010F427
:10044C00000F013AF9D040EA0C0093F0000F01F0D4
:10045C00004C02BF490011F4000F013BF9D041EAF6
:10046C000C018FE70CEAD15392EA0C0F18BF93EAF8
:10047C000C0F0AD030F0004C18BF31F0004CD8D122
:10048C0080EA010000F00040704790F0000F17BFA9
:10049C0090F0004F084691F0000F91F0004F14D0EF
:1004AC0092EA0C0F01D142020FD193EA0C0F03D147
:1004BC004B0218BF084608D180EA010000F000404A
:1004CC0040F0FE4040F40000704740F0FE4040F425
:1004DC00400070474FF0FF0C1CEAD0521EBF1CEAC4
:1004EC00D15392EA0C0F93EA0C0F69D0A2EB0302E2
:1004FC0080EA010C49024FEA402037D04FF080537C
:10050C0043EA111143EA10130CF000408B4238BF40
:10051C005B0042F17D024FF4000C8B4224BF5B1A4E
:10052C0040EA0C00B3EB510F24BFA3EB510340EA9C
:10053C005C00B3EB910F24BFA3EB910340EA9C004A
:10054C00B3EBD10F24BFA3EBD10340EADC001B01BA
:10055C0018BF5FEA1C1CE0D1FD2A3FF650AF8B425E
:10056C0040EBC25008BF20F0010070470CF0004C6B
:10057C004CEA50207F32C2BFD2F1FF0340EAC25096
:10058C00704740F400004FF00003013A37E792F057
:10059C00000F00F0004C02BF400010F4000F013AB5
:1005AC00F9D040EA0C0093F0000F01F0004C02BFB0
:1005BC00490011F4000F013BF9D041EA0C0195E719
:1005CC000CEAD15392EA0C0F08D142027FF47DAFB2
:1005DC0093EA0C0F7FF470AF084676E793EA0C0FA2
:1005EC0004D14B023FF44CAF08466EE730F0004CA0
:1005FC0018BF31F0004CCAD130F000427FF45CAF30
:10060C0031F000437FF43CAF5FE700BF4FF0FF3C9D
:10061C0006E000BF4FF0010C02E000BF4FF0010CF0
:10062C004DF804CD4FEA40024FEA41037FEA226CB9
:10063C0018BF7FEA236C11D001B052EA530C18BFDB
:10064C0090EA010F58BFB2EB030088BFC81738BF40
:10065C006FEAE17018BF40F0010070477FEA226C2E
:10066C0002D15FEA402C05D17FEA236CE4D15FEA2A
:10067C00412CE1D05DF8040B704700BF844608465E
:10068C006146FFE70FB5FFF7C9FF002848BF10F11F
:10069C00000F0FBD4DF808EDFFF7F4FF0CBF012064
:1006AC0000205DF808FB00BF4DF808EDFFF7EAFFEE
:1006BC0034BF012000205DF808FB00BF4DF808EDA9
:1006CC00FFF7E0FF94BF012000205DF808FB00BF9E
:1006DC004DF808EDFFF7D2FF94BF012000205DF824
:1006EC0008FB00BF4DF808EDFFF7C8FF34BF012031
:1006FC0000205DF808FB00BF42000ED2B2F1FE4FA5
:10070C000BD34FF09E03B3EB126209D44FEA0023D4
:10071C0043F0004323FA02F070474FF0000070479B
:10072C0012F1610F01D1420202D14FF0FF3070473C
:10073C004FF00000704700BF2DE9F843054608460E
:10074C0011469946FFF708FD064600F04FFD254B74
:10075C00A96818603046FFF709FE4946FFF706FE08
:10076C00E968FFF7FBFCD5F8188004464146FFF713
:10077C00B9FF00B144466F6920463946FFF794FF34
:10078C0000B13C4600214846EC60FFF7ABFF20B3BC
:10079C0029693046FFF7E0FC2968FFF7E7FD494679
:1007AC00FFF798FE814669683046FFF7DFFD21466A
:1007BC00FFF7D4FC4946FFF7D1FC2E6104460146F5
:1007CC004046FFF771FF00B1444621463846FFF71B
:1007DC0089FF28B13846BDE8F8834FF00009E2E7FD
:1007EC002046F8E78000002030B595B02422002187
:1007FC000BA802F05DFB1422102500210DEB02006A
:10080C0002F056FB00212A4601A802F051FB0224FB
:10081C0001230AA8CDE90E350A9401F0C3F901466B
:10082C0008B172B6FEE70F23CDE90700CDE905301C
:10083C00099005A801F078FB08B172B6FEE70390A9
:10084C0001A8019401F02CFC08B172B6FEE715B0BA
:10085C0030BD00004FF0FF332DE9F04F4FF0010891
:10086C004FF0020900274FF0030B8A4D9DB06B61CE
:10087C00EB61AB6100F09CFCFFF7B6FFEB690FACD2
:10088C0043F00203EB61AB69102243F48043002177
:10089C00AB61204602F00CFBAB69002243F0040371
:1008AC00AB61AB69032103F004030693069BAB69B0
:1008BC00794843F00803AB61AB69784E03F0080349
:1008CC000793079B01F05CF9754B21467548CDE900
:1008DC000F93CDF8448001F085F821466E48CDE9A0
:1008EC000FB8CDE9117901F07DF83A4606210720C1
:1008FC0000F0FCFE072000F029FF6B693A4643EA42
:10090C0008036B616B69394603EA08030B200593F6
:10091C00059B00F0EBFE0B2000F018FFEB6939464D
:10092C0043EA0903EB61EB69202203EA0903049310
:10093C0010A8049B02F0BCFA07235B490DF1200AB6
:10094C00C6E9001340F2E733214630460897C6E962
:10095C000337CAF80470B760B761CDF83CB0CDF876
:10096C004480CDF8548001F099FD08B172B6FEE7D1
:10097C00CDE908005146304601F0C2FE08B172B60E
:10098C00FEE7AB69494F43F48043AB61AB69484A1E
:10099C0003F480430393039B4FF4E133C7E9002333
:1009AC000C23C7E90200C7E905303861F861384605
:1009BC0001F06AFF08B172B6FEE73E4D3E4B0F9058
:1009CC002B604FF46023C4E90100A86028756860AF
:1009DC00284685F80C80EB61C5F8108000F0F6FD18
:1009EC0008B172B6FEE7CDE90F08119021462846F2
:1009FC0000F0AAFC834608B172B6FEE708900146E7
:100A0C00CAF804001C22204602F052FA4FF0804330
:100A1C002A4DC5E9003B4FF6FF732846C5E9033B59
:100A2C00C5F808B0C5F818B001F00CFD08B172B6E5
:100A3C00FEE7CDE908005146284601F061FE08B1F9
:100A4C0072B6FEE760231190CDE90F3013900822A7
:100A5C002146284601F0A2FD834608B172B6FEE796
:100A6C00284600F0B9FA5A4641460B4801F088F87E
:100A7C005A464946084801F083F81149424638461F
:100A8C0002F047F90821284601F038FED0B172B6C1
:100A9C00FEE700BF00100240000C0140F0000020F7
:100AAC00000021100008014000040040A8000020B4
:100ABC0000380140C401002000240140380100200E
:100ACC009B0000202B683C21D863304601F034FC9D
:100ADC0000F08CFB4FF0804309934FF07C534FF0A8
:100AEC0000080A93924BDFF84CB20893924BCBF868
:100AFC000000CDF82C80CDF830800E93CDF83480EA
:100B0C008E4800F0DBFC0A218C4800F075FB8C4F02
:100B1C0018B98A4800F014FC38603868FFF7CEFB2F
:100B2C008849FFF723FC8849FFF7D4FC874B884999
:100B3C001860FFF7D7FD40B3864B1F782FBB012100
:100B4C003A468548197001F01BF83A460221824852
:100B5C0001F016F822462B68DF63804B03F1180C6A
:100B6C00174618685968083303C763453A46F7D1E6
:100B7C0019889B783980BB702046FFF7E1FA642313
:100B8C0082B22146764801F0AEFE00F02FFBDBF876
:100B9C000030C01A632831D900F028FB3368714A41
:100BAC005B6ACBF8000019B211806F4A1088118073
:100BBC00181A4FF4167300B25843602390FBF3F0ED
:100BCC006A4B00B218806A4B93F90030B3B1694B91
:100BDC00604A1B781278134310D10028B8BF4042EA
:100BEC0080B2FFF76FFB64490246514B09685046CF
:100BFC00FFF7A2FDFFF780FD2F68F8635F4B93F8BA
:100C0C000090B9F1010F7FF47BAF00225C4F1A709A
:100C1C00394605225B4802F053F9564BB0B91870AF
:100C2C004C4B59491870CDF82C80204602F086F9AF
:100C3C002046FFF785FA642382B22146484801F02A
:100C4C0052FE00233B607B603B8159E71B78012BF4
:100C5C0001D14E49E9E73F4B1B7800930BB14C494E
:100C6C00E3E7042238464B4902F02AF90246E0B980
:100C7C003F4B49461870404B00903748C3F80080F2
:100C8C00CDF82C8000F07CFF009A0221324800F055
:100C9C0077FF2B68009ADA63344B3F4AB3F9003084
:100CAC003221204602F0CEF8C2E73B78462B1ED10B
:100CBC00781C02F03FF840F2E73290420346A8BF9E
:100CCC00134618460193FFF7FDFA2B4A494610606C
:100CDC00274A214882F800904A4600F051FF009ABA
:100CEC0002211D4800F04CFF019B2C4AD8E7522BE7
:100CFC00A7D1781C02F01EF840F2E732904203466E
:100D0C00A8BF134618460193FFF7DCFAFF211A4AD5
:100D1C001060174A104811704946009A00F030FFD5
:100D2C004A4602210C4800F02BFF019B1C4AB7E7F6
:100D3C00CDCCCC3D8400002000C07944C4010020FF
:100D4C00940000200000A04000F07F45900000209F
:100D5C00000060408E000020000C0140E2380008CA
:100D6C00A80000208C0000208A00002088000020B1
:100D7C0078000020980000207C00002099000020C2
:100D8C009C000020343800083A3800085438000819
:100D9C00643800087B38000880380008A038000848
:100DAC00C138000830B50228044689B029D1002288
:100DBC000121154800F0E4FE00222146124800F003
:100DCC00DFFE0022114B1B68DA630122104B1A70F4
:100DDC00104B01AA03F1180514461868596808331A
:100DEC0003C4AB422246F7D119889B782180A370AB
:100DFC0001A8FFF7A5F9642382B201A9064801F006
:100E0C0072FD09B030BD00BF000C0140380100205C
:100E1C0098000020FD380008A80000200268114B43
:100E2C0010B49A421CD1104B104C1878104B0A2855
:100E3C00197801D00D280BD10022012062540D49E4
:100E4C0008701A70012208490B4810BC01F061BFF0
:100E5C004A1CD2B2092A1A706054F3D90022F0E766
:100E6C0010BC7047003801409B0000209C00002003
:100E7C009A00002099000020A800002072B6FEE71E
:100E8C000E4B82B09A6942F001029A619A6902F0A3
:100E9C0001020092009ADA6942F08052DA61DB6951
:100EAC00074A03F080530193019B536823F0E063DE
:100EBC0043F00073536002B0704700BF0010024053
:100ECC000000014030B5054687B01022002102A871
:100EDC0001F0EEFF2A681D4B9A4234D103F56C43A6
:100EEC009A691B4842F400729A619A6902A902F449
:100EFC0000720092009A9A69164C42F004029A61B0
:100F0C009B69012203F004030193019B0323CDE9A8
:100F1C00022300F067FD80204FF480720023C4E9A7
:100F2C0003024FF4806C20220B492046C4E90013C5
:100F3C00C4E905C2A360E36100F02AFC08B1FFF725
:100F4C009DFF2C62656207B030BD00BF00240140DC
:100F5C00000801408001002008000240036882B0B4
:100F6C00B3F1804F0AD103F50433DA6942F0010280
:100F7C00DA61DB6903F001030193019B02B0704756
:100F8C0010B5044686B01022002102A801F090FF93
:100F9C0022680F4B9A4219D103F50333DA690D48D5
:100FAC0042F00202DA61DA6902A902F0020200924E
:100FBC00009A9A6942F004029A619B6903F0040357
:100FCC000193019BC023029300F00CFD06B010BDF1
:100FDC00000400400008014010B5044686B0102201
:100FEC00002102A801F064FF2368B3F1804F13D1F4
:100FFC0003F504339A69094842F004029A619B692B
:10100C00042203F004030193019B022302A9CDE9FE
:10101C000223059300F0E6FC06B010BD0008014069
:10102C0010B5044686B01022002102A801F040FF42
:10103C0022681B4B9A4230D103F558439A691948E0
:10104C0042F480429A619A6902A902F480420092A9
:10105C00009A9A69002442F004029A619B694FF449
:10106C00007203F004030193019B0223CDE90223D8
:10107C000323059300F0B6FC4FF48063094802A9E2
:10108C00CDE90234049400F0ADFC25202246062163
:10109C0000F02CFB252000F059FB06B010BD00BF62
:1010AC000038014000080140FEE7FEE7FEE7FEE7DE
:1010BC00FEE770477047704700F08CB8022000F0D4
:1010CC0065BD0000014800F0F9BB00BF80010020A5
:1010DC00014801F0BBBC00BFA80000200A4A03462F
:1010EC00106810B508B9094810600949094C034447
:1010FC00091B8B4206D901F0F5FE0C2303604FF05F
:10110C00FF3010BD1360FCE7F40100204803002001
:10111C00002800200004000070470000FFF7FCFFCF
:10112C000B480C490C4A002302E0D458C450043339
:10113C00C4188C42F9D3094A094C002301E013600E
:10114C000432A242FBD301F0D3FEFFF783FB7047BE
:10115C00000000205C000020983A00085C00002091
:10116C0044030020FEE7000038B50E4B05461A7804
:10117C004FF47A73B3FBF2F30B4A1068B0FBF3F045
:10118C0000F0F2FA044658B90F2D09D80246294648
:10119C004FF0FF3000F0AAFA2046044B1D6038BD1A
:1011AC000120FCE7040000200000002008000020C3
:1011BC00074A08B51368032043F01003136000F0CE
:1011CC0083FA0F20FFF7D0FFFFF75AFE002008BD6F
:1011DC0000200240034A044B11681B780B44136037
:1011EC00704700BFF801002004000020014B186874
:1011FC00704700BFF8010020F7B5002604460D46E5
:10120C000196FFF7F3FF236807469A68D10508D5C6
:10121C000120A36A84F8246043F02003A36203B086
:10122C00F0BD5A68D20503D4DB6A13F4700F3DD0BD
:10123C003D4B02201E6800F0ADFF23683B4A196944
:10124C00B6FBF0F611423A4A51D1D86839490842F6
:10125C004DD1196911425BD1DA68374B1A420CBF78
:10126C00142329235E43019BB34223D26A1C04D06E
:10127C00002D53D1019BB3420AD3019B013301933F
:10128C00F1E76E1C13D065B923681B6898070DD461
:10129C00A36A032043F00403A362002384F82430E0
:1012AC00BDE7FFF7A3FFC01BA842EDD82268136867
:1012BC009907E6D56FF0120322681360A36A43F412
:1012CC000073A362936803F46023B3F5602F0CD111
:1012DC00237B53B9A36A23F48073A362A36ADB0450
:1012EC0003D4A36A43F00103A362002097E71969B2
:1012FC00114203D1D968104A11420BD019690F4A17
:10130C00114209D1DB6813420CBF5423FC23A9E71B
:10131C002923A7E75423A5E7FC23A3E7FFF766FFE0
:10132C00C01BA842A6D8A8E700000020244992249C
:10133C009224491224499200922449004992240093
:10134C000368D86C70470000002373B5019390F8C4
:10135C0024300446012B6CD0012380F824304D68D6
:10136C000268062D086805EB850322D81F26556BED
:10137C00053B9E4025EA060500FA03F32B43536315
:10138C0009288B6800EB40054FF0070129D9D66876
:10139C001E3DA94026EA0101AB400B43D360A0F1EE
:1013AC001003012B25D90020002384F8243002B02F
:1013BC0070BD0C2D4FF01F0509D8166B233B9D40BB
:1013CC0026EA050500FA03F32B431363D8E7D66A24
:1013DC00413B9D4026EA050500FA03F32B43D362FB
:1013EC00CEE71069A94020EA0101AB400B43136121
:1013FC00D9E7114B9A4216D193681B02D3D4936848
:10140C00102843F400039360CDD10C4B0C4A1B689D
:10141C00B3FBF2F30A2253430193019B002BC2D07E
:10142C00019B013BF8E7A36A012043F02003A36270
:10143C00BAE70220BBE700BF0024014000000020F7
:10144C0040420F00002337B50193036804469A68A5
:10145C00D20702D5002003B030BD9A6842F00102D9
:10146C009A60144B144A1B68B3FBF2F30193019B73
:10147C00E3B9FFF7BBFE054623689B68DB07E9D49D
:10148C00FFF7B4FE401B0228F6D923689B6813F0C3
:10149C000103F1D1A26A012042F01002A262E26AB9
:1014AC0084F8243042F00102E262D4E7019B013B54
:1014BC00DCE700BF0000002040420F0010B590F8A0
:1014CC0024300446012B54D0012380F82430FFF73C
:1014DC00B9FF002849D1A36A274A23F4407323F0AB
:1014EC00010343F48073A3622368934204D123491C
:1014FC004A6812F4702F2ED1A26A22F48012A262D2
:10150C005A68520541BFA26A22F4405242F48052FA
:10151C00A262A26A12F480521CBFE26A22F0060296
:10152C00E262002284F824206FF002021A609A68AA
:10153C0002F46022B2F5602F13D10F4A934205D109
:10154C00A2F58062526812F4702F0AD19A6842F4A4
:10155C00A0029A6010BDA26A42F48012A2624A688C
:10156C00CFE79A6842F48012F3E7002384F8243022
:10157C00F0E70220EEE700BF002801400024014004
:10158C0038B5036804469A68D10701D4002038BDE9
:10159C009A6822F001029A60FFF728FE054623683C
:1015AC009B68DB07F2D5FFF721FE401B0228F6D91A
:1015BC0023689B68DA07F2D5A36A012043F0100375
:1015CC00A362E36A43F00103E362E0E7F8B5044683
:1015DC0000286DD0836A23B9C36280F82430FFF7EA
:1015EC0071FC2046FFF7CCFFA36A13F0100361D106
:1015FC0000285FD1A26A616822F4885222F00202AC
:10160C0042F00202E569A668A262227B2943B6F584
:10161C00807F41EA420136D0771E7D427D412D020A
:10162C00277D012F06D182BBA269013A45EA4232DD
:10163C0042F400652268B6F5807F576827F4694745
:10164C0045EA0705556097681D4D05EA070545EA0B
:10165C000105956001D0012E02D12369013B1B05C8
:10166C00D56A25F470052B43D3629268154B134051
:10167C00994213D10023E362A36A23F0030343F0DE
:10168C000103A362F8BD3546CAE7A26A42F0200204
:10169C00A262E26A42F00102E262CBE7A36A23F0A3
:1016AC00120343F01003A362E36A43F00103E36205
:1016BC000120E7E7A36A43F01003A362F8E700BF39
:1016CC00FDF7E1FFFE0E1FFF07490302CA6803F492
:1016DC00E06322F4E0621204120C134343F0BF6384
:1016EC0043F40033CB60704700ED00E0154B30B590
:1016FC00DC68C4F30224C4F10703251D042B28BFA6
:10170C000423062D4FF0FF3594BF0024033C05FA4B
:10171C0003F321EA0303A54022EA0502A3400028B3
:10172C0043EA0203ACBF00F16040074A4FEA0313DF
:10173C00DBB2ABBF00F5614000F00F0080F8003366
:10174C00135430BD00ED00E014ED00E0002807DB81
:10175C0001234109034A00F01F00834042F8213065
:10176C00704700BF00E100E00138B0F1807F0BD280
:10177C004FF0E023F021054A586182F82310002035
:10178C00072298611A6170470120704700ED00E054
:10179C00034610B530B301681420134A0A44B2FB57
:1017AC00F0F292001A64114ADA63022283F82120C3
:1017BC00D3E901242243DC68086822431C696FF3D7
:1017CC000D1022435C6922439C692243DC6922434D
:1017DC0002430A6000200122986383F8200083F8FA
:1017EC00212010BD0120FCE7F8FFFDBF00000240E6
:1017FC0090F821200346022A06D00422826301209D
:10180C00002283F8202070470268C06B116821F019
:10181C000E011160116821F00101116001211A6C97
:10182C0001FA02F24260002083F82110E8E7000080
:10183C0008B590F82130022B03D0042383630120D8
:10184C0008BD03681A6822F00E021A601A6822F0AA
:10185C0001021A60174A93421FD0143293421ED0D1
:10186C00143293421DD0143293421DD01432934241
:10187C001DD01432934214BF4FF080734FF4801379
:10188C000D4A5360012380F82130002380F820306A
:10189C00436B03B198470020D2E70123F0E71023F4
:1018AC00EEE74FF48073EBE74FF48053E8E74FF427
:1018BC008033E5E7080002400000024070B40425C4
:1018CC00C66B026C3468036895402542196832D0A7
:1018DC004D0730D51A6896065EBF1A6822F00402CE
:1018EC001A603E4A934219D01432934218D01432E3
:1018FC00934217D01432934217D01432934217D01C
:10190C001432934214BF4FF080634FF48003344A77
:10191C005360C36A002B5ED070BC18470423F6E7F3
:10192C004023F4E74FF48063F1E74FF48043EEE794
:10193C004FF48023EBE702259540254235D08D07E7
:10194C0033D51A68940606D41A6822F00A021A6073
:10195C00012280F82120214A934219D0143293425B
:10196C0018D01432934217D01432934217D0143239
:10197C00934217D01432934214BF4FF000734FF4BC
:10198C000013174A5360002380F82030836AC1E7A4
:10199C000223F6E72023F4E74FF40073F1E74FF44A
:1019AC000053EEE74FF40033EBE708259540254252
:1019BC0011D009070FD5196821F00E011960012308
:1019CC0003FA02F27260836380F82130002380F8FE
:1019DC002030036B9EE770BC704700BF08000240CC
:1019EC00000002402DE9F74F00224FF00F0E164673
:1019FC00DFF878C15E4B00F104080D6835FA06F487
:101A0C0002D103B0BDE8F08F012404FA06F705EA11
:101A1C00070437EA050572D14D68032D06D8013D40
:101A2C00022D7FD8DFE805F08F949A00122D00F07C
:101A3C00928066D8112D00F08880FF2C94BF8146CF
:101A4C00C1464FEA8605D9F8007088BF203D0EFAD2
:101A5C0005FA27EA0A0702FA05F52F43C9F80070C0
:101A6C00D1F8049019F0805F49D0DCF8185026F0BA
:101A7C00030745F00105CCF81850DCF8185007F1B5
:101A8C00804705F00105019507F5803706F0030A3C
:101A9C00019D4FEA8A0ABD680EFA0AFB25EA0B0B78
:101AAC00344DA8425ED005F58065A8425CD005F5A2
:101ABC008065A84214BF0325022505FA0AF545EAFC
:101ACC000B05BD609D6819F4801F14BF2543A54309
:101ADC009D60DD6819F4001F14BF2543A543DD602C
:101AEC005D6819F4003F14BF2543A5435D601D6874
:101AFC0019F4803F14BF2C4325EA04041C60013602
:101B0C007BE7DFF874904D450CD015D8A9F58019FA
:101B1C004D4507D009F570294D4503D0A9F580191D
:101B2C004D458AD18A68DAB1012A08BF07614FF0A6
:101B3C00080218BF476180E7DFF840904D45F1D0AF
:101B4C0009F58039ECE7CA6877E7CA68043274E7AC
:101B5C00CA68083271E7CA680C326EE700226CE77B
:101B6C0004226AE70025A8E70125A6E70010024039
:101B7C000004014000080140000022100000311058
:101B8C000AB1016170470904FBE70000044A08B57B
:101B9C005169014202D05061FFF704F908BD00BF42
:101BAC00000401402DE9F341054638B30368DB0717
:101BBC0010D42B689F075ED42B68190700F1958011
:101BCC002B685A0700F1C180EB69002B40F02C8187
:101BDC00002029E0904C636803F00C03042B07D021
:101BEC00636803F00C03082B0AD16368DE0307D586
:101BFC0023689C03DDD56B68002BDAD1012013E040
:101C0C006B68B3F5803F12D1236843F480332360B3
:101C1C00FFF7ECFA064623689803CAD4FFF7E6FAF6
:101C2C00801B6428F7D9032002B0BDE8F0819BB972
:101C3C00236823F480332360236823F480232360F8
:101C4C00FFF7D4FA064623689903B2D5FFF7CEFA0C
:101C5C00801B6428F7D9E6E7B3F5A02F236803D1DE
:101C6C0043F480232360CFE723F48033236023687D
:101C7C0023F48023CBE7684C636813F00C0F07D078
:101C8C00636803F00C03082B10D16368DA030DD4DE
:101C9C0023689B0702D52B69012BAFD123686A6996
:101CAC0023F0F80343EAC203236085E72A695B4B00
:101CBC006AB101221A60FFF799FA064623689F075A
:101CCC00ECD4FFF793FA801B0228F7D9ABE71A6024
:101CDC00FFF78CFA0646236898077FF56DAFFFF780
:101CEC0085FA801B0228F6D99DE7AA694A4E4B4B10
:101CFC00E2B10122C3F88024FFF778FA0446736A34
:101D0C009B070DD54FF4FA52454B1B68B3FBF2F30E
:101D1C00019300BF019B5A1E0192002BF9D14FE792
:101D2C00FFF764FA001B0228E9D97CE7C3F880248A
:101D3C00FFF75CFA0446736A9F077FF541AFFFF724
:101D4C0055FA001B0228F6D96DE7334CE369D8002D
:101D5C0024D40127E36943F08053E361E36903F082
:101D6C0080530093009B2F4E3368D90518D5EB6830
:101D7C00012B26D1236A43F001032362FFF736FAC5
:101D8C0041F288380646236A9B073FD5002F3FF463
:101D9C001BAFE36923F08053E36115E70027E2E70B
:101DAC00336843F480733360FFF720FA804633685E
:101DBC00DA05DCD4FFF71AFAA0EB08006428F6D990
:101DCC0031E7ABB9236A41F2883823F0010323626F
:101DDC00236A23F004032362FFF708FA0646236AFA
:101DEC009807D3D5FFF702FA801B4045F7D91AE7BD
:101DFC00052B236A03D143F004032362BAE723F0D3
:101E0C0001032362236A23F00403B6E7FFF7EEF91C
:101E1C00801B4045B7D906E7001002400000424243
:101E2C0000000020007000402A4C626802F00C0296
:101E3C00082A3ED00022022B274B1A662CD1FFF722
:101E4C00D5F906462368990120D42B6AB3F5803F57
:101E5C0005D16268A96822F400320A436260696A9B
:101E6C0062680B4322F474121343012263601A4B11
:101E7C001A66FFF7BBF9054623689A013FF5A8AE31
:101E8C00FFF7B4F9401B0228F6D9CCE6FFF7AEF900
:101E9C00801B0228D6D9C6E6FFF7A8F905462368A9
:101EAC009B017FF595AEFFF7A1F9401B0228F6D9EF
:101EBC00B9E6012B3FF4A2AE60682B6A00F48032C5
:101ECC009A427FF49BAE6B6A00F47010C01A18BF74
:101EDC000120A9E600100240000042420D4A53685E
:101EEC0003F00C01082912D10B48C3F38341DB0327
:101EFC00405C09D55368094AC3F340435043084A30
:101F0C00D35CB0FBF3F07047064B58437047034863
:101F1C00704700BF001002406539000800127A00BB
:101F2C006339000800093D002DE9F0410D460446D7
:101F3C0010B90120BDE8F081444A136803F007038F
:101F4C008B4228D321688E0730D4CA0743D43F4A2A
:101F5C00136803F00703AB4265D822683C4D12F0BE
:101F6C00040F6CD1130706D56B68226923F46053F8
:101F7C0043EAC2036B60FFF7B1FF6B68354AC3F3EA
:101F8C000313D35CD840344B1860344B1868FFF7FC
:101F9C00EBF80020CEE7136823F007030B43136024
:101FAC00136803F007038B42C3D1CBE7284B11F026
:101FBC00040F1EBF5A6842F4E0625A60080742BF21
:101FCC005A6842F460525A605A68A06822F0F002D3
:101FDC0002435A60B9E762681D4E012A33681AD170
:101FEC0013F4003FA5D0736841F2883823F0030343
:101FFC0013437360FFF7FAF807467368626803F0DF
:10200C000C03B3EB820FA2D0FFF7F0F8C01B4045D6
:10201C00F3D903208EE7022A02D113F0007FE1E707
:10202C0013F0020FDEE7136823F007032B43136052
:10203C00136803F00703AB427FF47BAF8DE76B684B
:10204C00E16823F4E0630B436B608BE700200240F4
:10205C000010024053390008000000200800002046
:10206C00044B054A5B68C3F30223D35C034A106834
:10207C00D8407047001002404B3900080000002087
:10208C00044B054A5B68C3F3C223D35C034A106854
:10209C00D8407047001002404B3900080000002067
:1020AC0003682DE9F3410546D80720D5364CE36982
:1020BC00D9002AD40126E36943F08053E361E36934
:1020CC0003F080530193019B304F3B68DA051ED51A
:1020DC00236A13F440732ED1236A6A6823F4407385
:1020EC00134323621EB1E36923F08053E3612A6832
:1020FC00910706D52449A8684B6823F44043034351
:10210C004B60D30637D4002012E00026DCE73B6896
:10211C0043F480733B60FFF769F880463B68DB054E
:10212C00D6D4FFF763F8A0EB08006428F6D9032097
:10213C0002B0BDE8F0816A6802F440729A42CBD0DA
:10214C000120134A236AC2F84004002023F4407192
:10215C00DF07C2F840042162BED5FFF747F841F211
:10216C0088380746236A9807B6D4FFF73FF8C01B98
:10217C004045F7D9DBE7044AE968536823F4800348
:10218C000B435360BFE700BF0010024000700040DB
:10219C0000004242022808B544D0102803D0012880
:1021AC0022D0002034E0254B5A68186810F080705B
:1021BC002ED0C2F383412248D20348BF5A68405CF8
:1021CC0041BF2049C2F34042895C1F4A5B684CBF47
:1021DC00B2FBF1F21D4A5B0202FB00F018D40323A0
:1021EC004000B0FBF3F013E040F20231134A136AE3
:1021FC001940B1F5817F1ED003F44073B3F5007F15
:10220C0007D149F64040536A13F0020F08BF002073
:10221C0008BDB3F5407FC4D113684FF2244013F4CA
:10222C00003FF3E7FFF72CFF044B5B68C3F38133EC
:10223C0001335B00D5E74FF40040E9E700100240A2
:10224C00773900087539000800127A0000093D0042
:10225C00036A026A70B522F0010202624468826964
:10226C000D6822F073022A438D6823F002032B437E
:10227C000A4DA8420BD1CD6823F008032B4324F45C
:10228C004074D1E90556354323F004032C434460D4
:10229C0082614A684263036270BD00BF002C01403A
:1022AC00036A026A70B522F4807202624468C269E1
:1022BC000D6822F073022A438D6823F4007343EAFD
:1022CC0005230B4DA8420DD1CD6823F4006343EADE
:1022DC00052324F44054D1E90556354323F4806397
:1022EC0044EA05144460C2614A68C263036270BD6B
:1022FC00002C0140036A026A30B522F4805202625B
:10230C004468C2690D6822F4E64242EA05228D68EF
:10231C0023F4005343EA0533064DA84202BF4D692E
:10232C0024F4804444EA85144460C2614A6802641F
:10233C00036230BD002C0140034630B590F83E00DE
:10234C0093F83F2093F8425093F84340C0B2D2B276
:10235C00EDB2E4B2B9B9012844D1012D12D1022257
:10236C0083F83E2083F842201B681A6A22F001028F
:10237C001A621A6A42F0010200201A621A6842F0CC
:10238C0001021A6030BD042911D1012A2AD1012C75
:10239C0028D1022283F83F2083F843201B681A6A55
:1023AC0022F010021A621A6A42F01002E4E70128C5
:1023BC0018D1012AE6D1012DE4D1012CE2D102225F
:1023CC0083F83E2083F83F2083F8422083F8432093
:1023DC001B681A6A22F001021A621A6A42F00102A0
:1023EC001A62DCE70120CDE7154A0368904206D05B
:1023FC00B0F1804F03D0A2F59432904207D14A68D5
:10240C0023F070031343CA6823F4407313434A69DF
:10241C0023F08003134303608B68C3620B688362F1
:10242C00074B984204BF0B690363012343610369A3
:10243C00DB0742BF036923F001030361704700BF50
:10244C00002C014010B5044630B390F83D3003F039
:10245C00FF021BB980F83C20FEF780FD02232068A8
:10246C0084F83D30211DFFF7BFFF0123002084F8C5
:10247C00463084F83E3084F83F3084F8403084F89D
:10248C00413084F8423084F8433084F8443084F886
:10249C00453084F83D3010BD0120FCE7F8B50D4601
:1024AC00044600284CD090F83D3003F0FF021BB9D5
:1024BC0080F83C20FEF764FD0223214684F83D3071
:1024CC0051F8040B836823F4804323F007038360E3
:1024DC00FFF78AFF81682A688369AE691143AA688D
:1024EC0023F4407323F0030342EA06221A432B69B8
:1024FC00EE691B0143EA0623EE6822F47C42334367
:10250C002E6A22F0FC0243EA0633076A6E69134313
:10251C006A6827F0220742EA06128160174383613A
:10252C0001230762002084F8463084F83E3084F89A
:10253C003F3084F8423084F8433084F83D30F8BDA5
:10254C000120FCE7036A026A70B522F010020262F5
:10255C00446882690D6822F4E64242EA05228D68DD
:10256C0023F0200343EA05130B4DA8420DD1CD688F
:10257C0023F0800343EA051324F44064D1E90556A3
:10258C00354323F0400344EA8504446082614A6881
:10259C008263036270BD00BF002C014038B590F817
:1025AC003C300446012B4FD00120082A84F83C0013
:1025BC003AD006D8BAB1042A26D0002384F83C308D
:1025CC0038BD0C2AF9D12068FFF794FEC3690A695B
:1025DC0043F40063C361C36923F48063C361C369BB
:1025EC0043EA02232EE02068FFF732FE83690A6972
:1025FC0043F008038361836923F0040383618369D7
:10260C00134383610020D8E72068FFF79BFF8369A1
:10261C000A6943F400638361836923F480638361F3
:10262C00836943EA0223ECE72068FFF739FEC369AC
:10263C000A6943F00803C361C36923F00403C3614F
:10264C00C3691343C361DDE70220B9E710B5012468
:10265C00036A01F01F018C4023EA04030362036A3E
:10266C008A401A43026210BD08B529B990F83E3071
:10267C00012B1DD001202EE0042907D190F83F300A
:10268C00012BF7D1022380F83F3014E0082907D141
:10269C0090F84030012BEDD1022380F840300AE055
:1026AC0090F84130012BE5D1022380F8413002E053
:1026BC00022380F83E3000680122FFF7C7FF0D4B64
:1026CC00984209D0B0F1804F0BD1836803F0070317
:1026DC00062B09D1002008BD436C43F4004343642E
:1026EC00F3E7054B9842F0D0036843F00103036015
:1026FC00F0E700BF002C014000040040FFF7B4BF1E
:10270C0030B590F83C200346012A4FF002001ED051
:10271C001A6883F83D0054680D6824F070042C434B
:10272C00906854600A4CA24206D0B2F1804F03D09C
:10273C00A4F59434A24204D1496820F080000143EE
:10274C0091600122002083F83D2083F83C0030BDCD
:10275C00002C0140026802F10C0353E8003F23F403
:10276C0090730C3242E8003102680029F2D102F178
:10277C00140353E8003F23F0010302F1140C4CE85E
:10278C0000310029F3D1036B012B0BD102F10C03A7
:10279C0053E8003F23F0100302F10C0C4CE800311D
:1027AC000029F3D1202380F84230002303637047C3
:1027BC0010B504460368C1681A6922F440520A43F2
:1027CC001A6182680069D9680243606921F4B051CA
:1027DC0021F00C0102430A43DA605A69A16922F420
:1027EC0040720A435A610E4A934215D1FFF748FCD6
:1027FC0019234343626820689200B3FBF2F364220E
:10280C00B3FBF2F102FB11331B013233B3FBF2F3D6
:10281C0003EB0113836010BDFFF722FCE8E700BF58
:10282C0000380140F7B505460C4617461E462A6887
:10283C00136834EA030301D1002021E0701CF7D0A7
:10284C00FEF7D4FCC01B86421CD3DEB12B68DA68C1
:10285C005107ECD5802CEAD0402CE8D01A6812072E
:10286C00E5D5002401941A68284601925B6801930F
:10287C00019BFFF76FFF082301206B6485F8404034
:10288C0003B0F0BD0320FBE710B5044648B390F845
:10289C00413003F0FF021BB980F84020FEF7C0FB6B
:1028AC002423226884F84130D368204623F4005353
:1028BC00D360FFF77DFF236800201A6922F4904251
:1028CC001A615A6922F02A025A61DA6842F40052FB
:1028DC00DA602023606484F8413084F8423060630D
:1028EC0010BD0120FCE72DE9F843984690F84130E3
:1028FC000446202B0E4617463FD100293FD0002A14
:10290C003DD021230025456480F84130FEF76EFC54
:10291C00A3688146B3F5805FA784E78403D123695C
:10292C000BB935461E46E38C9BB253B943464A4617
:10293C0040212046FFF776FF202350B984F8413020
:10294C000AE043464A4680212046FFF76BFF28B138
:10295C002023032084F84130BDE8F88322684EB967
:10296C0035F8023BC3F308035360E18C013989B29B
:10297C00E184D8E716F8013BF6E70220ECE70120EA
:10298C00EAE77047704708B50023406AC385C384E3
:10299C00FFF7F8FF08BD704790F8423007B5222BBF
:1029AC0042D181680268B1F5805F836A3ED10169CA
:1029BC0000293ED15268C2F3080223F8022B83622D
:1029CC00C38D013B9BB2C385002B2DD10268D1680E
:1029DC0021F02001D160D16821F48071D16051695E
:1029EC0021F001015161202280F842204363026BE7
:1029FC00012A026827D1036302F10C0353E8003F5C
:102A0C0023F0100302F10C0C4CE800310029F3D137
:102A1C001368DB0605D50191136801935368019384
:102A2C00019B818DFFF7B7FF03B000BD39B9016978
:102A3C0029B95268D2B21A70836A0133BFE752685F
:102A4C0002F07F02F7E7FEF7E9F9EDE7036873B5EB
:102A5C001A6804461607D9685D6908D1960668D5C8
:102A6C008D0666D502B0BDE87040FFF795BF05F046
:102A7C00010001F4907505435BD0D60705D5CD0553
:102A8C0042BF636C43F001036364530704D518B170
:102A9C00636C43F002036364960704D518B1636C4E
:102AAC0043F004036364150707D501F020030343C7
:102ABC001EBF636C43F008036364636C002B32D05D
:102ACC00920604D58B0602D52046FFF765FF2668D3
:102ADC0020467369626C03F0400302F0080253EA6B
:102AEC00020522D0FFF736FE73695E0618D5226800
:102AFC0002F1140353E8003F23F04003143242E880
:102B0C0000310029F3D1E06B50B1744B4363FEF7F5
:102B1C008FFE40B1E06B436B02B0BDE870401847CC
:102B2C002046FFF72FFF02B070BDFFF72BFF656447
:102B3C00F9E7206B012840F09480D50640F1918094
:102B4C00C80640F18E80002201921A6801925A68E0
:102B5C000192019A5A6952064DD5E16B0A68526886
:102B6C0092B2002ADFD0A08D9042DCD9E2858A692E
:102B7C00202A36D003F10C0252E8002F22F4807286
:102B8C0003F10C0040E800210029F3D103F11402F9
:102B9C0052E8002F22F0010203F1140040E800215A
:102BAC000029F3D103F1140252E8002F22F0400265
:102BBC0003F1140040E800210029F3D1202284F80D
:102BCC004220216303F10C0252E8002F22F0100284
:102BDC0003F10C0040E800210029F3D1E06BFEF773
:102BEC0007FE02236363E38DA18DC91A89B22046C7
:102BFC00FFF7D1FE97E7E28DE18D92B289B2002901
:102C0C0091D0A18D891A89B200298CD003F10C02C4
:102C1C0052E8002F22F4907203F10C0545E80020D5
:102C2C000028F3D103F1140252E8002F22F0010224
:102C3C0003F1140545E800200028F3D1202284F884
:102C4C004220206303F10C0252E8002F22F0100204
:102C5C0003F10C0545E800200028F3D1022363633F
:102C6C00C5E7160628D50D0626D594F84120212A4D
:102C7C007FF459AFA168226AB1F5805F17D1216941
:102C8C00A9B932F8021BC1F3080159602262E28C27
:102C9C00013A92B2E284002A7FF445AFDA6822F05E
:102CAC008002DA60DA6842F04002DA603BE7511CDD
:102CBC00216212785A60EAE750067FF534AF4A0673
:102CCC007FF531AFDA68204622F04002DA6020232B
:102CDC0084F84130FFF755FE25E700BF9329000823
:102CEC000023C285436422238285026980F8423026
:102CFC00816203681AB1DA6842F48072DA605A6948
:102D0C00002042F001025A61DA6842F02002DA60D7
:102D1C00704770B590F84260202E07D141B13AB19E
:102D2C0000240463FFF7DCFF204670BD0220FCE7A3
:102D3C000120FAE70A22002100F07AB8242B2DE9B1
:102D4C00F0478646904601D8012B06D100F0CAF810
:102D5C00162303600020BDE8F0870D4633482A4651
:102D6C0015F8014B065D16F00806F8D12D2C10D184
:102D7C0001262C78951C33F0100215D1302C0DD176
:102D8C002A7802F0DF02582A08D16C780235102319
:102D9C000AE02B2C04BF2C78951CECE7002BF6D109
:102DAC00302C14BF0A230823002206F1004C0CF12E
:102DBC00FF3CBCFBF3F9104603FB19CAA4F1300726
:102DCC00092F0FD83C46A3421BDD571C07D0814569
:102DDC0014D301D1A24511DB012200FB034015F8ED
:102DEC00014BEBE7A4F14107192F01D8373CEAE777
:102DFC00A4F16107192F04D8573CE4E74FF0FF32D8
:102E0C00EDE7531C08D122236046CEF80030B8F110
:102E1C00000FA0D0691E06E006B14042B8F1000FC9
:102E2C0099D0002AF6D1C8F8001094E78839000828
:102E3C0013460A46014602480068FFF77FBF00BFF1
:102E4C000C0000200CB430B5184B0C1E1D689DB046
:102E5C0008DA8B234FF0FF302B601DB0BDE83040FB
:102E6C0002B070474FF40273ADF814304FF000030A
:102E7C001B930CBF234604F1FF33049307934FF6C7
:102E8C00FF7302900690ADF81630284621AB209ABD
:102E9C0002A9019300F0B0F9431CBCBF8B232B603B
:102EAC00002CDAD00022029B1A70D6E70C0000200E
:102EBC0003460244934200D1704703F8011BF9E723
:102ECC0010B56AB10139841810F8012B11F8013FC3
:102EDC009A4203D1A04201D0002AF5D1D01A10BDDC
:102EEC001046FCE7014B1868704700BF0C0000202F
:102EFC0070B500260C4D0D4B5B1B9C10A64209D1E6
:102F0C00002600F085FC0A4D0A4B5B1B9C10A64268
:102F1C0005D170BD55F8043B98470136EEE755F8DE
:102F2C00043B98470136F2E7903A0008903A0008C3
:102F3C00903A0008943A000870477047034611F81D
:102F4C00012B03F8012B002AF9D1704738B505463F
:102F5C00002940D051F8043C0C1F002BB8BFE418DA
:102F6C0000F0DEF81C4A136833B96360146028461D
:102F7C00BDE8384000F0DAB8A34208D9206821181F
:102F8C008B4201BF19685B6809182160EDE71A468E
:102F9C005B680BB1A342FAD911685018A0420BD14F
:102FAC0020680144501883421160E0D118685B68B6
:102FBC00084410605360DAE702D90C232B60D6E783
:102FCC00206821188B4201BF19685B6809182160C1
:102FDC0063605460CBE738BD4003002070B50F4EE2
:102FEC000C463168054611B900F0B0FB3060214643
:102FFC00284600F0ABFB431C03D14FF0FF342046B6
:10300C0070BDC41C24F00304A042F8D0211A284639
:10301C0000F09CFB0130F2D1EFE700BF3C03002035
:10302C002DE9F843CD1C25F0030508350C2D38BFD0
:10303C000C25002D064601DBA94204D90C23336074
:10304C000020BDE8F883DFF8D48000F069F8D8F8E8
:10305C0000301C4644BB29463046FFF7BFFF431CDB
:10306C00044658D1D8F800402746002F43D1002CF5
:10307C004BD023683946304604EB030900F066FB5D
:10308C00814542D1216830466D1A2946FFF7A6FFCB
:10309C0001303AD023682B442360D8F800305A68AA
:1030AC0062BBC8F800700FE02268521B20D40B2AB8
:1030BC0017D96119A342256018BF5960636808BF0E
:1030CC00C8F8001062514B60304600F02FF804F144
:1030DC000B00231D20F00700C21A1CBF1B1AA350A3
:1030EC00AFE76268A3420CBFC8F800205A60EBE758
:1030FC0023466468AEE73C467F68B6E71A465B68D1
:10310C00A342FBD100235360DEE70C23304633602F
:10311C0000F00CF894E70560D6E700BF40030020F0
:10312C000148FFF709BF00BF380300200148FFF733
:10313C0004BF00BF380300202DE9F0471F468E68FE
:10314C008246BE420C469046334653D8B1F90C0029
:10315C0010F4906F2BD065692368096905EB450560
:10316C00A3EB010905EBD5757B1C6D104B44AB42F1
:10317C002A4684BF1D462A46430527D5114650468C
:10318C00FFF74EFF064658B34A46216900F0FCFA99
:10319C00A38923F4906343F08003A38126614E44FA
:1031AC0026603B463E466561A5EB0905A5601F46BA
:1031BC003A464146206800F0AFFA0020A3689B1BFA
:1031CC00A36023683B442360BDE8F087504600F0C1
:1031DC00E9FA06460028E1D150462169FFF7B6FE10
:1031EC000C23CAF80030A3894FF0FF3043F04003A2
:1031FC00A381E9E73E46DBE72DE9F0471F468B89C3
:10320C0006461B060D4614469CB010D50B6973B9C7
:10321C004021FFF705FF2860286130B90C2333608B
:10322C004FF0FF301CB0BDE8F08740236B610023EA
:10323C00099320238DF8293030234FF00108039790
:10324C00644F8DF82A302346994613F8012B0AB1A6
:10325C00252AF9D1B9EB040A0BD05346224629464C
:10326C003046FFF769FF013000F0A480099A524400
:10327C00099299F80030002B00F09C8000234FF04D
:10328C00FF32CDE9052309F10109049307938DF869
:10329C0053301A934C46052214F8011B4D4800F08C
:1032AC0065FA049BD0B9D80644BF20228DF8532070
:1032BC00190744BF2B228DF8532099F800202A2A95
:1032CC0013D04C4600204FF00A0C079A214611F8F7
:1032DC00013B303B092B49D968B913E0C01B08FAF4
:1032EC0000F01843A1460490D4E7039A111D12680C
:1032FC000391002A01DB079204E0524243F00203DF
:10330C000792049323782E2B0AD163782A2B32D17F
:10331C00039B02341A1D1B68039243EAE373059363
:10332C00DFF8B49003224846217800F01FFA38B138
:10333C004022049BA0EB0900824013430134049308
:10334C0014F8011B062225488DF8281000F00EFAFF
:10335C00002835D0224818BB039B073323F0070302
:10336C0008330393099B034409936CE70C46012033
:10337C000CFB0232AAE700234FF00A0C1946013469
:10338C000593204610F8012B303A092A03D9002B5B
:10339C00C6D00591C4E7044601230CFB0121F0E7DC
:1033AC0003AB00932A4630460E4B04A9AFF30080C2
:1033BC00421CD7D1AB895B063FF532AF099831E798
:1033CC0003AB00932A463046064B04A900F07EF866
:1033DC00EEE700BF183900081E3900082239000832
:1033EC0000000000453100082DE9F04716469846CC
:1033FC008A680B6907469342B8BF1346336091F84D
:10340C0043200C46DDF820900AB101333360236869
:10341C00990642BF336802333360256815F0060500
:10342C0006D104F1190AE36832689B1AAB422BDC13
:10343C0094F843302268003B18BF0123920630D425
:10344C004146384604F14302C847013023D0236873
:10345C00226903F00603042B14BF002533684FF0D8
:10346C00000608BFE56804F11A0408BFED1A54F809
:10347C00123C08BF25EAE5759342C4BF9B1AED18B0
:10348C00B5421AD1002008E0012352464146384685
:10349C00C847013003D14FF0FF30BDE8F08701354C
:1034AC00C1E73020E11881F843005A1C94F845100C
:1034BC002244023382F84310C2E7012322464146DC
:1034CC003846C8470130E6D00136D9E72DE9F0433C
:1034DC000D7E85B0782D904607460C4699460C9E7D
:1034EC0001F1430207D8622D0AD8002D00F0D780D5
:1034FC00582D00F0BC8004F1420684F842503BE0A9
:10350C00A5F16303152BF6D801A151F823F000BFE8
:10351C0075350008893500080335000803350008A7
:10352C000335000803350008893500080335000809
:10353C0003350008033500080335000891360008F0
:10354C00B33500084336000803350008033500087E
:10355C00B336000803350008B335000803350008FE
:10356C00033500084B36000833681A1D1B6832609F
:10357C0004F1420684F842300123A1E0336820684C
:10358C00191D3160060601D51D6803E04506FBD503
:10359C00B3F90050002D03DA2D236D4284F843302B
:1035AC000A235B4811E021683368080653F8045B72
:1035BC0002D4490648BFADB23360237E54486F2B0A
:1035CC005CD10823002184F843106668002EA660A5
:1035DC0005DB21682E4321F00401216050D01646F2
:1035EC00B5FBF3F103FB115C10F80CC006F801CD30
:1035FC00AC4663450D46F3D9082B0BD12368DB078A
:10360C0008D5236961689942DEBF302306F8013C76
:10361C0006F1FF36921B2261434621463846CDF80F
:10362C00009003AAFFF7E0FE01304ED14FF0FF30BF
:10363C0005B0BDE8F083236843F0200323607825B0
:10364C00344884F845502368316813F0800F51F8E2
:10365C00045B03D113F0400F18BFADB23160D90732
:10366C0044BF43F0200323601DB11023AAE7284870
:10367C00E7E7236823F020032360F6E70A23A1E79A
:10368C001646B9E733682568181D616930602E0647
:10369C001B6801D5196002E06806FBD51980002370
:1036AC0016462361B8E7336800211A1D32601E6884
:1036BC006268304600F05AF808B1801B606063689D
:1036CC002361002384F84330A6E73246414638464E
:1036DC002369C8470130A9D023689B0713D4E0683D
:1036EC00039B9842B8BF1846A2E7012332464146D5
:1036FC003846C847013099D00135E36803995B1A05
:10370C00AB42F2DCEBE7002504F11906F5E700BF4C
:10371C00293900083A390008884210B501EB020437
:10372C0002D98442234607D8431EA14207D011F880
:10373C00012B03F8012FF8E70244824200D110BD9F
:10374C0013F8011D02F8011DF7E7000038B500233E
:10375C00054D044608462B60FDF7C0FC431C02D106
:10376C002B6803B1236038BD34030020034610B529
:10377C00C9B202449342184601D1002003E00478F8
:10378C0001338C42F6D110BD0A44914200F1FF3353
:10379C0000D1704710B511F8014B914203F8014F5D
:1037AC00F9D110BD2DE9F041074614460D4621B95B
:1037BC001146BDE8F041FFF733BC2AB9FFF7C6FB51
:1037CC0025462846BDE8F08100F01AF884420646EA
:1037DC0002D8B4EB500FF4D821463846FFF720FC42
:1037EC00804608B94546ECE7B4422246294628BF34
:1037FC003246FFF7C9FF29463846FFF7A7FBF1E72A
:10380C0051F8043C181F002BBCBF0B58C018704754
:10381C00F8B500BFF8BC08BC9E467047F8B500BFB1
:08382C00F8BC08BC9E46704781
:1038340052455345540053797374656D2068617320
:10384400206265656E20726573657465640D0A0097
:103854004572726F722C20452D53746F700D0A00DF
:103864004572726F722C204F7665726C6F616420A2
:1038740073746F700D0A0053544F50005374617485
:1038840075733A204D6F746F722073746F70706526
:10389400642C2052504D3D25640D0A00537461740C
:1038A40075733A20466F72776172642C205461728A
:1038B4006765743D25642052504D0D0A00537461B0
:1038C4007475733A20526576657273652C20546161
:1038D400726765743D25642052504D0D0A000D0A2F
:1038E400212121204D4F544F52204F5645524C4FC9
:1038F4004144202121210D0A000D0A2121212045C6
:103904004D455247454E43592053544F5020212191
:10391400210D0A00232D302B2000686C4C006566B5
:10392400674546470030313233343536373839410C
:103934004243444546003031323334353637383922
:103944006162636465660000000000010203040014
:10395400000000000000000102030406070809013A
:103964000202030405060708090A0B0C0D0E0F10CA
:1039740010010202030405060708090A0B0C0D0EC8
:103984000F1010002020202020202020202828286C
:103994002828202020202020202020202020202013
:1039A400202020208810101010101010101010105B
:1039B400101010100404040404040404040410107B
:1039C4001010101010414141414141010101010118
:1039D40001010101010101010101010101010110C4
:1039E40010101010104242424242420202020202ED
:1039F4000202020202020202020202020202021095
:103A04001010102000000000000000000000000062
:103A140000000000000000000000000000000000A2
:103A24000000000000000000000000000000000092
:103A34000000000000000000000000000000000082
:103A44000000000000000000000000000000000072
:103A54000000000000000000000000000000000062
:103A64000000000000000000000000000000000052
:103A74000000000000000000000000000000000042
:043A8400000000003E
:083A8800C4C6FF7F010000002D
:043A900031010008F8
:043A94000D01000818
:103A980000127A0001000000100000001000002051
:103AA80000000000FC01002064020020CC0200207D
:103AB80000000000000000000000000000000000FE
:103AC80000000000000000000000000000000000EE
:103AD80000000000000000000000000000000000DE
:0C3AE800000000000000000000000000D2
:0400000508001129B5
:00000001FF
